{
  "contractName": "MyERC777",
  "abi": [
    {
      "inputs": [],
      "stateMutability": "nonpayable",
      "type": "constructor"
    },
    {
      "anonymous": false,
      "inputs": [
        {
          "indexed": true,
          "internalType": "address",
          "name": "owner",
          "type": "address"
        },
        {
          "indexed": true,
          "internalType": "address",
          "name": "spender",
          "type": "address"
        },
        {
          "indexed": false,
          "internalType": "uint256",
          "name": "value",
          "type": "uint256"
        }
      ],
      "name": "Approval",
      "type": "event"
    },
    {
      "anonymous": false,
      "inputs": [
        {
          "indexed": true,
          "internalType": "address",
          "name": "operator",
          "type": "address"
        },
        {
          "indexed": true,
          "internalType": "address",
          "name": "tokenHolder",
          "type": "address"
        }
      ],
      "name": "AuthorizedOperator",
      "type": "event"
    },
    {
      "anonymous": false,
      "inputs": [
        {
          "indexed": true,
          "internalType": "address",
          "name": "operator",
          "type": "address"
        },
        {
          "indexed": true,
          "internalType": "address",
          "name": "from",
          "type": "address"
        },
        {
          "indexed": false,
          "internalType": "uint256",
          "name": "amount",
          "type": "uint256"
        },
        {
          "indexed": false,
          "internalType": "bytes",
          "name": "data",
          "type": "bytes"
        },
        {
          "indexed": false,
          "internalType": "bytes",
          "name": "operatorData",
          "type": "bytes"
        }
      ],
      "name": "Burned",
      "type": "event"
    },
    {
      "anonymous": false,
      "inputs": [
        {
          "indexed": true,
          "internalType": "address",
          "name": "operator",
          "type": "address"
        },
        {
          "indexed": true,
          "internalType": "address",
          "name": "to",
          "type": "address"
        },
        {
          "indexed": false,
          "internalType": "uint256",
          "name": "amount",
          "type": "uint256"
        },
        {
          "indexed": false,
          "internalType": "bytes",
          "name": "data",
          "type": "bytes"
        },
        {
          "indexed": false,
          "internalType": "bytes",
          "name": "operatorData",
          "type": "bytes"
        }
      ],
      "name": "Minted",
      "type": "event"
    },
    {
      "anonymous": false,
      "inputs": [
        {
          "indexed": true,
          "internalType": "address",
          "name": "operator",
          "type": "address"
        },
        {
          "indexed": true,
          "internalType": "address",
          "name": "tokenHolder",
          "type": "address"
        }
      ],
      "name": "RevokedOperator",
      "type": "event"
    },
    {
      "anonymous": false,
      "inputs": [
        {
          "indexed": true,
          "internalType": "address",
          "name": "operator",
          "type": "address"
        },
        {
          "indexed": true,
          "internalType": "address",
          "name": "from",
          "type": "address"
        },
        {
          "indexed": true,
          "internalType": "address",
          "name": "to",
          "type": "address"
        },
        {
          "indexed": false,
          "internalType": "uint256",
          "name": "amount",
          "type": "uint256"
        },
        {
          "indexed": false,
          "internalType": "bytes",
          "name": "data",
          "type": "bytes"
        },
        {
          "indexed": false,
          "internalType": "bytes",
          "name": "operatorData",
          "type": "bytes"
        }
      ],
      "name": "Sent",
      "type": "event"
    },
    {
      "anonymous": false,
      "inputs": [
        {
          "indexed": true,
          "internalType": "address",
          "name": "from",
          "type": "address"
        },
        {
          "indexed": true,
          "internalType": "address",
          "name": "to",
          "type": "address"
        },
        {
          "indexed": false,
          "internalType": "uint256",
          "name": "value",
          "type": "uint256"
        }
      ],
      "name": "Transfer",
      "type": "event"
    },
    {
      "inputs": [
        {
          "internalType": "address",
          "name": "holder",
          "type": "address"
        },
        {
          "internalType": "address",
          "name": "spender",
          "type": "address"
        }
      ],
      "name": "allowance",
      "outputs": [
        {
          "internalType": "uint256",
          "name": "",
          "type": "uint256"
        }
      ],
      "stateMutability": "view",
      "type": "function",
      "constant": true
    },
    {
      "inputs": [
        {
          "internalType": "address",
          "name": "spender",
          "type": "address"
        },
        {
          "internalType": "uint256",
          "name": "value",
          "type": "uint256"
        }
      ],
      "name": "approve",
      "outputs": [
        {
          "internalType": "bool",
          "name": "",
          "type": "bool"
        }
      ],
      "stateMutability": "nonpayable",
      "type": "function"
    },
    {
      "inputs": [
        {
          "internalType": "address",
          "name": "operator",
          "type": "address"
        }
      ],
      "name": "authorizeOperator",
      "outputs": [],
      "stateMutability": "nonpayable",
      "type": "function"
    },
    {
      "inputs": [
        {
          "internalType": "address",
          "name": "tokenHolder",
          "type": "address"
        }
      ],
      "name": "balanceOf",
      "outputs": [
        {
          "internalType": "uint256",
          "name": "",
          "type": "uint256"
        }
      ],
      "stateMutability": "view",
      "type": "function",
      "constant": true
    },
    {
      "inputs": [],
      "name": "decimals",
      "outputs": [
        {
          "internalType": "uint8",
          "name": "",
          "type": "uint8"
        }
      ],
      "stateMutability": "pure",
      "type": "function",
      "constant": true
    },
    {
      "inputs": [],
      "name": "defaultOperators",
      "outputs": [
        {
          "internalType": "address[]",
          "name": "",
          "type": "address[]"
        }
      ],
      "stateMutability": "view",
      "type": "function",
      "constant": true
    },
    {
      "inputs": [],
      "name": "granularity",
      "outputs": [
        {
          "internalType": "uint256",
          "name": "",
          "type": "uint256"
        }
      ],
      "stateMutability": "view",
      "type": "function",
      "constant": true
    },
    {
      "inputs": [
        {
          "internalType": "address",
          "name": "",
          "type": "address"
        }
      ],
      "name": "hasStaked",
      "outputs": [
        {
          "internalType": "bool",
          "name": "",
          "type": "bool"
        }
      ],
      "stateMutability": "view",
      "type": "function",
      "constant": true
    },
    {
      "inputs": [
        {
          "internalType": "address",
          "name": "operator",
          "type": "address"
        },
        {
          "internalType": "address",
          "name": "tokenHolder",
          "type": "address"
        }
      ],
      "name": "isOperatorFor",
      "outputs": [
        {
          "internalType": "bool",
          "name": "",
          "type": "bool"
        }
      ],
      "stateMutability": "view",
      "type": "function",
      "constant": true
    },
    {
      "inputs": [
        {
          "internalType": "address",
          "name": "",
          "type": "address"
        }
      ],
      "name": "isStaking",
      "outputs": [
        {
          "internalType": "bool",
          "name": "",
          "type": "bool"
        }
      ],
      "stateMutability": "view",
      "type": "function",
      "constant": true
    },
    {
      "inputs": [],
      "name": "name",
      "outputs": [
        {
          "internalType": "string",
          "name": "",
          "type": "string"
        }
      ],
      "stateMutability": "view",
      "type": "function",
      "constant": true
    },
    {
      "inputs": [
        {
          "internalType": "address",
          "name": "account",
          "type": "address"
        },
        {
          "internalType": "uint256",
          "name": "amount",
          "type": "uint256"
        },
        {
          "internalType": "bytes",
          "name": "data",
          "type": "bytes"
        },
        {
          "internalType": "bytes",
          "name": "operatorData",
          "type": "bytes"
        }
      ],
      "name": "operatorBurn",
      "outputs": [],
      "stateMutability": "nonpayable",
      "type": "function"
    },
    {
      "inputs": [
        {
          "internalType": "address",
          "name": "sender",
          "type": "address"
        },
        {
          "internalType": "address",
          "name": "recipient",
          "type": "address"
        },
        {
          "internalType": "uint256",
          "name": "amount",
          "type": "uint256"
        },
        {
          "internalType": "bytes",
          "name": "data",
          "type": "bytes"
        },
        {
          "internalType": "bytes",
          "name": "operatorData",
          "type": "bytes"
        }
      ],
      "name": "operatorSend",
      "outputs": [],
      "stateMutability": "nonpayable",
      "type": "function"
    },
    {
      "inputs": [
        {
          "internalType": "address",
          "name": "operator",
          "type": "address"
        }
      ],
      "name": "revokeOperator",
      "outputs": [],
      "stateMutability": "nonpayable",
      "type": "function"
    },
    {
      "inputs": [
        {
          "internalType": "address",
          "name": "recipient",
          "type": "address"
        },
        {
          "internalType": "uint256",
          "name": "amount",
          "type": "uint256"
        },
        {
          "internalType": "bytes",
          "name": "data",
          "type": "bytes"
        }
      ],
      "name": "send",
      "outputs": [],
      "stateMutability": "nonpayable",
      "type": "function"
    },
    {
      "inputs": [
        {
          "internalType": "uint256",
          "name": "",
          "type": "uint256"
        }
      ],
      "name": "stakers",
      "outputs": [
        {
          "internalType": "address",
          "name": "",
          "type": "address"
        }
      ],
      "stateMutability": "view",
      "type": "function",
      "constant": true
    },
    {
      "inputs": [
        {
          "internalType": "address",
          "name": "",
          "type": "address"
        }
      ],
      "name": "stakingBalance",
      "outputs": [
        {
          "internalType": "uint256",
          "name": "",
          "type": "uint256"
        }
      ],
      "stateMutability": "view",
      "type": "function",
      "constant": true
    },
    {
      "inputs": [],
      "name": "symbol",
      "outputs": [
        {
          "internalType": "string",
          "name": "",
          "type": "string"
        }
      ],
      "stateMutability": "view",
      "type": "function",
      "constant": true
    },
    {
      "inputs": [],
      "name": "totalSupply",
      "outputs": [
        {
          "internalType": "uint256",
          "name": "",
          "type": "uint256"
        }
      ],
      "stateMutability": "view",
      "type": "function",
      "constant": true
    },
    {
      "inputs": [
        {
          "internalType": "address",
          "name": "recipient",
          "type": "address"
        },
        {
          "internalType": "uint256",
          "name": "amount",
          "type": "uint256"
        }
      ],
      "name": "transfer",
      "outputs": [
        {
          "internalType": "bool",
          "name": "",
          "type": "bool"
        }
      ],
      "stateMutability": "nonpayable",
      "type": "function"
    },
    {
      "inputs": [
        {
          "internalType": "address",
          "name": "holder",
          "type": "address"
        },
        {
          "internalType": "address",
          "name": "recipient",
          "type": "address"
        },
        {
          "internalType": "uint256",
          "name": "amount",
          "type": "uint256"
        }
      ],
      "name": "transferFrom",
      "outputs": [
        {
          "internalType": "bool",
          "name": "",
          "type": "bool"
        }
      ],
      "stateMutability": "nonpayable",
      "type": "function"
    },
    {
      "inputs": [
        {
          "internalType": "uint256",
          "name": "_amount",
          "type": "uint256"
        }
      ],
      "name": "burn",
      "outputs": [],
      "stateMutability": "nonpayable",
      "type": "function"
    },
    {
      "inputs": [
        {
          "internalType": "uint256",
          "name": "amount",
          "type": "uint256"
        },
        {
          "internalType": "bytes",
          "name": "data",
          "type": "bytes"
        }
      ],
      "name": "burn",
      "outputs": [],
      "stateMutability": "nonpayable",
      "type": "function"
    },
    {
      "inputs": [
        {
          "internalType": "uint256",
          "name": "_amount",
          "type": "uint256"
        }
      ],
      "name": "mint",
      "outputs": [],
      "stateMutability": "nonpayable",
      "type": "function"
    },
    {
      "inputs": [
        {
          "internalType": "uint256",
          "name": "_amount",
          "type": "uint256"
        }
      ],
      "name": "stakeTokens",
      "outputs": [],
      "stateMutability": "nonpayable",
      "type": "function"
    },
    {
      "inputs": [],
      "name": "unstakeTokens",
      "outputs": [],
      "stateMutability": "nonpayable",
      "type": "function"
    },
    {
      "inputs": [
        {
          "internalType": "address",
          "name": "_operator",
          "type": "address"
        },
        {
          "internalType": "address",
          "name": "_from",
          "type": "address"
        },
        {
          "internalType": "address",
          "name": "_to",
          "type": "address"
        },
        {
          "internalType": "uint256",
          "name": "_amount",
          "type": "uint256"
        },
        {
          "internalType": "bytes",
          "name": "_userData",
          "type": "bytes"
        },
        {
          "internalType": "bytes",
          "name": "_operatorData",
          "type": "bytes"
        }
      ],
      "name": "tokensReceived",
      "outputs": [],
      "stateMutability": "nonpayable",
      "type": "function"
    }
  ],
  "bytecode": "0x60806040523480156200001157600080fd5b506040518060400160405280600b81526020017f7465737467726f756e64320000000000000000000000000000000000000000008152506040518060400160405280600381526020017f5447320000000000000000000000000000000000000000000000000000000000815250600067ffffffffffffffff811115620000c0577f4e487b7100000000000000000000000000000000000000000000000000000000600052604160045260246000fd5b604051908082528060200260200182016040528015620000ef5781602001602082028036833780820191505090505b50826002908051906020019062000108929190620007cc565b50816003908051906020019062000121929190620007cc565b5080600490805190602001906200013a9291906200085d565b5060005b8151811015620001f75760016005600084848151811062000188577f4e487b7100000000000000000000000000000000000000000000000000000000600052603260045260246000fd5b602002602001015173ffffffffffffffffffffffffffffffffffffffff1673ffffffffffffffffffffffffffffffffffffffff16815260200190815260200160002060006101000a81548160ff0219169083151502179055508080620001ee9062000cdf565b9150506200013e565b50731820a4b7618bde71dce8cdc73aab6c95905fad2473ffffffffffffffffffffffffffffffffffffffff166329965a1d307fac7fbab5f54a3ca8194167523c6753bfeb96a445279294b6125b68cce2177054306040518463ffffffff1660e01b81526004016200026b9392919062000ab8565b600060405180830381600087803b1580156200028657600080fd5b505af11580156200029b573d6000803e3d6000fd5b50505050731820a4b7618bde71dce8cdc73aab6c95905fad2473ffffffffffffffffffffffffffffffffffffffff166329965a1d307faea199e31a596269b42cdafd93407f14436db6e4cad65417994c2eb37381e05a306040518463ffffffff1660e01b8152600401620003129392919062000ab8565b600060405180830381600087803b1580156200032d57600080fd5b505af115801562000342573d6000803e3d6000fd5b5050505050505060006836518b1b2d2d680000905062000389338260405180602001604052806000815250604051806020016040528060008152506200039060201b60201c565b5062000e54565b620003a6848484846001620003ac60201b60201c565b50505050565b600073ffffffffffffffffffffffffffffffffffffffff168573ffffffffffffffffffffffffffffffffffffffff1614156200041f576040517f08c379a0000000000000000000000000000000000000000000000000000000008152600401620004169062000af5565b60405180910390fd5b600062000431620005ad60201b60201c565b9050620004488160008888620005b560201b60201c565b84600160008282546200045c919062000bce565b92505081905550846000808873ffffffffffffffffffffffffffffffffffffffff1673ffffffffffffffffffffffffffffffffffffffff1681526020019081526020016000206000828254620004b3919062000bce565b92505081905550620004d28160008888888888620005bb60201b60201c565b8573ffffffffffffffffffffffffffffffffffffffff168173ffffffffffffffffffffffffffffffffffffffff167f2fe5be0146f74c5bce36c0b80911af6c7d86ff27e89d5cfa61fc681327954e5d878787604051620005359392919062000b56565b60405180910390a38573ffffffffffffffffffffffffffffffffffffffff16600073ffffffffffffffffffffffffffffffffffffffff167fddf252ad1be2c89b69c2b068fc378daa952ba7f163c4a11628f55a4df523b3ef876040516200059d919062000b39565b60405180910390a3505050505050565b600033905090565b50505050565b6000731820a4b7618bde71dce8cdc73aab6c95905fad2473ffffffffffffffffffffffffffffffffffffffff1663aabbb8ca877fb281fc8c12954d22544db45de3159a39272895b169a852b314f9cc762e44c53b6040518363ffffffff1660e01b81526004016200062e92919062000a8b565b60206040518083038186803b1580156200064757600080fd5b505afa1580156200065c573d6000803e3d6000fd5b505050506040513d601f19601f8201168201806040525081019062000682919062000922565b9050600073ffffffffffffffffffffffffffffffffffffffff168173ffffffffffffffffffffffffffffffffffffffff161462000737578073ffffffffffffffffffffffffffffffffffffffff166223de298989898989896040518763ffffffff1660e01b8152600401620006fd9695949392919062000a10565b600060405180830381600087803b1580156200071857600080fd5b505af11580156200072d573d6000803e3d6000fd5b50505050620007af565b8115620007ae576200076a8673ffffffffffffffffffffffffffffffffffffffff16620007b960201b6200180b1760201c565b15620007ad576040517f08c379a0000000000000000000000000000000000000000000000000000000008152600401620007a49062000b17565b60405180910390fd5b5b5b5050505050505050565b600080823b905060008111915050919050565b828054620007da9062000ca9565b90600052602060002090601f016020900481019282620007fe57600085556200084a565b82601f106200081957805160ff19168380011785556200084a565b828001600101855582156200084a579182015b82811115620008495782518255916020019190600101906200082c565b5b509050620008599190620008ec565b5090565b828054828255906000526020600020908101928215620008d9579160200282015b82811115620008d85782518260006101000a81548173ffffffffffffffffffffffffffffffffffffffff021916908373ffffffffffffffffffffffffffffffffffffffff160217905550916020019190600101906200087e565b5b509050620008e89190620008ec565b5090565b5b8082111562000907576000816000905550600101620008ed565b5090565b6000815190506200091c8162000e3a565b92915050565b6000602082840312156200093557600080fd5b600062000945848285016200090b565b91505092915050565b620009598162000c2b565b82525050565b6200096a8162000c3f565b82525050565b60006200097d8262000ba1565b62000989818562000bac565b93506200099b81856020860162000c73565b620009a68162000d8b565b840191505092915050565b6000620009c060208362000bbd565b9150620009cd8262000d9c565b602082019050919050565b6000620009e7604d8362000bbd565b9150620009f48262000dc5565b606082019050919050565b62000a0a8162000c69565b82525050565b600060c08201905062000a2760008301896200094e565b62000a3660208301886200094e565b62000a4560408301876200094e565b62000a546060830186620009ff565b818103608083015262000a68818562000970565b905081810360a083015262000a7e818462000970565b9050979650505050505050565b600060408201905062000aa260008301856200094e565b62000ab160208301846200095f565b9392505050565b600060608201905062000acf60008301866200094e565b62000ade60208301856200095f565b62000aed60408301846200094e565b949350505050565b6000602082019050818103600083015262000b1081620009b1565b9050919050565b6000602082019050818103600083015262000b3281620009d8565b9050919050565b600060208201905062000b506000830184620009ff565b92915050565b600060608201905062000b6d6000830186620009ff565b818103602083015262000b81818562000970565b9050818103604083015262000b97818462000970565b9050949350505050565b600081519050919050565b600082825260208201905092915050565b600082825260208201905092915050565b600062000bdb8262000c69565b915062000be88362000c69565b9250827fffffffffffffffffffffffffffffffffffffffffffffffffffffffffffffffff0382111562000c205762000c1f62000d2d565b5b828201905092915050565b600062000c388262000c49565b9050919050565b6000819050919050565b600073ffffffffffffffffffffffffffffffffffffffff82169050919050565b6000819050919050565b60005b8381101562000c9357808201518184015260208101905062000c76565b8381111562000ca3576000848401525b50505050565b6000600282049050600182168062000cc257607f821691505b6020821081141562000cd95762000cd862000d5c565b5b50919050565b600062000cec8262000c69565b91507fffffffffffffffffffffffffffffffffffffffffffffffffffffffffffffffff82141562000d225762000d2162000d2d565b5b600182019050919050565b7f4e487b7100000000000000000000000000000000000000000000000000000000600052601160045260246000fd5b7f4e487b7100000000000000000000000000000000000000000000000000000000600052602260045260246000fd5b6000601f19601f8301169050919050565b7f4552433737373a206d696e7420746f20746865207a65726f2061646472657373600082015250565b7f4552433737373a20746f6b656e20726563697069656e7420636f6e747261637460008201527f20686173206e6f20696d706c656d656e74657220666f7220455243373737546f60208201527f6b656e73526563697069656e7400000000000000000000000000000000000000604082015250565b62000e458162000c2b565b811462000e5157600080fd5b50565b6139808062000e646000396000f3fe608060405234801561001057600080fd5b50600436106101a85760003560e01c80637547c7a3116100f9578063c93c8f3411610097578063fad8b32a11610071578063fad8b32a146104df578063fc673c4f146104fb578063fd5e6dd114610517578063fe9d930314610547576101a8565b8063c93c8f341461044f578063d95b63711461047f578063dd62ed3e146104af576101a8565b80639bd9bbc6116100d35780639bd9bbc6146103dd578063a0712d68146103f9578063a5ce413b14610415578063a9059cbb1461041f576101a8565b80637547c7a314610387578063959b8c3f146103a357806395d89b41146103bf576101a8565b8063313ce56711610166578063556f0dc711610140578063556f0dc7146102ed57806362ad1b831461030b5780636f49712b1461032757806370a0823114610357576101a8565b8063313ce5671461028357806342966c68146102a157806345bc78ab146102bd576101a8565b806223de29146101ad57806306e48538146101c957806306fdde03146101e7578063095ea7b31461020557806318160ddd1461023557806323b872dd14610253575b600080fd5b6101c760048036038101906101c2919061264c565b610563565b005b6101d161056d565b6040516101de9190612e5f565b60405180910390f35b6101ef6105fb565b6040516101fc9190612e9c565b60405180910390f35b61021f600480360381019061021a9190612805565b61068d565b60405161022c9190612e81565b60405180910390f35b61023d6106b0565b60405161024a91906130de565b60405180910390f35b61026d6004803603810190610268919061270f565b6106ba565b60405161027a9190612e81565b60405180910390f35b61028b610914565b604051610298919061313e565b60405180910390f35b6102bb60048036038101906102b6919061293b565b61091d565b005b6102d760048036038101906102d291906125be565b61094a565b6040516102e491906130de565b60405180910390f35b6102f5610962565b60405161030291906130de565b60405180910390f35b6103256004803603810190610320919061275e565b61096b565b005b610341600480360381019061033c91906125be565b6109d1565b60405161034e9190612e81565b60405180910390f35b610371600480360381019061036c91906125be565b6109f1565b60405161037e91906130de565b60405180910390f35b6103a1600480360381019061039c919061293b565b610a39565b005b6103bd60048036038101906103b891906125be565b610c9f565b005b6103c7610f00565b6040516103d49190612e9c565b60405180910390f35b6103f760048036038101906103f29190612841565b610f92565b005b610413600480360381019061040e919061293b565b610fbc565b005b61041d610fe9565b005b61043960048036038101906104349190612805565b61117d565b6040516104469190612e81565b60405180910390f35b610469600480360381019061046491906125be565b61128b565b6040516104769190612e81565b60405180910390f35b61049960048036038101906104949190612610565b6112ab565b6040516104a69190612e81565b60405180910390f35b6104c960048036038101906104c49190612610565b61145c565b6040516104d691906130de565b60405180910390f35b6104f960048036038101906104f491906125be565b6114e3565b005b610515600480360381019061051091906128a8565b611744565b005b610531600480360381019061052c919061293b565b6117a6565b60405161053e9190612d70565b60405180910390f35b610561600480360381019061055c9190612964565b6117e5565b005b5050505050505050565b606060048054806020026020016040519081016040528092919081815260200182805480156105f157602002820191906000526020600020905b8160009054906101000a900473ffffffffffffffffffffffffffffffffffffffff1673ffffffffffffffffffffffffffffffffffffffff16815260200190600101908083116105a7575b5050505050905090565b60606002805461060a9061334b565b80601f01602080910402602001604051908101604052809291908181526020018280546106369061334b565b80156106835780601f1061065857610100808354040283529160200191610683565b820191906000526020600020905b81548152906001019060200180831161066657829003601f168201915b5050505050905090565b60008061069861181e565b90506106a5818585611826565b600191505092915050565b6000600154905090565b60008073ffffffffffffffffffffffffffffffffffffffff168373ffffffffffffffffffffffffffffffffffffffff16141561072b576040517f08c379a000000000000000000000000000000000000000000000000000000000815260040161072290612fde565b60405180910390fd5b600073ffffffffffffffffffffffffffffffffffffffff168473ffffffffffffffffffffffffffffffffffffffff16141561079b576040517f08c379a00000000000000000000000000000000000000000000000000000000081526004016107929061305e565b60405180910390fd5b60006107a561181e565b90506107d38186868660405180602001604052806000815250604051806020016040528060008152506119f1565b6107ff818686866040518060200160405280600081525060405180602001604052806000815250611b67565b6000600860008773ffffffffffffffffffffffffffffffffffffffff1673ffffffffffffffffffffffffffffffffffffffff16815260200190815260200160002060008373ffffffffffffffffffffffffffffffffffffffff1673ffffffffffffffffffffffffffffffffffffffff168152602001908152602001600020549050838110156108c3576040517f08c379a00000000000000000000000000000000000000000000000000000000081526004016108ba9061303e565b60405180910390fd5b6108d9868386846108d49190613276565b611826565b6109078287878760405180602001604052806000815250604051806020016040528060008152506000611d81565b6001925050509392505050565b60006012905090565b61094733826040518060200160405280600081525060405180602001604052806000815250611f62565b50565b600a6020528060005260406000206000915090505481565b60006001905090565b61097c61097661181e565b866112ab565b6109bb576040517f08c379a00000000000000000000000000000000000000000000000000000000081526004016109b290612ffe565b60405180910390fd5b6109ca858585858560016121b5565b5050505050565b600c6020528060005260406000206000915054906101000a900460ff1681565b60008060008373ffffffffffffffffffffffffffffffffffffffff1673ffffffffffffffffffffffffffffffffffffffff168152602001908152602001600020549050919050565b60008111610a7c576040517f08c379a0000000000000000000000000000000000000000000000000000000008152600401610a739061301e565b60405180910390fd5b610aa9333083604051806020016040528060008152506040518060200160405280600081525060006121b5565b80600a60003373ffffffffffffffffffffffffffffffffffffffff1673ffffffffffffffffffffffffffffffffffffffff16815260200190815260200160002054610af49190613220565b600a60003373ffffffffffffffffffffffffffffffffffffffff1673ffffffffffffffffffffffffffffffffffffffff16815260200190815260200160002081905550600b60003373ffffffffffffffffffffffffffffffffffffffff1673ffffffffffffffffffffffffffffffffffffffff16815260200190815260200160002060009054906101000a900460ff16610bec576009339080600181540180825580915050600190039060005260206000200160009091909190916101000a81548173ffffffffffffffffffffffffffffffffffffffff021916908373ffffffffffffffffffffffffffffffffffffffff1602179055505b6001600c60003373ffffffffffffffffffffffffffffffffffffffff1673ffffffffffffffffffffffffffffffffffffffff16815260200190815260200160002060006101000a81548160ff0219169083151502179055506001600b60003373ffffffffffffffffffffffffffffffffffffffff1673ffffffffffffffffffffffffffffffffffffffff16815260200190815260200160002060006101000a81548160ff02191690831515021790555050565b8073ffffffffffffffffffffffffffffffffffffffff16610cbe61181e565b73ffffffffffffffffffffffffffffffffffffffff161415610d15576040517f08c379a0000000000000000000000000000000000000000000000000000000008152600401610d0c90612f3e565b60405180910390fd5b600560008273ffffffffffffffffffffffffffffffffffffffff1673ffffffffffffffffffffffffffffffffffffffff16815260200190815260200160002060009054906101000a900460ff1615610dff5760076000610d7361181e565b73ffffffffffffffffffffffffffffffffffffffff1673ffffffffffffffffffffffffffffffffffffffff16815260200190815260200160002060008273ffffffffffffffffffffffffffffffffffffffff1673ffffffffffffffffffffffffffffffffffffffff16815260200190815260200160002060006101000a81549060ff0219169055610e9c565b600160066000610e0d61181e565b73ffffffffffffffffffffffffffffffffffffffff1673ffffffffffffffffffffffffffffffffffffffff16815260200190815260200160002060008373ffffffffffffffffffffffffffffffffffffffff1673ffffffffffffffffffffffffffffffffffffffff16815260200190815260200160002060006101000a81548160ff0219169083151502179055505b610ea461181e565b73ffffffffffffffffffffffffffffffffffffffff168173ffffffffffffffffffffffffffffffffffffffff167ff4caeb2d6ca8932a215a353d0703c326ec2d81fc68170f320eb2ab49e9df61f960405160405180910390a350565b606060038054610f0f9061334b565b80601f0160208091040260200160405190810160405280929190818152602001828054610f3b9061334b565b8015610f885780601f10610f5d57610100808354040283529160200191610f88565b820191906000526020600020905b815481529060010190602001808311610f6b57829003601f168201915b5050505050905090565b610fb7610f9d61181e565b8484846040518060200160405280600081525060016121b5565b505050565b610fe6338260405180602001604052806000815250604051806020016040528060008152506122d5565b50565b6000600a60003373ffffffffffffffffffffffffffffffffffffffff1673ffffffffffffffffffffffffffffffffffffffff16815260200190815260200160002054905060008111611070576040517f08c379a000000000000000000000000000000000000000000000000000000000815260040161106790612f5e565b60405180910390fd5b3073ffffffffffffffffffffffffffffffffffffffff16639bd9bbc633836040518363ffffffff1660e01b81526004016110ab929190612e23565b600060405180830381600087803b1580156110c557600080fd5b505af11580156110d9573d6000803e3d6000fd5b505050506000600a60003373ffffffffffffffffffffffffffffffffffffffff1673ffffffffffffffffffffffffffffffffffffffff168152602001908152602001600020819055506000600c60003373ffffffffffffffffffffffffffffffffffffffff1673ffffffffffffffffffffffffffffffffffffffff16815260200190815260200160002060006101000a81548160ff02191690831515021790555050565b60008073ffffffffffffffffffffffffffffffffffffffff168373ffffffffffffffffffffffffffffffffffffffff1614156111ee576040517f08c379a00000000000000000000000000000000000000000000000000000000081526004016111e590612fde565b60405180910390fd5b60006111f861181e565b90506112268182868660405180602001604052806000815250604051806020016040528060008152506119f1565b611252818286866040518060200160405280600081525060405180602001604052806000815250611b67565b6112808182868660405180602001604052806000815250604051806020016040528060008152506000611d81565b600191505092915050565b600b6020528060005260406000206000915054906101000a900460ff1681565b60008173ffffffffffffffffffffffffffffffffffffffff168373ffffffffffffffffffffffffffffffffffffffff1614806113c35750600560008473ffffffffffffffffffffffffffffffffffffffff1673ffffffffffffffffffffffffffffffffffffffff16815260200190815260200160002060009054906101000a900460ff1680156113c25750600760008373ffffffffffffffffffffffffffffffffffffffff1673ffffffffffffffffffffffffffffffffffffffff16815260200190815260200160002060008473ffffffffffffffffffffffffffffffffffffffff1673ffffffffffffffffffffffffffffffffffffffff16815260200190815260200160002060009054906101000a900460ff16155b5b806114545750600660008373ffffffffffffffffffffffffffffffffffffffff1673ffffffffffffffffffffffffffffffffffffffff16815260200190815260200160002060008473ffffffffffffffffffffffffffffffffffffffff1673ffffffffffffffffffffffffffffffffffffffff16815260200190815260200160002060009054906101000a900460ff165b905092915050565b6000600860008473ffffffffffffffffffffffffffffffffffffffff1673ffffffffffffffffffffffffffffffffffffffff16815260200190815260200160002060008373ffffffffffffffffffffffffffffffffffffffff1673ffffffffffffffffffffffffffffffffffffffff16815260200190815260200160002054905092915050565b6114eb61181e565b73ffffffffffffffffffffffffffffffffffffffff168173ffffffffffffffffffffffffffffffffffffffff161415611559576040517f08c379a000000000000000000000000000000000000000000000000000000000815260040161155090612f7e565b60405180910390fd5b600560008273ffffffffffffffffffffffffffffffffffffffff1673ffffffffffffffffffffffffffffffffffffffff16815260200190815260200160002060009054906101000a900460ff161561164c576001600760006115b961181e565b73ffffffffffffffffffffffffffffffffffffffff1673ffffffffffffffffffffffffffffffffffffffff16815260200190815260200160002060008373ffffffffffffffffffffffffffffffffffffffff1673ffffffffffffffffffffffffffffffffffffffff16815260200190815260200160002060006101000a81548160ff0219169083151502179055506116e0565b6006600061165861181e565b73ffffffffffffffffffffffffffffffffffffffff1673ffffffffffffffffffffffffffffffffffffffff16815260200190815260200160002060008273ffffffffffffffffffffffffffffffffffffffff1673ffffffffffffffffffffffffffffffffffffffff16815260200190815260200160002060006101000a81549060ff02191690555b6116e861181e565b73ffffffffffffffffffffffffffffffffffffffff168173ffffffffffffffffffffffffffffffffffffffff167f50546e66e5f44d728365dc3908c63bc5cfeeab470722c1677e3073a6ac294aa160405160405180910390a350565b61175561174f61181e565b856112ab565b611794576040517f08c379a000000000000000000000000000000000000000000000000000000000815260040161178b90612ffe565b60405180910390fd5b6117a084848484611f62565b50505050565b600981815481106117b657600080fd5b906000526020600020016000915054906101000a900473ffffffffffffffffffffffffffffffffffffffff1681565b6118076117f061181e565b838360405180602001604052806000815250611f62565b5050565b600080823b905060008111915050919050565b600033905090565b600073ffffffffffffffffffffffffffffffffffffffff168373ffffffffffffffffffffffffffffffffffffffff161415611896576040517f08c379a000000000000000000000000000000000000000000000000000000000815260040161188d90612ebe565b60405180910390fd5b600073ffffffffffffffffffffffffffffffffffffffff168273ffffffffffffffffffffffffffffffffffffffff161415611906576040517f08c379a00000000000000000000000000000000000000000000000000000000081526004016118fd906130be565b60405180910390fd5b80600860008573ffffffffffffffffffffffffffffffffffffffff1673ffffffffffffffffffffffffffffffffffffffff16815260200190815260200160002060008473ffffffffffffffffffffffffffffffffffffffff1673ffffffffffffffffffffffffffffffffffffffff168152602001908152602001600020819055508173ffffffffffffffffffffffffffffffffffffffff168373ffffffffffffffffffffffffffffffffffffffff167f8c5be1e5ebec7d5bd14f71427d1e84f3dd0314c0f7b2291e5b200ac8c7c3b925836040516119e491906130de565b60405180910390a3505050565b6000731820a4b7618bde71dce8cdc73aab6c95905fad2473ffffffffffffffffffffffffffffffffffffffff1663aabbb8ca877f29ddb589b1fb5fc7cf394961c1adf5f8c6454761adf795e67fe149f658abe8956040518363ffffffff1660e01b8152600401611a62929190612dfa565b60206040518083038186803b158015611a7a57600080fd5b505afa158015611a8e573d6000803e3d6000fd5b505050506040513d601f19601f82011682018060405250810190611ab291906125e7565b9050600073ffffffffffffffffffffffffffffffffffffffff168173ffffffffffffffffffffffffffffffffffffffff1614611b5e578073ffffffffffffffffffffffffffffffffffffffff166375ab97828888888888886040518763ffffffff1660e01b8152600401611b2b96959493929190612d8b565b600060405180830381600087803b158015611b4557600080fd5b505af1158015611b59573d6000803e3d6000fd5b505050505b50505050505050565b611b73868686866122e9565b60008060008773ffffffffffffffffffffffffffffffffffffffff1673ffffffffffffffffffffffffffffffffffffffff16815260200190815260200160002054905083811015611bf9576040517f08c379a0000000000000000000000000000000000000000000000000000000008152600401611bf090612efe565b60405180910390fd5b8381036000808873ffffffffffffffffffffffffffffffffffffffff1673ffffffffffffffffffffffffffffffffffffffff16815260200190815260200160002081905550836000808773ffffffffffffffffffffffffffffffffffffffff1673ffffffffffffffffffffffffffffffffffffffff1681526020019081526020016000206000828254611c8c9190613220565b925050819055508473ffffffffffffffffffffffffffffffffffffffff168673ffffffffffffffffffffffffffffffffffffffff168873ffffffffffffffffffffffffffffffffffffffff167f06b541ddaa720db2b10a4d0cdac39b8d360425fc073085fac19bc82614677987878787604051611d0b939291906130f9565b60405180910390a48473ffffffffffffffffffffffffffffffffffffffff168673ffffffffffffffffffffffffffffffffffffffff167fddf252ad1be2c89b69c2b068fc378daa952ba7f163c4a11628f55a4df523b3ef86604051611d7091906130de565b60405180910390a350505050505050565b6000731820a4b7618bde71dce8cdc73aab6c95905fad2473ffffffffffffffffffffffffffffffffffffffff1663aabbb8ca877fb281fc8c12954d22544db45de3159a39272895b169a852b314f9cc762e44c53b6040518363ffffffff1660e01b8152600401611df2929190612dfa565b60206040518083038186803b158015611e0a57600080fd5b505afa158015611e1e573d6000803e3d6000fd5b505050506040513d601f19601f82011682018060405250810190611e4291906125e7565b9050600073ffffffffffffffffffffffffffffffffffffffff168173ffffffffffffffffffffffffffffffffffffffff1614611ef1578073ffffffffffffffffffffffffffffffffffffffff166223de298989898989896040518763ffffffff1660e01b8152600401611eba96959493929190612d8b565b600060405180830381600087803b158015611ed457600080fd5b505af1158015611ee8573d6000803e3d6000fd5b50505050611f58565b8115611f5757611f168673ffffffffffffffffffffffffffffffffffffffff1661180b565b15611f56576040517f08c379a0000000000000000000000000000000000000000000000000000000008152600401611f4d90612fbe565b60405180910390fd5b5b5b5050505050505050565b600073ffffffffffffffffffffffffffffffffffffffff168473ffffffffffffffffffffffffffffffffffffffff161415611fd2576040517f08c379a0000000000000000000000000000000000000000000000000000000008152600401611fc990612f1e565b60405180910390fd5b6000611fdc61181e565b9050611fed818660008787876119f1565b611ffa81866000876122e9565b60008060008773ffffffffffffffffffffffffffffffffffffffff1673ffffffffffffffffffffffffffffffffffffffff16815260200190815260200160002054905084811015612080576040517f08c379a00000000000000000000000000000000000000000000000000000000081526004016120779061307e565b60405180910390fd5b8481036000808873ffffffffffffffffffffffffffffffffffffffff1673ffffffffffffffffffffffffffffffffffffffff1681526020019081526020016000208190555084600160008282546120d79190613276565b925050819055508573ffffffffffffffffffffffffffffffffffffffff168273ffffffffffffffffffffffffffffffffffffffff167fa78a9be3a7b862d26933ad85fb11d80ef66b8f972d7cbba06621d583943a409887878760405161213f939291906130f9565b60405180910390a3600073ffffffffffffffffffffffffffffffffffffffff168673ffffffffffffffffffffffffffffffffffffffff167fddf252ad1be2c89b69c2b068fc378daa952ba7f163c4a11628f55a4df523b3ef876040516121a591906130de565b60405180910390a3505050505050565b600073ffffffffffffffffffffffffffffffffffffffff168673ffffffffffffffffffffffffffffffffffffffff161415612225576040517f08c379a000000000000000000000000000000000000000000000000000000000815260040161221c90612ede565b60405180910390fd5b600073ffffffffffffffffffffffffffffffffffffffff168573ffffffffffffffffffffffffffffffffffffffff161415612295576040517f08c379a000000000000000000000000000000000000000000000000000000000815260040161228c9061309e565b60405180910390fd5b600061229f61181e565b90506122af8188888888886119f1565b6122bd818888888888611b67565b6122cc81888888888888611d81565b50505050505050565b6122e38484848460016122ef565b50505050565b50505050565b600073ffffffffffffffffffffffffffffffffffffffff168573ffffffffffffffffffffffffffffffffffffffff16141561235f576040517f08c379a000000000000000000000000000000000000000000000000000000000815260040161235690612f9e565b60405180910390fd5b600061236961181e565b905061237881600088886122e9565b846001600082825461238a9190613220565b92505081905550846000808873ffffffffffffffffffffffffffffffffffffffff1673ffffffffffffffffffffffffffffffffffffffff16815260200190815260200160002060008282546123df9190613220565b925050819055506123f68160008888888888611d81565b8573ffffffffffffffffffffffffffffffffffffffff168173ffffffffffffffffffffffffffffffffffffffff167f2fe5be0146f74c5bce36c0b80911af6c7d86ff27e89d5cfa61fc681327954e5d878787604051612457939291906130f9565b60405180910390a38573ffffffffffffffffffffffffffffffffffffffff16600073ffffffffffffffffffffffffffffffffffffffff167fddf252ad1be2c89b69c2b068fc378daa952ba7f163c4a11628f55a4df523b3ef876040516124bd91906130de565b60405180910390a3505050505050565b60006124e06124db8461317e565b613159565b9050828152602081018484840111156124f857600080fd5b612503848285613309565b509392505050565b60008135905061251a8161391c565b92915050565b60008151905061252f8161391c565b92915050565b60008083601f84011261254757600080fd5b8235905067ffffffffffffffff81111561256057600080fd5b60208301915083600182028301111561257857600080fd5b9250929050565b600082601f83011261259057600080fd5b81356125a08482602086016124cd565b91505092915050565b6000813590506125b881613933565b92915050565b6000602082840312156125d057600080fd5b60006125de8482850161250b565b91505092915050565b6000602082840312156125f957600080fd5b600061260784828501612520565b91505092915050565b6000806040838503121561262357600080fd5b60006126318582860161250b565b92505060206126428582860161250b565b9150509250929050565b60008060008060008060008060c0898b03121561266857600080fd5b60006126768b828c0161250b565b98505060206126878b828c0161250b565b97505060406126988b828c0161250b565b96505060606126a98b828c016125a9565b955050608089013567ffffffffffffffff8111156126c657600080fd5b6126d28b828c01612535565b945094505060a089013567ffffffffffffffff8111156126f157600080fd5b6126fd8b828c01612535565b92509250509295985092959890939650565b60008060006060848603121561272457600080fd5b60006127328682870161250b565b93505060206127438682870161250b565b9250506040612754868287016125a9565b9150509250925092565b600080600080600060a0868803121561277657600080fd5b60006127848882890161250b565b95505060206127958882890161250b565b94505060406127a6888289016125a9565b935050606086013567ffffffffffffffff8111156127c357600080fd5b6127cf8882890161257f565b925050608086013567ffffffffffffffff8111156127ec57600080fd5b6127f88882890161257f565b9150509295509295909350565b6000806040838503121561281857600080fd5b60006128268582860161250b565b9250506020612837858286016125a9565b9150509250929050565b60008060006060848603121561285657600080fd5b60006128648682870161250b565b9350506020612875868287016125a9565b925050604084013567ffffffffffffffff81111561289257600080fd5b61289e8682870161257f565b9150509250925092565b600080600080608085870312156128be57600080fd5b60006128cc8782880161250b565b94505060206128dd878288016125a9565b935050604085013567ffffffffffffffff8111156128fa57600080fd5b6129068782880161257f565b925050606085013567ffffffffffffffff81111561292357600080fd5b61292f8782880161257f565b91505092959194509250565b60006020828403121561294d57600080fd5b600061295b848285016125a9565b91505092915050565b6000806040838503121561297757600080fd5b6000612985858286016125a9565b925050602083013567ffffffffffffffff8111156129a257600080fd5b6129ae8582860161257f565b9150509250929050565b60006129c483836129d0565b60208301905092915050565b6129d9816132aa565b82525050565b6129e8816132aa565b82525050565b60006129f9826131bf565b612a0381856131ed565b9350612a0e836131af565b8060005b83811015612a3f578151612a2688826129b8565b9750612a31836131e0565b925050600181019050612a12565b5085935050505092915050565b612a55816132bc565b82525050565b612a64816132c8565b82525050565b6000612a75826131ca565b612a7f81856131fe565b9350612a8f818560208601613318565b612a988161343b565b840191505092915050565b6000612aae826131d5565b612ab8818561320f565b9350612ac8818560208601613318565b612ad18161343b565b840191505092915050565b6000612ae960258361320f565b9150612af48261344c565b604082019050919050565b6000612b0c60228361320f565b9150612b178261349b565b604082019050919050565b6000612b2f60278361320f565b9150612b3a826134ea565b604082019050919050565b6000612b5260228361320f565b9150612b5d82613539565b604082019050919050565b6000612b7560248361320f565b9150612b8082613588565b604082019050919050565b6000612b98601b8361320f565b9150612ba3826135d7565b602082019050919050565b6000612bbb60218361320f565b9150612bc682613600565b604082019050919050565b6000612bde60208361320f565b9150612be98261364f565b602082019050919050565b6000612c01604d8361320f565b9150612c0c82613678565b606082019050919050565b6000612c2460248361320f565b9150612c2f826136ed565b604082019050919050565b6000612c476000836131fe565b9150612c528261373c565b600082019050919050565b6000612c6a602c8361320f565b9150612c758261373f565b604082019050919050565b6000612c8d60128361320f565b9150612c988261378e565b602082019050919050565b6000612cb060298361320f565b9150612cbb826137b7565b604082019050919050565b6000612cd360268361320f565b9150612cde82613806565b604082019050919050565b6000612cf660238361320f565b9150612d0182613855565b604082019050919050565b6000612d1960208361320f565b9150612d24826138a4565b602082019050919050565b6000612d3c60238361320f565b9150612d47826138cd565b604082019050919050565b612d5b816132f2565b82525050565b612d6a816132fc565b82525050565b6000602082019050612d8560008301846129df565b92915050565b600060c082019050612da060008301896129df565b612dad60208301886129df565b612dba60408301876129df565b612dc76060830186612d52565b8181036080830152612dd98185612a6a565b905081810360a0830152612ded8184612a6a565b9050979650505050505050565b6000604082019050612e0f60008301856129df565b612e1c6020830184612a5b565b9392505050565b6000606082019050612e3860008301856129df565b612e456020830184612d52565b8181036040830152612e5681612c3a565b90509392505050565b60006020820190508181036000830152612e7981846129ee565b905092915050565b6000602082019050612e966000830184612a4c565b92915050565b60006020820190508181036000830152612eb68184612aa3565b905092915050565b60006020820190508181036000830152612ed781612adc565b9050919050565b60006020820190508181036000830152612ef781612aff565b9050919050565b60006020820190508181036000830152612f1781612b22565b9050919050565b60006020820190508181036000830152612f3781612b45565b9050919050565b60006020820190508181036000830152612f5781612b68565b9050919050565b60006020820190508181036000830152612f7781612b8b565b9050919050565b60006020820190508181036000830152612f9781612bae565b9050919050565b60006020820190508181036000830152612fb781612bd1565b9050919050565b60006020820190508181036000830152612fd781612bf4565b9050919050565b60006020820190508181036000830152612ff781612c17565b9050919050565b6000602082019050818103600083015261301781612c5d565b9050919050565b6000602082019050818103600083015261303781612c80565b9050919050565b6000602082019050818103600083015261305781612ca3565b9050919050565b6000602082019050818103600083015261307781612cc6565b9050919050565b6000602082019050818103600083015261309781612ce9565b9050919050565b600060208201905081810360008301526130b781612d0c565b9050919050565b600060208201905081810360008301526130d781612d2f565b9050919050565b60006020820190506130f36000830184612d52565b92915050565b600060608201905061310e6000830186612d52565b81810360208301526131208185612a6a565b905081810360408301526131348184612a6a565b9050949350505050565b60006020820190506131536000830184612d61565b92915050565b6000613163613174565b905061316f828261337d565b919050565b6000604051905090565b600067ffffffffffffffff8211156131995761319861340c565b5b6131a28261343b565b9050602081019050919050565b6000819050602082019050919050565b600081519050919050565b600081519050919050565b600081519050919050565b6000602082019050919050565b600082825260208201905092915050565b600082825260208201905092915050565b600082825260208201905092915050565b600061322b826132f2565b9150613236836132f2565b9250827fffffffffffffffffffffffffffffffffffffffffffffffffffffffffffffffff0382111561326b5761326a6133ae565b5b828201905092915050565b6000613281826132f2565b915061328c836132f2565b92508282101561329f5761329e6133ae565b5b828203905092915050565b60006132b5826132d2565b9050919050565b60008115159050919050565b6000819050919050565b600073ffffffffffffffffffffffffffffffffffffffff82169050919050565b6000819050919050565b600060ff82169050919050565b82818337600083830152505050565b60005b8381101561333657808201518184015260208101905061331b565b83811115613345576000848401525b50505050565b6000600282049050600182168061336357607f821691505b60208210811415613377576133766133dd565b5b50919050565b6133868261343b565b810181811067ffffffffffffffff821117156133a5576133a461340c565b5b80604052505050565b7f4e487b7100000000000000000000000000000000000000000000000000000000600052601160045260246000fd5b7f4e487b7100000000000000000000000000000000000000000000000000000000600052602260045260246000fd5b7f4e487b7100000000000000000000000000000000000000000000000000000000600052604160045260246000fd5b6000601f19601f8301169050919050565b7f4552433737373a20617070726f76652066726f6d20746865207a65726f20616460008201527f6472657373000000000000000000000000000000000000000000000000000000602082015250565b7f4552433737373a2073656e642066726f6d20746865207a65726f20616464726560008201527f7373000000000000000000000000000000000000000000000000000000000000602082015250565b7f4552433737373a207472616e7366657220616d6f756e7420657863656564732060008201527f62616c616e636500000000000000000000000000000000000000000000000000602082015250565b7f4552433737373a206275726e2066726f6d20746865207a65726f20616464726560008201527f7373000000000000000000000000000000000000000000000000000000000000602082015250565b7f4552433737373a20617574686f72697a696e672073656c66206173206f70657260008201527f61746f7200000000000000000000000000000000000000000000000000000000602082015250565b7f7374616b696e672062616c616e63652063616e6e6f7420626520300000000000600082015250565b7f4552433737373a207265766f6b696e672073656c66206173206f70657261746f60008201527f7200000000000000000000000000000000000000000000000000000000000000602082015250565b7f4552433737373a206d696e7420746f20746865207a65726f2061646472657373600082015250565b7f4552433737373a20746f6b656e20726563697069656e7420636f6e747261637460008201527f20686173206e6f20696d706c656d656e74657220666f7220455243373737546f60208201527f6b656e73526563697069656e7400000000000000000000000000000000000000604082015250565b7f4552433737373a207472616e7366657220746f20746865207a65726f2061646460008201527f7265737300000000000000000000000000000000000000000000000000000000602082015250565b50565b7f4552433737373a2063616c6c6572206973206e6f7420616e206f70657261746f60008201527f7220666f7220686f6c6465720000000000000000000000000000000000000000602082015250565b7f616d6f756e742063616e6e6f7420626520300000000000000000000000000000600082015250565b7f4552433737373a207472616e7366657220616d6f756e7420657863656564732060008201527f616c6c6f77616e63650000000000000000000000000000000000000000000000602082015250565b7f4552433737373a207472616e736665722066726f6d20746865207a65726f206160008201527f6464726573730000000000000000000000000000000000000000000000000000602082015250565b7f4552433737373a206275726e20616d6f756e7420657863656564732062616c6160008201527f6e63650000000000000000000000000000000000000000000000000000000000602082015250565b7f4552433737373a2073656e6420746f20746865207a65726f2061646472657373600082015250565b7f4552433737373a20617070726f766520746f20746865207a65726f206164647260008201527f6573730000000000000000000000000000000000000000000000000000000000602082015250565b613925816132aa565b811461393057600080fd5b50565b61393c816132f2565b811461394757600080fd5b5056fea26469706673582212201057f21b1657f1112a97d2fffc17166e6fe1b19e73ec3d9fe1f2e25de952cec864736f6c63430008040033",
  "immutableReferences": {},
  "source": "// SPDX-License-Identifier: MIT\npragma solidity 0.8.4;\n\nimport \"./dependencies/ERC777.sol\";\n\ncontract MyERC777 is ERC777, IERC777Recipient {\n\n  constructor ()\n    ERC777(\"testground2\", \"TG2\", new address[](0))\n  {\n    uint256 initialSupply = 1002 ether;\n    _mint(msg.sender, initialSupply, \"\", \"\");\n  }\n\n  function burn(uint256 _amount) public {\n    _burn(msg.sender, _amount, \"\", \"\");\n  }\n\n  function mint(uint256 _amount) public {\n    _mint(msg.sender, _amount, \"\", \"\");\n  }\n\n  // Staking Attributes\n  address[] public stakers;\n  mapping(address => uint) public stakingBalance;\n  mapping(address => bool) public hasStaked;\n  mapping(address => bool) public isStaking;\n\n  // Staking Functions\n  function stakeTokens(uint _amount) public {\n    // Require amount greater than 0\n    require(_amount > 0, \"amount cannot be 0\");\n\n    // Trasnfer Mock Dai tokens to this contract for staking\n    //send(address(this), _amount, \"\");\n    _send(msg.sender, address(this), _amount, \"\", \"\", false);\n\n    // Update staking balance\n    stakingBalance[msg.sender] = stakingBalance[msg.sender] + _amount;\n\n    // Add user to stakers array *only* if they haven't staked already\n    if(!hasStaked[msg.sender]) {\n      stakers.push(msg.sender);\n    }\n\n    // Update staking status\n    isStaking[msg.sender] = true;\n    hasStaked[msg.sender] = true;\n  }\n\n\n\n  // Unstaking Tokens (Withdraw)\n  function unstakeTokens() public {\n    // Fetch staking balance\n    uint balance = stakingBalance[msg.sender];\n\n    // Require amount greater than 0\n    require(balance > 0, \"staking balance cannot be 0\");\n\n    // Transfer Mock Dai tokens to this contract for staking\n    this.send(msg.sender, balance,\"\");\n\n    // Reset staking balance\n    stakingBalance[msg.sender] = 0;\n\n    // Update staking status\n    isStaking[msg.sender] = false;\n  }\n\n  function tokensReceived(\n        address _operator,\n        address _from,\n        address _to,\n        uint256 _amount,\n        bytes calldata _userData,\n        bytes calldata _operatorData\n    ) override public\n  {\n  }\n}",
  "sourcePath": "/home/turupawn/Projects/Blockchain/Games/MaticERC777/contracts/MyERC777.sol",
  "compiler": {
    "name": "solc",
    "version": "0.8.4+commit.c7e474f2.Emscripten.clang"
  },
  "schemaVersion": "3.3.4",
  "updatedAt": "2021-05-31T23:00:40.501Z",
  "networkType": "ethereum",
  "devdoc": {
    "kind": "dev",
    "methods": {
      "allowance(address,address)": {
        "details": "See {IERC20-allowance}. Note that operator and allowance concepts are orthogonal: operators may not have allowance, and accounts with allowance may not be operators themselves."
      },
      "approve(address,uint256)": {
        "details": "See {IERC20-approve}. Note that accounts cannot have allowance issued by their operators."
      },
      "authorizeOperator(address)": {
        "details": "See {IERC777-authorizeOperator}."
      },
      "balanceOf(address)": {
        "details": "Returns the amount of tokens owned by an account (`tokenHolder`)."
      },
      "burn(uint256,bytes)": {
        "details": "See {IERC777-burn}. Also emits a {IERC20-Transfer} event for ERC20 compatibility."
      },
      "decimals()": {
        "details": "See {ERC20-decimals}. Always returns 18, as per the [ERC777 EIP](https://eips.ethereum.org/EIPS/eip-777#backward-compatibility)."
      },
      "defaultOperators()": {
        "details": "See {IERC777-defaultOperators}."
      },
      "granularity()": {
        "details": "See {IERC777-granularity}. This implementation always returns `1`."
      },
      "isOperatorFor(address,address)": {
        "details": "See {IERC777-isOperatorFor}."
      },
      "name()": {
        "details": "See {IERC777-name}."
      },
      "operatorBurn(address,uint256,bytes,bytes)": {
        "details": "See {IERC777-operatorBurn}. Emits {Burned} and {IERC20-Transfer} events."
      },
      "operatorSend(address,address,uint256,bytes,bytes)": {
        "details": "See {IERC777-operatorSend}. Emits {Sent} and {IERC20-Transfer} events."
      },
      "revokeOperator(address)": {
        "details": "See {IERC777-revokeOperator}."
      },
      "send(address,uint256,bytes)": {
        "details": "See {IERC777-send}. Also emits a {IERC20-Transfer} event for ERC20 compatibility."
      },
      "symbol()": {
        "details": "See {IERC777-symbol}."
      },
      "totalSupply()": {
        "details": "See {IERC777-totalSupply}."
      },
      "transfer(address,uint256)": {
        "details": "See {IERC20-transfer}. Unlike `send`, `recipient` is _not_ required to implement the {IERC777Recipient} interface if it is a contract. Also emits a {Sent} event."
      },
      "transferFrom(address,address,uint256)": {
        "details": "See {IERC20-transferFrom}. Note that operator and allowance concepts are orthogonal: operators cannot call `transferFrom` (unless they have allowance), and accounts with allowance cannot call `operatorSend` (unless they are operators). Emits {Sent}, {IERC20-Transfer} and {IERC20-Approval} events."
      }
    },
    "version": 1
  },
  "userdoc": {
    "kind": "user",
    "methods": {},
    "version": 1
  }
}