{
  "contractName": "MyERC777",
  "abi": [
    {
      "inputs": [],
      "stateMutability": "nonpayable",
      "type": "constructor"
    },
    {
      "anonymous": false,
      "inputs": [
        {
          "indexed": true,
          "internalType": "address",
          "name": "owner",
          "type": "address"
        },
        {
          "indexed": true,
          "internalType": "address",
          "name": "spender",
          "type": "address"
        },
        {
          "indexed": false,
          "internalType": "uint256",
          "name": "value",
          "type": "uint256"
        }
      ],
      "name": "Approval",
      "type": "event"
    },
    {
      "anonymous": false,
      "inputs": [
        {
          "indexed": true,
          "internalType": "address",
          "name": "operator",
          "type": "address"
        },
        {
          "indexed": true,
          "internalType": "address",
          "name": "tokenHolder",
          "type": "address"
        }
      ],
      "name": "AuthorizedOperator",
      "type": "event"
    },
    {
      "anonymous": false,
      "inputs": [
        {
          "indexed": true,
          "internalType": "address",
          "name": "operator",
          "type": "address"
        },
        {
          "indexed": true,
          "internalType": "address",
          "name": "from",
          "type": "address"
        },
        {
          "indexed": false,
          "internalType": "uint256",
          "name": "amount",
          "type": "uint256"
        },
        {
          "indexed": false,
          "internalType": "bytes",
          "name": "data",
          "type": "bytes"
        },
        {
          "indexed": false,
          "internalType": "bytes",
          "name": "operatorData",
          "type": "bytes"
        }
      ],
      "name": "Burned",
      "type": "event"
    },
    {
      "anonymous": false,
      "inputs": [
        {
          "indexed": true,
          "internalType": "address",
          "name": "operator",
          "type": "address"
        },
        {
          "indexed": true,
          "internalType": "address",
          "name": "to",
          "type": "address"
        },
        {
          "indexed": false,
          "internalType": "uint256",
          "name": "amount",
          "type": "uint256"
        },
        {
          "indexed": false,
          "internalType": "bytes",
          "name": "data",
          "type": "bytes"
        },
        {
          "indexed": false,
          "internalType": "bytes",
          "name": "operatorData",
          "type": "bytes"
        }
      ],
      "name": "Minted",
      "type": "event"
    },
    {
      "anonymous": false,
      "inputs": [
        {
          "indexed": true,
          "internalType": "address",
          "name": "operator",
          "type": "address"
        },
        {
          "indexed": true,
          "internalType": "address",
          "name": "tokenHolder",
          "type": "address"
        }
      ],
      "name": "RevokedOperator",
      "type": "event"
    },
    {
      "anonymous": false,
      "inputs": [
        {
          "indexed": true,
          "internalType": "address",
          "name": "operator",
          "type": "address"
        },
        {
          "indexed": true,
          "internalType": "address",
          "name": "from",
          "type": "address"
        },
        {
          "indexed": true,
          "internalType": "address",
          "name": "to",
          "type": "address"
        },
        {
          "indexed": false,
          "internalType": "uint256",
          "name": "amount",
          "type": "uint256"
        },
        {
          "indexed": false,
          "internalType": "bytes",
          "name": "data",
          "type": "bytes"
        },
        {
          "indexed": false,
          "internalType": "bytes",
          "name": "operatorData",
          "type": "bytes"
        }
      ],
      "name": "Sent",
      "type": "event"
    },
    {
      "anonymous": false,
      "inputs": [
        {
          "indexed": true,
          "internalType": "address",
          "name": "from",
          "type": "address"
        },
        {
          "indexed": true,
          "internalType": "address",
          "name": "to",
          "type": "address"
        },
        {
          "indexed": false,
          "internalType": "uint256",
          "name": "value",
          "type": "uint256"
        }
      ],
      "name": "Transfer",
      "type": "event"
    },
    {
      "inputs": [
        {
          "internalType": "address",
          "name": "holder",
          "type": "address"
        },
        {
          "internalType": "address",
          "name": "spender",
          "type": "address"
        }
      ],
      "name": "allowance",
      "outputs": [
        {
          "internalType": "uint256",
          "name": "",
          "type": "uint256"
        }
      ],
      "stateMutability": "view",
      "type": "function",
      "constant": true
    },
    {
      "inputs": [
        {
          "internalType": "address",
          "name": "spender",
          "type": "address"
        },
        {
          "internalType": "uint256",
          "name": "value",
          "type": "uint256"
        }
      ],
      "name": "approve",
      "outputs": [
        {
          "internalType": "bool",
          "name": "",
          "type": "bool"
        }
      ],
      "stateMutability": "nonpayable",
      "type": "function"
    },
    {
      "inputs": [
        {
          "internalType": "address",
          "name": "operator",
          "type": "address"
        }
      ],
      "name": "authorizeOperator",
      "outputs": [],
      "stateMutability": "nonpayable",
      "type": "function"
    },
    {
      "inputs": [
        {
          "internalType": "address",
          "name": "tokenHolder",
          "type": "address"
        }
      ],
      "name": "balanceOf",
      "outputs": [
        {
          "internalType": "uint256",
          "name": "",
          "type": "uint256"
        }
      ],
      "stateMutability": "view",
      "type": "function",
      "constant": true
    },
    {
      "inputs": [],
      "name": "decimals",
      "outputs": [
        {
          "internalType": "uint8",
          "name": "",
          "type": "uint8"
        }
      ],
      "stateMutability": "pure",
      "type": "function",
      "constant": true
    },
    {
      "inputs": [],
      "name": "defaultOperators",
      "outputs": [
        {
          "internalType": "address[]",
          "name": "",
          "type": "address[]"
        }
      ],
      "stateMutability": "view",
      "type": "function",
      "constant": true
    },
    {
      "inputs": [],
      "name": "granularity",
      "outputs": [
        {
          "internalType": "uint256",
          "name": "",
          "type": "uint256"
        }
      ],
      "stateMutability": "view",
      "type": "function",
      "constant": true
    },
    {
      "inputs": [
        {
          "internalType": "address",
          "name": "operator",
          "type": "address"
        },
        {
          "internalType": "address",
          "name": "tokenHolder",
          "type": "address"
        }
      ],
      "name": "isOperatorFor",
      "outputs": [
        {
          "internalType": "bool",
          "name": "",
          "type": "bool"
        }
      ],
      "stateMutability": "view",
      "type": "function",
      "constant": true
    },
    {
      "inputs": [],
      "name": "name",
      "outputs": [
        {
          "internalType": "string",
          "name": "",
          "type": "string"
        }
      ],
      "stateMutability": "view",
      "type": "function",
      "constant": true
    },
    {
      "inputs": [
        {
          "internalType": "address",
          "name": "account",
          "type": "address"
        },
        {
          "internalType": "uint256",
          "name": "amount",
          "type": "uint256"
        },
        {
          "internalType": "bytes",
          "name": "data",
          "type": "bytes"
        },
        {
          "internalType": "bytes",
          "name": "operatorData",
          "type": "bytes"
        }
      ],
      "name": "operatorBurn",
      "outputs": [],
      "stateMutability": "nonpayable",
      "type": "function"
    },
    {
      "inputs": [
        {
          "internalType": "address",
          "name": "sender",
          "type": "address"
        },
        {
          "internalType": "address",
          "name": "recipient",
          "type": "address"
        },
        {
          "internalType": "uint256",
          "name": "amount",
          "type": "uint256"
        },
        {
          "internalType": "bytes",
          "name": "data",
          "type": "bytes"
        },
        {
          "internalType": "bytes",
          "name": "operatorData",
          "type": "bytes"
        }
      ],
      "name": "operatorSend",
      "outputs": [],
      "stateMutability": "nonpayable",
      "type": "function"
    },
    {
      "inputs": [
        {
          "internalType": "address",
          "name": "operator",
          "type": "address"
        }
      ],
      "name": "revokeOperator",
      "outputs": [],
      "stateMutability": "nonpayable",
      "type": "function"
    },
    {
      "inputs": [
        {
          "internalType": "address",
          "name": "recipient",
          "type": "address"
        },
        {
          "internalType": "uint256",
          "name": "amount",
          "type": "uint256"
        },
        {
          "internalType": "bytes",
          "name": "data",
          "type": "bytes"
        }
      ],
      "name": "send",
      "outputs": [],
      "stateMutability": "nonpayable",
      "type": "function"
    },
    {
      "inputs": [],
      "name": "symbol",
      "outputs": [
        {
          "internalType": "string",
          "name": "",
          "type": "string"
        }
      ],
      "stateMutability": "view",
      "type": "function",
      "constant": true
    },
    {
      "inputs": [],
      "name": "totalSupply",
      "outputs": [
        {
          "internalType": "uint256",
          "name": "",
          "type": "uint256"
        }
      ],
      "stateMutability": "view",
      "type": "function",
      "constant": true
    },
    {
      "inputs": [
        {
          "internalType": "address",
          "name": "recipient",
          "type": "address"
        },
        {
          "internalType": "uint256",
          "name": "amount",
          "type": "uint256"
        }
      ],
      "name": "transfer",
      "outputs": [
        {
          "internalType": "bool",
          "name": "",
          "type": "bool"
        }
      ],
      "stateMutability": "nonpayable",
      "type": "function"
    },
    {
      "inputs": [
        {
          "internalType": "address",
          "name": "holder",
          "type": "address"
        },
        {
          "internalType": "address",
          "name": "recipient",
          "type": "address"
        },
        {
          "internalType": "uint256",
          "name": "amount",
          "type": "uint256"
        }
      ],
      "name": "transferFrom",
      "outputs": [
        {
          "internalType": "bool",
          "name": "",
          "type": "bool"
        }
      ],
      "stateMutability": "nonpayable",
      "type": "function"
    },
    {
      "inputs": [
        {
          "internalType": "uint256",
          "name": "amount",
          "type": "uint256"
        }
      ],
      "name": "burn",
      "outputs": [],
      "stateMutability": "nonpayable",
      "type": "function"
    },
    {
      "inputs": [
        {
          "internalType": "uint256",
          "name": "amount",
          "type": "uint256"
        },
        {
          "internalType": "bytes",
          "name": "data",
          "type": "bytes"
        }
      ],
      "name": "burn",
      "outputs": [],
      "stateMutability": "nonpayable",
      "type": "function"
    },
    {
      "inputs": [
        {
          "internalType": "uint256",
          "name": "amount",
          "type": "uint256"
        }
      ],
      "name": "mint",
      "outputs": [],
      "stateMutability": "nonpayable",
      "type": "function"
    }
  ],
  "bytecode": "0x60806040523480156200001157600080fd5b506040518060400160405280600b81526020017f7465737467726f756e64320000000000000000000000000000000000000000008152506040518060400160405280600381526020017f5447320000000000000000000000000000000000000000000000000000000000815250600067ffffffffffffffff811115620000c0577f4e487b7100000000000000000000000000000000000000000000000000000000600052604160045260246000fd5b604051908082528060200260200182016040528015620000ef5781602001602082028036833780820191505090505b50826002908051906020019062000108929190620007cc565b50816003908051906020019062000121929190620007cc565b5080600490805190602001906200013a9291906200085d565b5060005b8151811015620001f75760016005600084848151811062000188577f4e487b7100000000000000000000000000000000000000000000000000000000600052603260045260246000fd5b602002602001015173ffffffffffffffffffffffffffffffffffffffff1673ffffffffffffffffffffffffffffffffffffffff16815260200190815260200160002060006101000a81548160ff0219169083151502179055508080620001ee9062000d61565b9150506200013e565b50731820a4b7618bde71dce8cdc73aab6c95905fad2473ffffffffffffffffffffffffffffffffffffffff166329965a1d307fac7fbab5f54a3ca8194167523c6753bfeb96a445279294b6125b68cce2177054306040518463ffffffff1660e01b81526004016200026b9392919062000b3a565b600060405180830381600087803b1580156200028657600080fd5b505af11580156200029b573d6000803e3d6000fd5b50505050731820a4b7618bde71dce8cdc73aab6c95905fad2473ffffffffffffffffffffffffffffffffffffffff166329965a1d307faea199e31a596269b42cdafd93407f14436db6e4cad65417994c2eb37381e05a306040518463ffffffff1660e01b8152600401620003129392919062000b3a565b600060405180830381600087803b1580156200032d57600080fd5b505af115801562000342573d6000803e3d6000fd5b505050505050506000683643aa647986040000905062000389338260405180602001604052806000815250604051806020016040528060008152506200039060201b60201c565b5062000e38565b620003a6848484846001620003ac60201b60201c565b50505050565b600073ffffffffffffffffffffffffffffffffffffffff168573ffffffffffffffffffffffffffffffffffffffff1614156200041f576040517f08c379a0000000000000000000000000000000000000000000000000000000008152600401620004169062000b77565b60405180910390fd5b600062000431620005ad60201b60201c565b9050620004488160008888620005b560201b60201c565b84600160008282546200045c919062000c50565b92505081905550846000808873ffffffffffffffffffffffffffffffffffffffff1673ffffffffffffffffffffffffffffffffffffffff1681526020019081526020016000206000828254620004b3919062000c50565b92505081905550620004d28160008888888888620005bb60201b60201c565b8573ffffffffffffffffffffffffffffffffffffffff168173ffffffffffffffffffffffffffffffffffffffff167f2fe5be0146f74c5bce36c0b80911af6c7d86ff27e89d5cfa61fc681327954e5d878787604051620005359392919062000bd8565b60405180910390a38573ffffffffffffffffffffffffffffffffffffffff16600073ffffffffffffffffffffffffffffffffffffffff167fddf252ad1be2c89b69c2b068fc378daa952ba7f163c4a11628f55a4df523b3ef876040516200059d919062000bbb565b60405180910390a3505050505050565b600033905090565b50505050565b6000731820a4b7618bde71dce8cdc73aab6c95905fad2473ffffffffffffffffffffffffffffffffffffffff1663aabbb8ca877fb281fc8c12954d22544db45de3159a39272895b169a852b314f9cc762e44c53b6040518363ffffffff1660e01b81526004016200062e92919062000b0d565b60206040518083038186803b1580156200064757600080fd5b505afa1580156200065c573d6000803e3d6000fd5b505050506040513d601f19601f8201168201806040525081019062000682919062000922565b9050600073ffffffffffffffffffffffffffffffffffffffff168173ffffffffffffffffffffffffffffffffffffffff161462000737578073ffffffffffffffffffffffffffffffffffffffff166223de298989898989896040518763ffffffff1660e01b8152600401620006fd9695949392919062000a92565b600060405180830381600087803b1580156200071857600080fd5b505af11580156200072d573d6000803e3d6000fd5b50505050620007af565b8115620007ae576200076a8673ffffffffffffffffffffffffffffffffffffffff16620007b960201b620011f21760201c565b15620007ad576040517f08c379a0000000000000000000000000000000000000000000000000000000008152600401620007a49062000b99565b60405180910390fd5b5b5b5050505050505050565b600080823b905060008111915050919050565b828054620007da9062000d2b565b90600052602060002090601f016020900481019282620007fe57600085556200084a565b82601f106200081957805160ff19168380011785556200084a565b828001600101855582156200084a579182015b82811115620008495782518255916020019190600101906200082c565b5b509050620008599190620008ec565b5090565b828054828255906000526020600020908101928215620008d9579160200282015b82811115620008d85782518260006101000a81548173ffffffffffffffffffffffffffffffffffffffff021916908373ffffffffffffffffffffffffffffffffffffffff160217905550916020019190600101906200087e565b5b509050620008e89190620008ec565b5090565b5b8082111562000907576000816000905550600101620008ed565b5090565b6000815190506200091c8162000e1e565b92915050565b6000602082840312156200093557600080fd5b600062000945848285016200090b565b91505092915050565b620009598162000cad565b82525050565b6200096a8162000cc1565b82525050565b60006200097d8262000c23565b62000989818562000c2e565b93506200099b81856020860162000cf5565b620009a68162000e0d565b840191505092915050565b6000620009c060208362000c3f565b91507f4552433737373a206d696e7420746f20746865207a65726f20616464726573736000830152602082019050919050565b600062000a02604d8362000c3f565b91507f4552433737373a20746f6b656e20726563697069656e7420636f6e747261637460008301527f20686173206e6f20696d706c656d656e74657220666f7220455243373737546f60208301527f6b656e73526563697069656e74000000000000000000000000000000000000006040830152606082019050919050565b62000a8c8162000ceb565b82525050565b600060c08201905062000aa960008301896200094e565b62000ab860208301886200094e565b62000ac760408301876200094e565b62000ad6606083018662000a81565b818103608083015262000aea818562000970565b905081810360a083015262000b00818462000970565b9050979650505050505050565b600060408201905062000b2460008301856200094e565b62000b3360208301846200095f565b9392505050565b600060608201905062000b5160008301866200094e565b62000b6060208301856200095f565b62000b6f60408301846200094e565b949350505050565b6000602082019050818103600083015262000b9281620009b1565b9050919050565b6000602082019050818103600083015262000bb481620009f3565b9050919050565b600060208201905062000bd2600083018462000a81565b92915050565b600060608201905062000bef600083018662000a81565b818103602083015262000c03818562000970565b9050818103604083015262000c19818462000970565b9050949350505050565b600081519050919050565b600082825260208201905092915050565b600082825260208201905092915050565b600062000c5d8262000ceb565b915062000c6a8362000ceb565b9250827fffffffffffffffffffffffffffffffffffffffffffffffffffffffffffffffff0382111562000ca25762000ca162000daf565b5b828201905092915050565b600062000cba8262000ccb565b9050919050565b6000819050919050565b600073ffffffffffffffffffffffffffffffffffffffff82169050919050565b6000819050919050565b60005b8381101562000d1557808201518184015260208101905062000cf8565b8381111562000d25576000848401525b50505050565b6000600282049050600182168062000d4457607f821691505b6020821081141562000d5b5762000d5a62000dde565b5b50919050565b600062000d6e8262000ceb565b91507fffffffffffffffffffffffffffffffffffffffffffffffffffffffffffffffff82141562000da45762000da362000daf565b5b600182019050919050565b7f4e487b7100000000000000000000000000000000000000000000000000000000600052601160045260246000fd5b7f4e487b7100000000000000000000000000000000000000000000000000000000600052602260045260246000fd5b6000601f19601f8301169050919050565b62000e298162000cad565b811462000e3557600080fd5b50565b61302b8062000e486000396000f3fe608060405234801561001057600080fd5b506004361061012c5760003560e01c8063959b8c3f116100ad578063d95b637111610071578063d95b637114610331578063dd62ed3e14610361578063fad8b32a14610391578063fc673c4f146103ad578063fe9d9303146103c95761012c565b8063959b8c3f1461028f57806395d89b41146102ab5780639bd9bbc6146102c9578063a0712d68146102e5578063a9059cbb146103015761012c565b8063313ce567116100f4578063313ce567146101eb57806342966c6814610209578063556f0dc71461022557806362ad1b831461024357806370a082311461025f5761012c565b806306e485381461013157806306fdde031461014f578063095ea7b31461016d57806318160ddd1461019d57806323b872dd146101bb575b600080fd5b6101396103e5565b6040516101469190612a40565b60405180910390f35b610157610473565b6040516101649190612a7d565b60405180910390f35b610187600480360381019061018291906120df565b610505565b6040516101949190612a62565b60405180910390f35b6101a5610528565b6040516101b29190612c7f565b60405180910390f35b6101d560048036038101906101d09190611fe9565b610532565b6040516101e29190612a62565b60405180910390f35b6101f361078c565b6040516102009190612cdf565b60405180910390f35b610223600480360381019061021e9190612215565b610795565b005b61022d6107c2565b60405161023a9190612c7f565b60405180910390f35b61025d60048036038101906102589190612038565b6107cb565b005b61027960048036038101906102749190611f5b565b610831565b6040516102869190612c7f565b60405180910390f35b6102a960048036038101906102a49190611f5b565b610879565b005b6102b3610ada565b6040516102c09190612a7d565b60405180910390f35b6102e360048036038101906102de919061211b565b610b6c565b005b6102ff60048036038101906102fa9190612215565b610b96565b005b61031b600480360381019061031691906120df565b610bc3565b6040516103289190612a62565b60405180910390f35b61034b60048036038101906103469190611fad565b610cd1565b6040516103589190612a62565b60405180910390f35b61037b60048036038101906103769190611fad565b610e82565b6040516103889190612c7f565b60405180910390f35b6103ab60048036038101906103a69190611f5b565b610f09565b005b6103c760048036038101906103c29190612182565b61116a565b005b6103e360048036038101906103de919061223e565b6111cc565b005b6060600480548060200260200160405190810160405280929190818152602001828054801561046957602002820191906000526020600020905b8160009054906101000a900473ffffffffffffffffffffffffffffffffffffffff1673ffffffffffffffffffffffffffffffffffffffff168152602001906001019080831161041f575b5050505050905090565b60606002805461048290612ef7565b80601f01602080910402602001604051908101604052809291908181526020018280546104ae90612ef7565b80156104fb5780601f106104d0576101008083540402835291602001916104fb565b820191906000526020600020905b8154815290600101906020018083116104de57829003601f168201915b5050505050905090565b600080610510611205565b905061051d81858561120d565b600191505092915050565b6000600154905090565b60008073ffffffffffffffffffffffffffffffffffffffff168373ffffffffffffffffffffffffffffffffffffffff1614156105a3576040517f08c379a000000000000000000000000000000000000000000000000000000000815260040161059a90612b9f565b60405180910390fd5b600073ffffffffffffffffffffffffffffffffffffffff168473ffffffffffffffffffffffffffffffffffffffff161415610613576040517f08c379a000000000000000000000000000000000000000000000000000000000815260040161060a90612bff565b60405180910390fd5b600061061d611205565b905061064b8186868660405180602001604052806000815250604051806020016040528060008152506113d8565b61067781868686604051806020016040528060008152506040518060200160405280600081525061154e565b6000600860008773ffffffffffffffffffffffffffffffffffffffff1673ffffffffffffffffffffffffffffffffffffffff16815260200190815260200160002060008373ffffffffffffffffffffffffffffffffffffffff1673ffffffffffffffffffffffffffffffffffffffff1681526020019081526020016000205490508381101561073b576040517f08c379a000000000000000000000000000000000000000000000000000000000815260040161073290612bdf565b60405180910390fd5b6107518683868461074c9190612e22565b61120d565b61077f8287878760405180602001604052806000815250604051806020016040528060008152506000611768565b6001925050509392505050565b60006012905090565b6107bf33826040518060200160405280600081525060405180602001604052806000815250611949565b50565b60006001905090565b6107dc6107d6611205565b86610cd1565b61081b576040517f08c379a000000000000000000000000000000000000000000000000000000000815260040161081290612bbf565b60405180910390fd5b61082a85858585856001611b9c565b5050505050565b60008060008373ffffffffffffffffffffffffffffffffffffffff1673ffffffffffffffffffffffffffffffffffffffff168152602001908152602001600020549050919050565b8073ffffffffffffffffffffffffffffffffffffffff16610898611205565b73ffffffffffffffffffffffffffffffffffffffff1614156108ef576040517f08c379a00000000000000000000000000000000000000000000000000000000081526004016108e690612b1f565b60405180910390fd5b600560008273ffffffffffffffffffffffffffffffffffffffff1673ffffffffffffffffffffffffffffffffffffffff16815260200190815260200160002060009054906101000a900460ff16156109d9576007600061094d611205565b73ffffffffffffffffffffffffffffffffffffffff1673ffffffffffffffffffffffffffffffffffffffff16815260200190815260200160002060008273ffffffffffffffffffffffffffffffffffffffff1673ffffffffffffffffffffffffffffffffffffffff16815260200190815260200160002060006101000a81549060ff0219169055610a76565b6001600660006109e7611205565b73ffffffffffffffffffffffffffffffffffffffff1673ffffffffffffffffffffffffffffffffffffffff16815260200190815260200160002060008373ffffffffffffffffffffffffffffffffffffffff1673ffffffffffffffffffffffffffffffffffffffff16815260200190815260200160002060006101000a81548160ff0219169083151502179055505b610a7e611205565b73ffffffffffffffffffffffffffffffffffffffff168173ffffffffffffffffffffffffffffffffffffffff167ff4caeb2d6ca8932a215a353d0703c326ec2d81fc68170f320eb2ab49e9df61f960405160405180910390a350565b606060038054610ae990612ef7565b80601f0160208091040260200160405190810160405280929190818152602001828054610b1590612ef7565b8015610b625780601f10610b3757610100808354040283529160200191610b62565b820191906000526020600020905b815481529060010190602001808311610b4557829003601f168201915b5050505050905090565b610b91610b77611205565b848484604051806020016040528060008152506001611b9c565b505050565b610bc033826040518060200160405280600081525060405180602001604052806000815250611cbc565b50565b60008073ffffffffffffffffffffffffffffffffffffffff168373ffffffffffffffffffffffffffffffffffffffff161415610c34576040517f08c379a0000000000000000000000000000000000000000000000000000000008152600401610c2b90612b9f565b60405180910390fd5b6000610c3e611205565b9050610c6c8182868660405180602001604052806000815250604051806020016040528060008152506113d8565b610c9881828686604051806020016040528060008152506040518060200160405280600081525061154e565b610cc68182868660405180602001604052806000815250604051806020016040528060008152506000611768565b600191505092915050565b60008173ffffffffffffffffffffffffffffffffffffffff168373ffffffffffffffffffffffffffffffffffffffff161480610de95750600560008473ffffffffffffffffffffffffffffffffffffffff1673ffffffffffffffffffffffffffffffffffffffff16815260200190815260200160002060009054906101000a900460ff168015610de85750600760008373ffffffffffffffffffffffffffffffffffffffff1673ffffffffffffffffffffffffffffffffffffffff16815260200190815260200160002060008473ffffffffffffffffffffffffffffffffffffffff1673ffffffffffffffffffffffffffffffffffffffff16815260200190815260200160002060009054906101000a900460ff16155b5b80610e7a5750600660008373ffffffffffffffffffffffffffffffffffffffff1673ffffffffffffffffffffffffffffffffffffffff16815260200190815260200160002060008473ffffffffffffffffffffffffffffffffffffffff1673ffffffffffffffffffffffffffffffffffffffff16815260200190815260200160002060009054906101000a900460ff165b905092915050565b6000600860008473ffffffffffffffffffffffffffffffffffffffff1673ffffffffffffffffffffffffffffffffffffffff16815260200190815260200160002060008373ffffffffffffffffffffffffffffffffffffffff1673ffffffffffffffffffffffffffffffffffffffff16815260200190815260200160002054905092915050565b610f11611205565b73ffffffffffffffffffffffffffffffffffffffff168173ffffffffffffffffffffffffffffffffffffffff161415610f7f576040517f08c379a0000000000000000000000000000000000000000000000000000000008152600401610f7690612b3f565b60405180910390fd5b600560008273ffffffffffffffffffffffffffffffffffffffff1673ffffffffffffffffffffffffffffffffffffffff16815260200190815260200160002060009054906101000a900460ff161561107257600160076000610fdf611205565b73ffffffffffffffffffffffffffffffffffffffff1673ffffffffffffffffffffffffffffffffffffffff16815260200190815260200160002060008373ffffffffffffffffffffffffffffffffffffffff1673ffffffffffffffffffffffffffffffffffffffff16815260200190815260200160002060006101000a81548160ff021916908315150217905550611106565b6006600061107e611205565b73ffffffffffffffffffffffffffffffffffffffff1673ffffffffffffffffffffffffffffffffffffffff16815260200190815260200160002060008273ffffffffffffffffffffffffffffffffffffffff1673ffffffffffffffffffffffffffffffffffffffff16815260200190815260200160002060006101000a81549060ff02191690555b61110e611205565b73ffffffffffffffffffffffffffffffffffffffff168173ffffffffffffffffffffffffffffffffffffffff167f50546e66e5f44d728365dc3908c63bc5cfeeab470722c1677e3073a6ac294aa160405160405180910390a350565b61117b611175611205565b85610cd1565b6111ba576040517f08c379a00000000000000000000000000000000000000000000000000000000081526004016111b190612bbf565b60405180910390fd5b6111c684848484611949565b50505050565b6111ee6111d7611205565b838360405180602001604052806000815250611949565b5050565b600080823b905060008111915050919050565b600033905090565b600073ffffffffffffffffffffffffffffffffffffffff168373ffffffffffffffffffffffffffffffffffffffff16141561127d576040517f08c379a000000000000000000000000000000000000000000000000000000000815260040161127490612a9f565b60405180910390fd5b600073ffffffffffffffffffffffffffffffffffffffff168273ffffffffffffffffffffffffffffffffffffffff1614156112ed576040517f08c379a00000000000000000000000000000000000000000000000000000000081526004016112e490612c5f565b60405180910390fd5b80600860008573ffffffffffffffffffffffffffffffffffffffff1673ffffffffffffffffffffffffffffffffffffffff16815260200190815260200160002060008473ffffffffffffffffffffffffffffffffffffffff1673ffffffffffffffffffffffffffffffffffffffff168152602001908152602001600020819055508173ffffffffffffffffffffffffffffffffffffffff168373ffffffffffffffffffffffffffffffffffffffff167f8c5be1e5ebec7d5bd14f71427d1e84f3dd0314c0f7b2291e5b200ac8c7c3b925836040516113cb9190612c7f565b60405180910390a3505050565b6000731820a4b7618bde71dce8cdc73aab6c95905fad2473ffffffffffffffffffffffffffffffffffffffff1663aabbb8ca877f29ddb589b1fb5fc7cf394961c1adf5f8c6454761adf795e67fe149f658abe8956040518363ffffffff1660e01b8152600401611449929190612a17565b60206040518083038186803b15801561146157600080fd5b505afa158015611475573d6000803e3d6000fd5b505050506040513d601f19601f820116820180604052508101906114999190611f84565b9050600073ffffffffffffffffffffffffffffffffffffffff168173ffffffffffffffffffffffffffffffffffffffff1614611545578073ffffffffffffffffffffffffffffffffffffffff166375ab97828888888888886040518763ffffffff1660e01b8152600401611512969594939291906129a8565b600060405180830381600087803b15801561152c57600080fd5b505af1158015611540573d6000803e3d6000fd5b505050505b50505050505050565b61155a86868686611cd0565b60008060008773ffffffffffffffffffffffffffffffffffffffff1673ffffffffffffffffffffffffffffffffffffffff168152602001908152602001600020549050838110156115e0576040517f08c379a00000000000000000000000000000000000000000000000000000000081526004016115d790612adf565b60405180910390fd5b8381036000808873ffffffffffffffffffffffffffffffffffffffff1673ffffffffffffffffffffffffffffffffffffffff16815260200190815260200160002081905550836000808773ffffffffffffffffffffffffffffffffffffffff1673ffffffffffffffffffffffffffffffffffffffff16815260200190815260200160002060008282546116739190612dcc565b925050819055508473ffffffffffffffffffffffffffffffffffffffff168673ffffffffffffffffffffffffffffffffffffffff168873ffffffffffffffffffffffffffffffffffffffff167f06b541ddaa720db2b10a4d0cdac39b8d360425fc073085fac19bc826146779878787876040516116f293929190612c9a565b60405180910390a48473ffffffffffffffffffffffffffffffffffffffff168673ffffffffffffffffffffffffffffffffffffffff167fddf252ad1be2c89b69c2b068fc378daa952ba7f163c4a11628f55a4df523b3ef866040516117579190612c7f565b60405180910390a350505050505050565b6000731820a4b7618bde71dce8cdc73aab6c95905fad2473ffffffffffffffffffffffffffffffffffffffff1663aabbb8ca877fb281fc8c12954d22544db45de3159a39272895b169a852b314f9cc762e44c53b6040518363ffffffff1660e01b81526004016117d9929190612a17565b60206040518083038186803b1580156117f157600080fd5b505afa158015611805573d6000803e3d6000fd5b505050506040513d601f19601f820116820180604052508101906118299190611f84565b9050600073ffffffffffffffffffffffffffffffffffffffff168173ffffffffffffffffffffffffffffffffffffffff16146118d8578073ffffffffffffffffffffffffffffffffffffffff166223de298989898989896040518763ffffffff1660e01b81526004016118a1969594939291906129a8565b600060405180830381600087803b1580156118bb57600080fd5b505af11580156118cf573d6000803e3d6000fd5b5050505061193f565b811561193e576118fd8673ffffffffffffffffffffffffffffffffffffffff166111f2565b1561193d576040517f08c379a000000000000000000000000000000000000000000000000000000000815260040161193490612b7f565b60405180910390fd5b5b5b5050505050505050565b600073ffffffffffffffffffffffffffffffffffffffff168473ffffffffffffffffffffffffffffffffffffffff1614156119b9576040517f08c379a00000000000000000000000000000000000000000000000000000000081526004016119b090612aff565b60405180910390fd5b60006119c3611205565b90506119d4818660008787876113d8565b6119e18186600087611cd0565b60008060008773ffffffffffffffffffffffffffffffffffffffff1673ffffffffffffffffffffffffffffffffffffffff16815260200190815260200160002054905084811015611a67576040517f08c379a0000000000000000000000000000000000000000000000000000000008152600401611a5e90612c1f565b60405180910390fd5b8481036000808873ffffffffffffffffffffffffffffffffffffffff1673ffffffffffffffffffffffffffffffffffffffff168152602001908152602001600020819055508460016000828254611abe9190612e22565b925050819055508573ffffffffffffffffffffffffffffffffffffffff168273ffffffffffffffffffffffffffffffffffffffff167fa78a9be3a7b862d26933ad85fb11d80ef66b8f972d7cbba06621d583943a4098878787604051611b2693929190612c9a565b60405180910390a3600073ffffffffffffffffffffffffffffffffffffffff168673ffffffffffffffffffffffffffffffffffffffff167fddf252ad1be2c89b69c2b068fc378daa952ba7f163c4a11628f55a4df523b3ef87604051611b8c9190612c7f565b60405180910390a3505050505050565b600073ffffffffffffffffffffffffffffffffffffffff168673ffffffffffffffffffffffffffffffffffffffff161415611c0c576040517f08c379a0000000000000000000000000000000000000000000000000000000008152600401611c0390612abf565b60405180910390fd5b600073ffffffffffffffffffffffffffffffffffffffff168573ffffffffffffffffffffffffffffffffffffffff161415611c7c576040517f08c379a0000000000000000000000000000000000000000000000000000000008152600401611c7390612c3f565b60405180910390fd5b6000611c86611205565b9050611c968188888888886113d8565b611ca481888888888861154e565b611cb381888888888888611768565b50505050505050565b611cca848484846001611cd6565b50505050565b50505050565b600073ffffffffffffffffffffffffffffffffffffffff168573ffffffffffffffffffffffffffffffffffffffff161415611d46576040517f08c379a0000000000000000000000000000000000000000000000000000000008152600401611d3d90612b5f565b60405180910390fd5b6000611d50611205565b9050611d5f8160008888611cd0565b8460016000828254611d719190612dcc565b92505081905550846000808873ffffffffffffffffffffffffffffffffffffffff1673ffffffffffffffffffffffffffffffffffffffff1681526020019081526020016000206000828254611dc69190612dcc565b92505081905550611ddd8160008888888888611768565b8573ffffffffffffffffffffffffffffffffffffffff168173ffffffffffffffffffffffffffffffffffffffff167f2fe5be0146f74c5bce36c0b80911af6c7d86ff27e89d5cfa61fc681327954e5d878787604051611e3e93929190612c9a565b60405180910390a38573ffffffffffffffffffffffffffffffffffffffff16600073ffffffffffffffffffffffffffffffffffffffff167fddf252ad1be2c89b69c2b068fc378daa952ba7f163c4a11628f55a4df523b3ef87604051611ea49190612c7f565b60405180910390a3505050505050565b6000611ec7611ec284612d2b565b612cfa565b905082815260208101848484011115611edf57600080fd5b611eea848285612eb5565b509392505050565b600081359050611f0181612fc7565b92915050565b600081519050611f1681612fc7565b92915050565b600082601f830112611f2d57600080fd5b8135611f3d848260208601611eb4565b91505092915050565b600081359050611f5581612fde565b92915050565b600060208284031215611f6d57600080fd5b6000611f7b84828501611ef2565b91505092915050565b600060208284031215611f9657600080fd5b6000611fa484828501611f07565b91505092915050565b60008060408385031215611fc057600080fd5b6000611fce85828601611ef2565b9250506020611fdf85828601611ef2565b9150509250929050565b600080600060608486031215611ffe57600080fd5b600061200c86828701611ef2565b935050602061201d86828701611ef2565b925050604061202e86828701611f46565b9150509250925092565b600080600080600060a0868803121561205057600080fd5b600061205e88828901611ef2565b955050602061206f88828901611ef2565b945050604061208088828901611f46565b935050606086013567ffffffffffffffff81111561209d57600080fd5b6120a988828901611f1c565b925050608086013567ffffffffffffffff8111156120c657600080fd5b6120d288828901611f1c565b9150509295509295909350565b600080604083850312156120f257600080fd5b600061210085828601611ef2565b925050602061211185828601611f46565b9150509250929050565b60008060006060848603121561213057600080fd5b600061213e86828701611ef2565b935050602061214f86828701611f46565b925050604084013567ffffffffffffffff81111561216c57600080fd5b61217886828701611f1c565b9150509250925092565b6000806000806080858703121561219857600080fd5b60006121a687828801611ef2565b94505060206121b787828801611f46565b935050604085013567ffffffffffffffff8111156121d457600080fd5b6121e087828801611f1c565b925050606085013567ffffffffffffffff8111156121fd57600080fd5b61220987828801611f1c565b91505092959194509250565b60006020828403121561222757600080fd5b600061223584828501611f46565b91505092915050565b6000806040838503121561225157600080fd5b600061225f85828601611f46565b925050602083013567ffffffffffffffff81111561227c57600080fd5b61228885828601611f1c565b9150509250929050565b600061229e83836122aa565b60208301905092915050565b6122b381612e56565b82525050565b6122c281612e56565b82525050565b60006122d382612d6b565b6122dd8185612d99565b93506122e883612d5b565b8060005b838110156123195781516123008882612292565b975061230b83612d8c565b9250506001810190506122ec565b5085935050505092915050565b61232f81612e68565b82525050565b61233e81612e74565b82525050565b600061234f82612d76565b6123598185612daa565b9350612369818560208601612ec4565b61237281612fb6565b840191505092915050565b600061238882612d81565b6123928185612dbb565b93506123a2818560208601612ec4565b6123ab81612fb6565b840191505092915050565b60006123c3602583612dbb565b91507f4552433737373a20617070726f76652066726f6d20746865207a65726f20616460008301527f64726573730000000000000000000000000000000000000000000000000000006020830152604082019050919050565b6000612429602283612dbb565b91507f4552433737373a2073656e642066726f6d20746865207a65726f20616464726560008301527f73730000000000000000000000000000000000000000000000000000000000006020830152604082019050919050565b600061248f602783612dbb565b91507f4552433737373a207472616e7366657220616d6f756e7420657863656564732060008301527f62616c616e6365000000000000000000000000000000000000000000000000006020830152604082019050919050565b60006124f5602283612dbb565b91507f4552433737373a206275726e2066726f6d20746865207a65726f20616464726560008301527f73730000000000000000000000000000000000000000000000000000000000006020830152604082019050919050565b600061255b602483612dbb565b91507f4552433737373a20617574686f72697a696e672073656c66206173206f70657260008301527f61746f72000000000000000000000000000000000000000000000000000000006020830152604082019050919050565b60006125c1602183612dbb565b91507f4552433737373a207265766f6b696e672073656c66206173206f70657261746f60008301527f72000000000000000000000000000000000000000000000000000000000000006020830152604082019050919050565b6000612627602083612dbb565b91507f4552433737373a206d696e7420746f20746865207a65726f20616464726573736000830152602082019050919050565b6000612667604d83612dbb565b91507f4552433737373a20746f6b656e20726563697069656e7420636f6e747261637460008301527f20686173206e6f20696d706c656d656e74657220666f7220455243373737546f60208301527f6b656e73526563697069656e74000000000000000000000000000000000000006040830152606082019050919050565b60006126f3602483612dbb565b91507f4552433737373a207472616e7366657220746f20746865207a65726f2061646460008301527f72657373000000000000000000000000000000000000000000000000000000006020830152604082019050919050565b6000612759602c83612dbb565b91507f4552433737373a2063616c6c6572206973206e6f7420616e206f70657261746f60008301527f7220666f7220686f6c64657200000000000000000000000000000000000000006020830152604082019050919050565b60006127bf602983612dbb565b91507f4552433737373a207472616e7366657220616d6f756e7420657863656564732060008301527f616c6c6f77616e636500000000000000000000000000000000000000000000006020830152604082019050919050565b6000612825602683612dbb565b91507f4552433737373a207472616e736665722066726f6d20746865207a65726f206160008301527f64647265737300000000000000000000000000000000000000000000000000006020830152604082019050919050565b600061288b602383612dbb565b91507f4552433737373a206275726e20616d6f756e7420657863656564732062616c6160008301527f6e636500000000000000000000000000000000000000000000000000000000006020830152604082019050919050565b60006128f1602083612dbb565b91507f4552433737373a2073656e6420746f20746865207a65726f20616464726573736000830152602082019050919050565b6000612931602383612dbb565b91507f4552433737373a20617070726f766520746f20746865207a65726f206164647260008301527f65737300000000000000000000000000000000000000000000000000000000006020830152604082019050919050565b61299381612e9e565b82525050565b6129a281612ea8565b82525050565b600060c0820190506129bd60008301896122b9565b6129ca60208301886122b9565b6129d760408301876122b9565b6129e4606083018661298a565b81810360808301526129f68185612344565b905081810360a0830152612a0a8184612344565b9050979650505050505050565b6000604082019050612a2c60008301856122b9565b612a396020830184612335565b9392505050565b60006020820190508181036000830152612a5a81846122c8565b905092915050565b6000602082019050612a776000830184612326565b92915050565b60006020820190508181036000830152612a97818461237d565b905092915050565b60006020820190508181036000830152612ab8816123b6565b9050919050565b60006020820190508181036000830152612ad88161241c565b9050919050565b60006020820190508181036000830152612af881612482565b9050919050565b60006020820190508181036000830152612b18816124e8565b9050919050565b60006020820190508181036000830152612b388161254e565b9050919050565b60006020820190508181036000830152612b58816125b4565b9050919050565b60006020820190508181036000830152612b788161261a565b9050919050565b60006020820190508181036000830152612b988161265a565b9050919050565b60006020820190508181036000830152612bb8816126e6565b9050919050565b60006020820190508181036000830152612bd88161274c565b9050919050565b60006020820190508181036000830152612bf8816127b2565b9050919050565b60006020820190508181036000830152612c1881612818565b9050919050565b60006020820190508181036000830152612c388161287e565b9050919050565b60006020820190508181036000830152612c58816128e4565b9050919050565b60006020820190508181036000830152612c7881612924565b9050919050565b6000602082019050612c94600083018461298a565b92915050565b6000606082019050612caf600083018661298a565b8181036020830152612cc18185612344565b90508181036040830152612cd58184612344565b9050949350505050565b6000602082019050612cf46000830184612999565b92915050565b6000604051905081810181811067ffffffffffffffff82111715612d2157612d20612f87565b5b8060405250919050565b600067ffffffffffffffff821115612d4657612d45612f87565b5b601f19601f8301169050602081019050919050565b6000819050602082019050919050565b600081519050919050565b600081519050919050565b600081519050919050565b6000602082019050919050565b600082825260208201905092915050565b600082825260208201905092915050565b600082825260208201905092915050565b6000612dd782612e9e565b9150612de283612e9e565b9250827fffffffffffffffffffffffffffffffffffffffffffffffffffffffffffffffff03821115612e1757612e16612f29565b5b828201905092915050565b6000612e2d82612e9e565b9150612e3883612e9e565b925082821015612e4b57612e4a612f29565b5b828203905092915050565b6000612e6182612e7e565b9050919050565b60008115159050919050565b6000819050919050565b600073ffffffffffffffffffffffffffffffffffffffff82169050919050565b6000819050919050565b600060ff82169050919050565b82818337600083830152505050565b60005b83811015612ee2578082015181840152602081019050612ec7565b83811115612ef1576000848401525b50505050565b60006002820490506001821680612f0f57607f821691505b60208210811415612f2357612f22612f58565b5b50919050565b7f4e487b7100000000000000000000000000000000000000000000000000000000600052601160045260246000fd5b7f4e487b7100000000000000000000000000000000000000000000000000000000600052602260045260246000fd5b7f4e487b7100000000000000000000000000000000000000000000000000000000600052604160045260246000fd5b6000601f19601f8301169050919050565b612fd081612e56565b8114612fdb57600080fd5b50565b612fe781612e9e565b8114612ff257600080fd5b5056fea26469706673582212207261c4bfa7ed3e1b8d3353e7a37c4a70f835c08a118d79240447f58baedc9a4e64736f6c63430008000033",
  "immutableReferences": {},
  "source": "// SPDX-License-Identifier: MIT\npragma solidity 0.8.0;\n\nimport \"./dependencies/ERC777.sol\";\n\ncontract MyERC777 is ERC777 {\n\n  constructor () public\n    ERC777(\"testground2\", \"TG2\", new address[](0))\n  {\n    uint256 initialSupply = 1001 ether;\n    _mint(msg.sender, initialSupply, \"\", \"\");\n  }\n\n  function burn(uint256 amount) public {\n    _burn(msg.sender, amount, \"\", \"\");\n  }\n\n  function mint(uint256 amount) public {\n    _mint(msg.sender, amount, \"\", \"\");\n  }\n}",
  "sourcePath": "/home/turupawn/Projects/Blockchain/Games/MaticERC777/contracts/MyERC777.sol",
  "compiler": {
    "name": "solc",
    "version": "0.8.0+commit.c7dfd78e.Emscripten.clang"
  },
  "schemaVersion": "3.3.4",
  "updatedAt": "2021-05-31T18:00:33.331Z",
  "networkType": "ethereum",
  "devdoc": {
    "kind": "dev",
    "methods": {
      "allowance(address,address)": {
        "details": "See {IERC20-allowance}. Note that operator and allowance concepts are orthogonal: operators may not have allowance, and accounts with allowance may not be operators themselves."
      },
      "approve(address,uint256)": {
        "details": "See {IERC20-approve}. Note that accounts cannot have allowance issued by their operators."
      },
      "authorizeOperator(address)": {
        "details": "See {IERC777-authorizeOperator}."
      },
      "balanceOf(address)": {
        "details": "Returns the amount of tokens owned by an account (`tokenHolder`)."
      },
      "burn(uint256,bytes)": {
        "details": "See {IERC777-burn}. Also emits a {IERC20-Transfer} event for ERC20 compatibility."
      },
      "decimals()": {
        "details": "See {ERC20-decimals}. Always returns 18, as per the [ERC777 EIP](https://eips.ethereum.org/EIPS/eip-777#backward-compatibility)."
      },
      "defaultOperators()": {
        "details": "See {IERC777-defaultOperators}."
      },
      "granularity()": {
        "details": "See {IERC777-granularity}. This implementation always returns `1`."
      },
      "isOperatorFor(address,address)": {
        "details": "See {IERC777-isOperatorFor}."
      },
      "name()": {
        "details": "See {IERC777-name}."
      },
      "operatorBurn(address,uint256,bytes,bytes)": {
        "details": "See {IERC777-operatorBurn}. Emits {Burned} and {IERC20-Transfer} events."
      },
      "operatorSend(address,address,uint256,bytes,bytes)": {
        "details": "See {IERC777-operatorSend}. Emits {Sent} and {IERC20-Transfer} events."
      },
      "revokeOperator(address)": {
        "details": "See {IERC777-revokeOperator}."
      },
      "send(address,uint256,bytes)": {
        "details": "See {IERC777-send}. Also emits a {IERC20-Transfer} event for ERC20 compatibility."
      },
      "symbol()": {
        "details": "See {IERC777-symbol}."
      },
      "totalSupply()": {
        "details": "See {IERC777-totalSupply}."
      },
      "transfer(address,uint256)": {
        "details": "See {IERC20-transfer}. Unlike `send`, `recipient` is _not_ required to implement the {IERC777Recipient} interface if it is a contract. Also emits a {Sent} event."
      },
      "transferFrom(address,address,uint256)": {
        "details": "See {IERC20-transferFrom}. Note that operator and allowance concepts are orthogonal: operators cannot call `transferFrom` (unless they have allowance), and accounts with allowance cannot call `operatorSend` (unless they are operators). Emits {Sent}, {IERC20-Transfer} and {IERC20-Approval} events."
      }
    },
    "version": 1
  },
  "userdoc": {
    "kind": "user",
    "methods": {},
    "version": 1
  }
}