{
  "contractName": "MyERC777",
  "abi": [
    {
      "inputs": [],
      "stateMutability": "nonpayable",
      "type": "constructor"
    },
    {
      "anonymous": false,
      "inputs": [
        {
          "indexed": true,
          "internalType": "address",
          "name": "owner",
          "type": "address"
        },
        {
          "indexed": true,
          "internalType": "address",
          "name": "spender",
          "type": "address"
        },
        {
          "indexed": false,
          "internalType": "uint256",
          "name": "value",
          "type": "uint256"
        }
      ],
      "name": "Approval",
      "type": "event"
    },
    {
      "anonymous": false,
      "inputs": [
        {
          "indexed": true,
          "internalType": "address",
          "name": "operator",
          "type": "address"
        },
        {
          "indexed": true,
          "internalType": "address",
          "name": "tokenHolder",
          "type": "address"
        }
      ],
      "name": "AuthorizedOperator",
      "type": "event"
    },
    {
      "anonymous": false,
      "inputs": [
        {
          "indexed": true,
          "internalType": "address",
          "name": "operator",
          "type": "address"
        },
        {
          "indexed": true,
          "internalType": "address",
          "name": "from",
          "type": "address"
        },
        {
          "indexed": false,
          "internalType": "uint256",
          "name": "amount",
          "type": "uint256"
        },
        {
          "indexed": false,
          "internalType": "bytes",
          "name": "data",
          "type": "bytes"
        },
        {
          "indexed": false,
          "internalType": "bytes",
          "name": "operatorData",
          "type": "bytes"
        }
      ],
      "name": "Burned",
      "type": "event"
    },
    {
      "anonymous": false,
      "inputs": [
        {
          "indexed": true,
          "internalType": "address",
          "name": "operator",
          "type": "address"
        },
        {
          "indexed": true,
          "internalType": "address",
          "name": "to",
          "type": "address"
        },
        {
          "indexed": false,
          "internalType": "uint256",
          "name": "amount",
          "type": "uint256"
        },
        {
          "indexed": false,
          "internalType": "bytes",
          "name": "data",
          "type": "bytes"
        },
        {
          "indexed": false,
          "internalType": "bytes",
          "name": "operatorData",
          "type": "bytes"
        }
      ],
      "name": "Minted",
      "type": "event"
    },
    {
      "anonymous": false,
      "inputs": [
        {
          "indexed": true,
          "internalType": "address",
          "name": "operator",
          "type": "address"
        },
        {
          "indexed": true,
          "internalType": "address",
          "name": "tokenHolder",
          "type": "address"
        }
      ],
      "name": "RevokedOperator",
      "type": "event"
    },
    {
      "anonymous": false,
      "inputs": [
        {
          "indexed": true,
          "internalType": "address",
          "name": "operator",
          "type": "address"
        },
        {
          "indexed": true,
          "internalType": "address",
          "name": "from",
          "type": "address"
        },
        {
          "indexed": true,
          "internalType": "address",
          "name": "to",
          "type": "address"
        },
        {
          "indexed": false,
          "internalType": "uint256",
          "name": "amount",
          "type": "uint256"
        },
        {
          "indexed": false,
          "internalType": "bytes",
          "name": "data",
          "type": "bytes"
        },
        {
          "indexed": false,
          "internalType": "bytes",
          "name": "operatorData",
          "type": "bytes"
        }
      ],
      "name": "Sent",
      "type": "event"
    },
    {
      "anonymous": false,
      "inputs": [
        {
          "indexed": true,
          "internalType": "address",
          "name": "from",
          "type": "address"
        },
        {
          "indexed": true,
          "internalType": "address",
          "name": "to",
          "type": "address"
        },
        {
          "indexed": false,
          "internalType": "uint256",
          "name": "value",
          "type": "uint256"
        }
      ],
      "name": "Transfer",
      "type": "event"
    },
    {
      "inputs": [
        {
          "internalType": "address",
          "name": "holder",
          "type": "address"
        },
        {
          "internalType": "address",
          "name": "spender",
          "type": "address"
        }
      ],
      "name": "allowance",
      "outputs": [
        {
          "internalType": "uint256",
          "name": "",
          "type": "uint256"
        }
      ],
      "stateMutability": "view",
      "type": "function",
      "constant": true
    },
    {
      "inputs": [
        {
          "internalType": "address",
          "name": "spender",
          "type": "address"
        },
        {
          "internalType": "uint256",
          "name": "value",
          "type": "uint256"
        }
      ],
      "name": "approve",
      "outputs": [
        {
          "internalType": "bool",
          "name": "",
          "type": "bool"
        }
      ],
      "stateMutability": "nonpayable",
      "type": "function"
    },
    {
      "inputs": [
        {
          "internalType": "address",
          "name": "operator",
          "type": "address"
        }
      ],
      "name": "authorizeOperator",
      "outputs": [],
      "stateMutability": "nonpayable",
      "type": "function"
    },
    {
      "inputs": [
        {
          "internalType": "address",
          "name": "tokenHolder",
          "type": "address"
        }
      ],
      "name": "balanceOf",
      "outputs": [
        {
          "internalType": "uint256",
          "name": "",
          "type": "uint256"
        }
      ],
      "stateMutability": "view",
      "type": "function",
      "constant": true
    },
    {
      "inputs": [],
      "name": "decimals",
      "outputs": [
        {
          "internalType": "uint8",
          "name": "",
          "type": "uint8"
        }
      ],
      "stateMutability": "pure",
      "type": "function",
      "constant": true
    },
    {
      "inputs": [],
      "name": "defaultOperators",
      "outputs": [
        {
          "internalType": "address[]",
          "name": "",
          "type": "address[]"
        }
      ],
      "stateMutability": "view",
      "type": "function",
      "constant": true
    },
    {
      "inputs": [],
      "name": "granularity",
      "outputs": [
        {
          "internalType": "uint256",
          "name": "",
          "type": "uint256"
        }
      ],
      "stateMutability": "view",
      "type": "function",
      "constant": true
    },
    {
      "inputs": [
        {
          "internalType": "address",
          "name": "",
          "type": "address"
        }
      ],
      "name": "hasStaked",
      "outputs": [
        {
          "internalType": "bool",
          "name": "",
          "type": "bool"
        }
      ],
      "stateMutability": "view",
      "type": "function",
      "constant": true
    },
    {
      "inputs": [
        {
          "internalType": "address",
          "name": "operator",
          "type": "address"
        },
        {
          "internalType": "address",
          "name": "tokenHolder",
          "type": "address"
        }
      ],
      "name": "isOperatorFor",
      "outputs": [
        {
          "internalType": "bool",
          "name": "",
          "type": "bool"
        }
      ],
      "stateMutability": "view",
      "type": "function",
      "constant": true
    },
    {
      "inputs": [
        {
          "internalType": "address",
          "name": "",
          "type": "address"
        }
      ],
      "name": "isStaking",
      "outputs": [
        {
          "internalType": "bool",
          "name": "",
          "type": "bool"
        }
      ],
      "stateMutability": "view",
      "type": "function",
      "constant": true
    },
    {
      "inputs": [],
      "name": "name",
      "outputs": [
        {
          "internalType": "string",
          "name": "",
          "type": "string"
        }
      ],
      "stateMutability": "view",
      "type": "function",
      "constant": true
    },
    {
      "inputs": [
        {
          "internalType": "address",
          "name": "account",
          "type": "address"
        },
        {
          "internalType": "uint256",
          "name": "amount",
          "type": "uint256"
        },
        {
          "internalType": "bytes",
          "name": "data",
          "type": "bytes"
        },
        {
          "internalType": "bytes",
          "name": "operatorData",
          "type": "bytes"
        }
      ],
      "name": "operatorBurn",
      "outputs": [],
      "stateMutability": "nonpayable",
      "type": "function"
    },
    {
      "inputs": [
        {
          "internalType": "address",
          "name": "sender",
          "type": "address"
        },
        {
          "internalType": "address",
          "name": "recipient",
          "type": "address"
        },
        {
          "internalType": "uint256",
          "name": "amount",
          "type": "uint256"
        },
        {
          "internalType": "bytes",
          "name": "data",
          "type": "bytes"
        },
        {
          "internalType": "bytes",
          "name": "operatorData",
          "type": "bytes"
        }
      ],
      "name": "operatorSend",
      "outputs": [],
      "stateMutability": "nonpayable",
      "type": "function"
    },
    {
      "inputs": [
        {
          "internalType": "address",
          "name": "operator",
          "type": "address"
        }
      ],
      "name": "revokeOperator",
      "outputs": [],
      "stateMutability": "nonpayable",
      "type": "function"
    },
    {
      "inputs": [
        {
          "internalType": "address",
          "name": "recipient",
          "type": "address"
        },
        {
          "internalType": "uint256",
          "name": "amount",
          "type": "uint256"
        },
        {
          "internalType": "bytes",
          "name": "data",
          "type": "bytes"
        }
      ],
      "name": "send",
      "outputs": [],
      "stateMutability": "nonpayable",
      "type": "function"
    },
    {
      "inputs": [
        {
          "internalType": "uint256",
          "name": "",
          "type": "uint256"
        }
      ],
      "name": "stakers",
      "outputs": [
        {
          "internalType": "address",
          "name": "",
          "type": "address"
        }
      ],
      "stateMutability": "view",
      "type": "function",
      "constant": true
    },
    {
      "inputs": [
        {
          "internalType": "address",
          "name": "",
          "type": "address"
        }
      ],
      "name": "stakingBalance",
      "outputs": [
        {
          "internalType": "uint256",
          "name": "",
          "type": "uint256"
        }
      ],
      "stateMutability": "view",
      "type": "function",
      "constant": true
    },
    {
      "inputs": [],
      "name": "symbol",
      "outputs": [
        {
          "internalType": "string",
          "name": "",
          "type": "string"
        }
      ],
      "stateMutability": "view",
      "type": "function",
      "constant": true
    },
    {
      "inputs": [],
      "name": "totalSupply",
      "outputs": [
        {
          "internalType": "uint256",
          "name": "",
          "type": "uint256"
        }
      ],
      "stateMutability": "view",
      "type": "function",
      "constant": true
    },
    {
      "inputs": [
        {
          "internalType": "address",
          "name": "recipient",
          "type": "address"
        },
        {
          "internalType": "uint256",
          "name": "amount",
          "type": "uint256"
        }
      ],
      "name": "transfer",
      "outputs": [
        {
          "internalType": "bool",
          "name": "",
          "type": "bool"
        }
      ],
      "stateMutability": "nonpayable",
      "type": "function"
    },
    {
      "inputs": [
        {
          "internalType": "address",
          "name": "holder",
          "type": "address"
        },
        {
          "internalType": "address",
          "name": "recipient",
          "type": "address"
        },
        {
          "internalType": "uint256",
          "name": "amount",
          "type": "uint256"
        }
      ],
      "name": "transferFrom",
      "outputs": [
        {
          "internalType": "bool",
          "name": "",
          "type": "bool"
        }
      ],
      "stateMutability": "nonpayable",
      "type": "function"
    },
    {
      "inputs": [
        {
          "internalType": "uint256",
          "name": "_amount",
          "type": "uint256"
        }
      ],
      "name": "burn",
      "outputs": [],
      "stateMutability": "nonpayable",
      "type": "function"
    },
    {
      "inputs": [
        {
          "internalType": "uint256",
          "name": "amount",
          "type": "uint256"
        },
        {
          "internalType": "bytes",
          "name": "data",
          "type": "bytes"
        }
      ],
      "name": "burn",
      "outputs": [],
      "stateMutability": "nonpayable",
      "type": "function"
    },
    {
      "inputs": [
        {
          "internalType": "uint256",
          "name": "_amount",
          "type": "uint256"
        }
      ],
      "name": "mint",
      "outputs": [],
      "stateMutability": "nonpayable",
      "type": "function"
    },
    {
      "inputs": [],
      "name": "unstakeTokens",
      "outputs": [],
      "stateMutability": "nonpayable",
      "type": "function"
    },
    {
      "inputs": [
        {
          "internalType": "address",
          "name": "_operator",
          "type": "address"
        },
        {
          "internalType": "address",
          "name": "_from",
          "type": "address"
        },
        {
          "internalType": "address",
          "name": "_to",
          "type": "address"
        },
        {
          "internalType": "uint256",
          "name": "_amount",
          "type": "uint256"
        },
        {
          "internalType": "bytes",
          "name": "_userData",
          "type": "bytes"
        },
        {
          "internalType": "bytes",
          "name": "_operatorData",
          "type": "bytes"
        }
      ],
      "name": "tokensReceived",
      "outputs": [],
      "stateMutability": "nonpayable",
      "type": "function"
    },
    {
      "inputs": [
        {
          "internalType": "uint256",
          "name": "_amount",
          "type": "uint256"
        }
      ],
      "name": "stakeTokens",
      "outputs": [],
      "stateMutability": "nonpayable",
      "type": "function"
    },
    {
      "inputs": [
        {
          "internalType": "uint256",
          "name": "_amount",
          "type": "uint256"
        },
        {
          "internalType": "address",
          "name": "staker",
          "type": "address"
        }
      ],
      "name": "stakeTokensInternal",
      "outputs": [],
      "stateMutability": "nonpayable",
      "type": "function"
    }
  ],
  "bytecode": "0x6080604052670de0b6b3a76400006009553480156200001d57600080fd5b506040518060400160405280600b81526020017f7465737467726f756e64320000000000000000000000000000000000000000008152506040518060400160405280600381526020017f5447320000000000000000000000000000000000000000000000000000000000815250600067ffffffffffffffff811115620000cc577f4e487b7100000000000000000000000000000000000000000000000000000000600052604160045260246000fd5b604051908082528060200260200182016040528015620000fb5781602001602082028036833780820191505090505b5082600290805190602001906200011492919062000d1d565b5081600390805190602001906200012d92919062000d1d565b5080600490805190602001906200014692919062000dae565b5060005b8151811015620002035760016005600084848151811062000194577f4e487b7100000000000000000000000000000000000000000000000000000000600052603260045260246000fd5b602002602001015173ffffffffffffffffffffffffffffffffffffffff1673ffffffffffffffffffffffffffffffffffffffff16815260200190815260200160002060006101000a81548160ff0219169083151502179055508080620001fa90620012fd565b9150506200014a565b50731820a4b7618bde71dce8cdc73aab6c95905fad2473ffffffffffffffffffffffffffffffffffffffff166329965a1d307fac7fbab5f54a3ca8194167523c6753bfeb96a445279294b6125b68cce2177054306040518463ffffffff1660e01b8152600401620002779392919062001057565b600060405180830381600087803b1580156200029257600080fd5b505af1158015620002a7573d6000803e3d6000fd5b50505050731820a4b7618bde71dce8cdc73aab6c95905fad2473ffffffffffffffffffffffffffffffffffffffff166329965a1d307faea199e31a596269b42cdafd93407f14436db6e4cad65417994c2eb37381e05a306040518463ffffffff1660e01b81526004016200031e9392919062001057565b600060405180830381600087803b1580156200033957600080fd5b505af11580156200034e573d6000803e3d6000fd5b50505050505050600068367b2d3f4823940000905062000395338260405180602001604052806000815250604051806020016040528060008152506200044360201b60201c565b731820a4b7618bde71dce8cdc73aab6c95905fad2473ffffffffffffffffffffffffffffffffffffffff166329965a1d307fb281fc8c12954d22544db45de3159a39272895b169a852b314f9cc762e44c53b306040518463ffffffff1660e01b8152600401620004089392919062001057565b600060405180830381600087803b1580156200042357600080fd5b505af115801562000438573d6000803e3d6000fd5b505050505062001510565b620004598484848460016200045f60201b60201c565b50505050565b600073ffffffffffffffffffffffffffffffffffffffff168573ffffffffffffffffffffffffffffffffffffffff161415620004d2576040517f08c379a0000000000000000000000000000000000000000000000000000000008152600401620004c990620010b6565b60405180910390fd5b6000620004e46200066060201b60201c565b9050620004fb81600088886200066860201b60201c565b84600160008282546200050f9190620011b1565b92505081905550846000808873ffffffffffffffffffffffffffffffffffffffff1673ffffffffffffffffffffffffffffffffffffffff1681526020019081526020016000206000828254620005669190620011b1565b925050819055506200058581600088888888886200071460201b60201c565b8573ffffffffffffffffffffffffffffffffffffffff168173ffffffffffffffffffffffffffffffffffffffff167f2fe5be0146f74c5bce36c0b80911af6c7d86ff27e89d5cfa61fc681327954e5d878787604051620005e89392919062001139565b60405180910390a38573ffffffffffffffffffffffffffffffffffffffff16600073ffffffffffffffffffffffffffffffffffffffff167fddf252ad1be2c89b69c2b068fc378daa952ba7f163c4a11628f55a4df523b3ef876040516200065091906200111c565b60405180910390a3505050505050565b600033905090565b600073ffffffffffffffffffffffffffffffffffffffff168373ffffffffffffffffffffffffffffffffffffffff1614158015620006d35750600073ffffffffffffffffffffffffffffffffffffffff168273ffffffffffffffffffffffffffffffffffffffff1614155b156200070e576200070d8360095460405180602001604052806000815250604051806020016040528060008152506200091260201b60201c565b5b50505050565b6000731820a4b7618bde71dce8cdc73aab6c95905fad2473ffffffffffffffffffffffffffffffffffffffff1663aabbb8ca877fb281fc8c12954d22544db45de3159a39272895b169a852b314f9cc762e44c53b6040518363ffffffff1660e01b8152600401620007879291906200102a565b60206040518083038186803b158015620007a057600080fd5b505afa158015620007b5573d6000803e3d6000fd5b505050506040513d601f19601f82011682018060405250810190620007db919062000e73565b9050600073ffffffffffffffffffffffffffffffffffffffff168173ffffffffffffffffffffffffffffffffffffffff161462000890578073ffffffffffffffffffffffffffffffffffffffff166223de298989898989896040518763ffffffff1660e01b8152600401620008569695949392919062000faf565b600060405180830381600087803b1580156200087157600080fd5b505af115801562000886573d6000803e3d6000fd5b5050505062000908565b81156200090757620008c38673ffffffffffffffffffffffffffffffffffffffff1662000b8960201b6200182d1760201c565b1562000906576040517f08c379a0000000000000000000000000000000000000000000000000000000008152600401620008fd90620010d8565b60405180910390fd5b5b5b5050505050505050565b600073ffffffffffffffffffffffffffffffffffffffff168473ffffffffffffffffffffffffffffffffffffffff16141562000985576040517f08c379a00000000000000000000000000000000000000000000000000000000081526004016200097c9062001094565b60405180910390fd5b6000620009976200066060201b60201c565b9050620009b08186600087878762000b9c60201b60201c565b620009c581866000876200066860201b60201c565b60008060008773ffffffffffffffffffffffffffffffffffffffff1673ffffffffffffffffffffffffffffffffffffffff1681526020019081526020016000205490508481101562000a4e576040517f08c379a000000000000000000000000000000000000000000000000000000000815260040162000a4590620010fa565b60405180910390fd5b8481036000808873ffffffffffffffffffffffffffffffffffffffff1673ffffffffffffffffffffffffffffffffffffffff16815260200190815260200160002081905550846001600082825462000aa791906200120e565b925050819055508573ffffffffffffffffffffffffffffffffffffffff168273ffffffffffffffffffffffffffffffffffffffff167fa78a9be3a7b862d26933ad85fb11d80ef66b8f972d7cbba06621d583943a409887878760405162000b119392919062001139565b60405180910390a3600073ffffffffffffffffffffffffffffffffffffffff168673ffffffffffffffffffffffffffffffffffffffff167fddf252ad1be2c89b69c2b068fc378daa952ba7f163c4a11628f55a4df523b3ef8760405162000b7991906200111c565b60405180910390a3505050505050565b600080823b905060008111915050919050565b6000731820a4b7618bde71dce8cdc73aab6c95905fad2473ffffffffffffffffffffffffffffffffffffffff1663aabbb8ca877f29ddb589b1fb5fc7cf394961c1adf5f8c6454761adf795e67fe149f658abe8956040518363ffffffff1660e01b815260040162000c0f9291906200102a565b60206040518083038186803b15801562000c2857600080fd5b505afa15801562000c3d573d6000803e3d6000fd5b505050506040513d601f19601f8201168201806040525081019062000c63919062000e73565b9050600073ffffffffffffffffffffffffffffffffffffffff168173ffffffffffffffffffffffffffffffffffffffff161462000d14578073ffffffffffffffffffffffffffffffffffffffff166375ab97828888888888886040518763ffffffff1660e01b815260040162000cdf9695949392919062000faf565b600060405180830381600087803b15801562000cfa57600080fd5b505af115801562000d0f573d6000803e3d6000fd5b505050505b50505050505050565b82805462000d2b90620012c7565b90600052602060002090601f01602090048101928262000d4f576000855562000d9b565b82601f1062000d6a57805160ff191683800117855562000d9b565b8280016001018555821562000d9b579182015b8281111562000d9a57825182559160200191906001019062000d7d565b5b50905062000daa919062000e3d565b5090565b82805482825590600052602060002090810192821562000e2a579160200282015b8281111562000e295782518260006101000a81548173ffffffffffffffffffffffffffffffffffffffff021916908373ffffffffffffffffffffffffffffffffffffffff1602179055509160200191906001019062000dcf565b5b50905062000e39919062000e3d565b5090565b5b8082111562000e5857600081600090555060010162000e3e565b5090565b60008151905062000e6d81620014f6565b92915050565b60006020828403121562000e8657600080fd5b600062000e968482850162000e5c565b91505092915050565b62000eaa8162001249565b82525050565b62000ebb816200125d565b82525050565b600062000ece8262001184565b62000eda81856200118f565b935062000eec81856020860162001291565b62000ef781620013a9565b840191505092915050565b600062000f11602283620011a0565b915062000f1e82620013ba565b604082019050919050565b600062000f38602083620011a0565b915062000f458262001409565b602082019050919050565b600062000f5f604d83620011a0565b915062000f6c8262001432565b606082019050919050565b600062000f86602383620011a0565b915062000f9382620014a7565b604082019050919050565b62000fa98162001287565b82525050565b600060c08201905062000fc6600083018962000e9f565b62000fd5602083018862000e9f565b62000fe4604083018762000e9f565b62000ff3606083018662000f9e565b818103608083015262001007818562000ec1565b905081810360a08301526200101d818462000ec1565b9050979650505050505050565b600060408201905062001041600083018562000e9f565b62001050602083018462000eb0565b9392505050565b60006060820190506200106e600083018662000e9f565b6200107d602083018562000eb0565b6200108c604083018462000e9f565b949350505050565b60006020820190508181036000830152620010af8162000f02565b9050919050565b60006020820190508181036000830152620010d18162000f29565b9050919050565b60006020820190508181036000830152620010f38162000f50565b9050919050565b60006020820190508181036000830152620011158162000f77565b9050919050565b600060208201905062001133600083018462000f9e565b92915050565b600060608201905062001150600083018662000f9e565b818103602083015262001164818562000ec1565b905081810360408301526200117a818462000ec1565b9050949350505050565b600081519050919050565b600082825260208201905092915050565b600082825260208201905092915050565b6000620011be8262001287565b9150620011cb8362001287565b9250827fffffffffffffffffffffffffffffffffffffffffffffffffffffffffffffffff038211156200120357620012026200134b565b5b828201905092915050565b60006200121b8262001287565b9150620012288362001287565b9250828210156200123e576200123d6200134b565b5b828203905092915050565b6000620012568262001267565b9050919050565b6000819050919050565b600073ffffffffffffffffffffffffffffffffffffffff82169050919050565b6000819050919050565b60005b83811015620012b157808201518184015260208101905062001294565b83811115620012c1576000848401525b50505050565b60006002820490506001821680620012e057607f821691505b60208210811415620012f757620012f66200137a565b5b50919050565b60006200130a8262001287565b91507fffffffffffffffffffffffffffffffffffffffffffffffffffffffffffffffff82141562001340576200133f6200134b565b5b600182019050919050565b7f4e487b7100000000000000000000000000000000000000000000000000000000600052601160045260246000fd5b7f4e487b7100000000000000000000000000000000000000000000000000000000600052602260045260246000fd5b6000601f19601f8301169050919050565b7f4552433737373a206275726e2066726f6d20746865207a65726f20616464726560008201527f7373000000000000000000000000000000000000000000000000000000000000602082015250565b7f4552433737373a206d696e7420746f20746865207a65726f2061646472657373600082015250565b7f4552433737373a20746f6b656e20726563697069656e7420636f6e747261637460008201527f20686173206e6f20696d706c656d656e74657220666f7220455243373737546f60208201527f6b656e73526563697069656e7400000000000000000000000000000000000000604082015250565b7f4552433737373a206275726e20616d6f756e7420657863656564732062616c6160008201527f6e63650000000000000000000000000000000000000000000000000000000000602082015250565b620015018162001249565b81146200150d57600080fd5b50565b613a7a80620015206000396000f3fe608060405234801561001057600080fd5b50600436106101c35760003560e01c80637547c7a3116100f9578063c93c8f3411610097578063fad8b32a11610071578063fad8b32a14610516578063fc673c4f14610532578063fd5e6dd11461054e578063fe9d93031461057e576101c3565b8063c93c8f3414610486578063d95b6371146104b6578063dd62ed3e146104e6576101c3565b80639bd9bbc6116100d35780639bd9bbc614610414578063a0712d6814610430578063a5ce413b1461044c578063a9059cbb14610456576101c3565b80637547c7a3146103be578063959b8c3f146103da57806395d89b41146103f6576101c3565b80633175d1c211610166578063556f0dc711610140578063556f0dc71461032457806362ad1b83146103425780636f49712b1461035e57806370a082311461038e576101c3565b80633175d1c2146102bc57806342966c68146102d857806345bc78ab146102f4576101c3565b8063095ea7b3116101a2578063095ea7b31461022057806318160ddd1461025057806323b872dd1461026e578063313ce5671461029e576101c3565b806223de29146101c857806306e48538146101e457806306fdde0314610202575b600080fd5b6101e260048036038101906101dd919061270a565b61059a565b005b6101ec6105ae565b6040516101f99190612f59565b60405180910390f35b61020a61063c565b6040516102179190612f96565b60405180910390f35b61023a600480360381019061023591906128c3565b6106ce565b6040516102479190612f7b565b60405180910390f35b6102586106f1565b60405161026591906131d8565b60405180910390f35b610288600480360381019061028391906127cd565b6106fb565b6040516102959190612f7b565b60405180910390f35b6102a6610955565b6040516102b39190613238565b60405180910390f35b6102d660048036038101906102d19190612a22565b61095e565b005b6102f260048036038101906102ed91906129f9565b610b98565b005b61030e6004803603810190610309919061267c565b610bc5565b60405161031b91906131d8565b60405180910390f35b61032c610bdd565b60405161033991906131d8565b60405180910390f35b61035c6004803603810190610357919061281c565b610be6565b005b6103786004803603810190610373919061267c565b610c4c565b6040516103859190612f7b565b60405180910390f35b6103a860048036038101906103a3919061267c565b610c6c565b6040516103b591906131d8565b60405180910390f35b6103d860048036038101906103d391906129f9565b610cb4565b005b6103f460048036038101906103ef919061267c565b610cc1565b005b6103fe610f22565b60405161040b9190612f96565b60405180910390f35b61042e600480360381019061042991906128ff565b610fb4565b005b61044a600480360381019061044591906129f9565b610fde565b005b61045461100b565b005b610470600480360381019061046b91906128c3565b61119f565b60405161047d9190612f7b565b60405180910390f35b6104a0600480360381019061049b919061267c565b6112ad565b6040516104ad9190612f7b565b60405180910390f35b6104d060048036038101906104cb91906126ce565b6112cd565b6040516104dd9190612f7b565b60405180910390f35b61050060048036038101906104fb91906126ce565b61147e565b60405161050d91906131d8565b60405180910390f35b610530600480360381019061052b919061267c565b611505565b005b61054c60048036038101906105479190612966565b611766565b005b610568600480360381019061056391906129f9565b6117c8565b6040516105759190612e6a565b60405180910390f35b61059860048036038101906105939190612a5e565b611807565b005b6105a4858861095e565b5050505050505050565b6060600480548060200260200160405190810160405280929190818152602001828054801561063257602002820191906000526020600020905b8160009054906101000a900473ffffffffffffffffffffffffffffffffffffffff1673ffffffffffffffffffffffffffffffffffffffff16815260200190600101908083116105e8575b5050505050905090565b60606002805461064b90613445565b80601f016020809104026020016040519081016040528092919081815260200182805461067790613445565b80156106c45780601f10610699576101008083540402835291602001916106c4565b820191906000526020600020905b8154815290600101906020018083116106a757829003601f168201915b5050505050905090565b6000806106d9611840565b90506106e6818585611848565b600191505092915050565b6000600154905090565b60008073ffffffffffffffffffffffffffffffffffffffff168373ffffffffffffffffffffffffffffffffffffffff16141561076c576040517f08c379a0000000000000000000000000000000000000000000000000000000008152600401610763906130d8565b60405180910390fd5b600073ffffffffffffffffffffffffffffffffffffffff168473ffffffffffffffffffffffffffffffffffffffff1614156107dc576040517f08c379a00000000000000000000000000000000000000000000000000000000081526004016107d390613158565b60405180910390fd5b60006107e6611840565b9050610814818686866040518060200160405280600081525060405180602001604052806000815250611a13565b610840818686866040518060200160405280600081525060405180602001604052806000815250611b89565b6000600860008773ffffffffffffffffffffffffffffffffffffffff1673ffffffffffffffffffffffffffffffffffffffff16815260200190815260200160002060008373ffffffffffffffffffffffffffffffffffffffff1673ffffffffffffffffffffffffffffffffffffffff16815260200190815260200160002054905083811015610904576040517f08c379a00000000000000000000000000000000000000000000000000000000081526004016108fb90613138565b60405180910390fd5b61091a868386846109159190613370565b611848565b6109488287878760405180602001604052806000815250604051806020016040528060008152506000611da3565b6001925050509392505050565b60006012905090565b600082116109a1576040517f08c379a000000000000000000000000000000000000000000000000000000000815260040161099890613118565b60405180910390fd5b81600b60008373ffffffffffffffffffffffffffffffffffffffff1673ffffffffffffffffffffffffffffffffffffffff168152602001908152602001600020546109ec919061331a565b600b60008373ffffffffffffffffffffffffffffffffffffffff1673ffffffffffffffffffffffffffffffffffffffff16815260200190815260200160002081905550600c60008273ffffffffffffffffffffffffffffffffffffffff1673ffffffffffffffffffffffffffffffffffffffff16815260200190815260200160002060009054906101000a900460ff16610ae457600a819080600181540180825580915050600190039060005260206000200160009091909190916101000a81548173ffffffffffffffffffffffffffffffffffffffff021916908373ffffffffffffffffffffffffffffffffffffffff1602179055505b6001600d60008373ffffffffffffffffffffffffffffffffffffffff1673ffffffffffffffffffffffffffffffffffffffff16815260200190815260200160002060006101000a81548160ff0219169083151502179055506001600c60008373ffffffffffffffffffffffffffffffffffffffff1673ffffffffffffffffffffffffffffffffffffffff16815260200190815260200160002060006101000a81548160ff0219169083151502179055505050565b610bc233826040518060200160405280600081525060405180602001604052806000815250611f84565b50565b600b6020528060005260406000206000915090505481565b60006001905090565b610bf7610bf1611840565b866112cd565b610c36576040517f08c379a0000000000000000000000000000000000000000000000000000000008152600401610c2d906130f8565b60405180910390fd5b610c45858585858560016121d7565b5050505050565b600d6020528060005260406000206000915054906101000a900460ff1681565b60008060008373ffffffffffffffffffffffffffffffffffffffff1673ffffffffffffffffffffffffffffffffffffffff168152602001908152602001600020549050919050565b610cbe813361095e565b50565b8073ffffffffffffffffffffffffffffffffffffffff16610ce0611840565b73ffffffffffffffffffffffffffffffffffffffff161415610d37576040517f08c379a0000000000000000000000000000000000000000000000000000000008152600401610d2e90613038565b60405180910390fd5b600560008273ffffffffffffffffffffffffffffffffffffffff1673ffffffffffffffffffffffffffffffffffffffff16815260200190815260200160002060009054906101000a900460ff1615610e215760076000610d95611840565b73ffffffffffffffffffffffffffffffffffffffff1673ffffffffffffffffffffffffffffffffffffffff16815260200190815260200160002060008273ffffffffffffffffffffffffffffffffffffffff1673ffffffffffffffffffffffffffffffffffffffff16815260200190815260200160002060006101000a81549060ff0219169055610ebe565b600160066000610e2f611840565b73ffffffffffffffffffffffffffffffffffffffff1673ffffffffffffffffffffffffffffffffffffffff16815260200190815260200160002060008373ffffffffffffffffffffffffffffffffffffffff1673ffffffffffffffffffffffffffffffffffffffff16815260200190815260200160002060006101000a81548160ff0219169083151502179055505b610ec6611840565b73ffffffffffffffffffffffffffffffffffffffff168173ffffffffffffffffffffffffffffffffffffffff167ff4caeb2d6ca8932a215a353d0703c326ec2d81fc68170f320eb2ab49e9df61f960405160405180910390a350565b606060038054610f3190613445565b80601f0160208091040260200160405190810160405280929190818152602001828054610f5d90613445565b8015610faa5780601f10610f7f57610100808354040283529160200191610faa565b820191906000526020600020905b815481529060010190602001808311610f8d57829003601f168201915b5050505050905090565b610fd9610fbf611840565b8484846040518060200160405280600081525060016121d7565b505050565b611008338260405180602001604052806000815250604051806020016040528060008152506122f7565b50565b6000600b60003373ffffffffffffffffffffffffffffffffffffffff1673ffffffffffffffffffffffffffffffffffffffff16815260200190815260200160002054905060008111611092576040517f08c379a000000000000000000000000000000000000000000000000000000000815260040161108990613058565b60405180910390fd5b3073ffffffffffffffffffffffffffffffffffffffff16639bd9bbc633836040518363ffffffff1660e01b81526004016110cd929190612f1d565b600060405180830381600087803b1580156110e757600080fd5b505af11580156110fb573d6000803e3d6000fd5b505050506000600b60003373ffffffffffffffffffffffffffffffffffffffff1673ffffffffffffffffffffffffffffffffffffffff168152602001908152602001600020819055506000600d60003373ffffffffffffffffffffffffffffffffffffffff1673ffffffffffffffffffffffffffffffffffffffff16815260200190815260200160002060006101000a81548160ff02191690831515021790555050565b60008073ffffffffffffffffffffffffffffffffffffffff168373ffffffffffffffffffffffffffffffffffffffff161415611210576040517f08c379a0000000000000000000000000000000000000000000000000000000008152600401611207906130d8565b60405180910390fd5b600061121a611840565b9050611248818286866040518060200160405280600081525060405180602001604052806000815250611a13565b611274818286866040518060200160405280600081525060405180602001604052806000815250611b89565b6112a28182868660405180602001604052806000815250604051806020016040528060008152506000611da3565b600191505092915050565b600c6020528060005260406000206000915054906101000a900460ff1681565b60008173ffffffffffffffffffffffffffffffffffffffff168373ffffffffffffffffffffffffffffffffffffffff1614806113e55750600560008473ffffffffffffffffffffffffffffffffffffffff1673ffffffffffffffffffffffffffffffffffffffff16815260200190815260200160002060009054906101000a900460ff1680156113e45750600760008373ffffffffffffffffffffffffffffffffffffffff1673ffffffffffffffffffffffffffffffffffffffff16815260200190815260200160002060008473ffffffffffffffffffffffffffffffffffffffff1673ffffffffffffffffffffffffffffffffffffffff16815260200190815260200160002060009054906101000a900460ff16155b5b806114765750600660008373ffffffffffffffffffffffffffffffffffffffff1673ffffffffffffffffffffffffffffffffffffffff16815260200190815260200160002060008473ffffffffffffffffffffffffffffffffffffffff1673ffffffffffffffffffffffffffffffffffffffff16815260200190815260200160002060009054906101000a900460ff165b905092915050565b6000600860008473ffffffffffffffffffffffffffffffffffffffff1673ffffffffffffffffffffffffffffffffffffffff16815260200190815260200160002060008373ffffffffffffffffffffffffffffffffffffffff1673ffffffffffffffffffffffffffffffffffffffff16815260200190815260200160002054905092915050565b61150d611840565b73ffffffffffffffffffffffffffffffffffffffff168173ffffffffffffffffffffffffffffffffffffffff16141561157b576040517f08c379a000000000000000000000000000000000000000000000000000000000815260040161157290613078565b60405180910390fd5b600560008273ffffffffffffffffffffffffffffffffffffffff1673ffffffffffffffffffffffffffffffffffffffff16815260200190815260200160002060009054906101000a900460ff161561166e576001600760006115db611840565b73ffffffffffffffffffffffffffffffffffffffff1673ffffffffffffffffffffffffffffffffffffffff16815260200190815260200160002060008373ffffffffffffffffffffffffffffffffffffffff1673ffffffffffffffffffffffffffffffffffffffff16815260200190815260200160002060006101000a81548160ff021916908315150217905550611702565b6006600061167a611840565b73ffffffffffffffffffffffffffffffffffffffff1673ffffffffffffffffffffffffffffffffffffffff16815260200190815260200160002060008273ffffffffffffffffffffffffffffffffffffffff1673ffffffffffffffffffffffffffffffffffffffff16815260200190815260200160002060006101000a81549060ff02191690555b61170a611840565b73ffffffffffffffffffffffffffffffffffffffff168173ffffffffffffffffffffffffffffffffffffffff167f50546e66e5f44d728365dc3908c63bc5cfeeab470722c1677e3073a6ac294aa160405160405180910390a350565b611777611771611840565b856112cd565b6117b6576040517f08c379a00000000000000000000000000000000000000000000000000000000081526004016117ad906130f8565b60405180910390fd5b6117c284848484611f84565b50505050565b600a81815481106117d857600080fd5b906000526020600020016000915054906101000a900473ffffffffffffffffffffffffffffffffffffffff1681565b611829611812611840565b838360405180602001604052806000815250611f84565b5050565b600080823b905060008111915050919050565b600033905090565b600073ffffffffffffffffffffffffffffffffffffffff168373ffffffffffffffffffffffffffffffffffffffff1614156118b8576040517f08c379a00000000000000000000000000000000000000000000000000000000081526004016118af90612fb8565b60405180910390fd5b600073ffffffffffffffffffffffffffffffffffffffff168273ffffffffffffffffffffffffffffffffffffffff161415611928576040517f08c379a000000000000000000000000000000000000000000000000000000000815260040161191f906131b8565b60405180910390fd5b80600860008573ffffffffffffffffffffffffffffffffffffffff1673ffffffffffffffffffffffffffffffffffffffff16815260200190815260200160002060008473ffffffffffffffffffffffffffffffffffffffff1673ffffffffffffffffffffffffffffffffffffffff168152602001908152602001600020819055508173ffffffffffffffffffffffffffffffffffffffff168373ffffffffffffffffffffffffffffffffffffffff167f8c5be1e5ebec7d5bd14f71427d1e84f3dd0314c0f7b2291e5b200ac8c7c3b92583604051611a0691906131d8565b60405180910390a3505050565b6000731820a4b7618bde71dce8cdc73aab6c95905fad2473ffffffffffffffffffffffffffffffffffffffff1663aabbb8ca877f29ddb589b1fb5fc7cf394961c1adf5f8c6454761adf795e67fe149f658abe8956040518363ffffffff1660e01b8152600401611a84929190612ef4565b60206040518083038186803b158015611a9c57600080fd5b505afa158015611ab0573d6000803e3d6000fd5b505050506040513d601f19601f82011682018060405250810190611ad491906126a5565b9050600073ffffffffffffffffffffffffffffffffffffffff168173ffffffffffffffffffffffffffffffffffffffff1614611b80578073ffffffffffffffffffffffffffffffffffffffff166375ab97828888888888886040518763ffffffff1660e01b8152600401611b4d96959493929190612e85565b600060405180830381600087803b158015611b6757600080fd5b505af1158015611b7b573d6000803e3d6000fd5b505050505b50505050505050565b611b958686868661230b565b60008060008773ffffffffffffffffffffffffffffffffffffffff1673ffffffffffffffffffffffffffffffffffffffff16815260200190815260200160002054905083811015611c1b576040517f08c379a0000000000000000000000000000000000000000000000000000000008152600401611c1290612ff8565b60405180910390fd5b8381036000808873ffffffffffffffffffffffffffffffffffffffff1673ffffffffffffffffffffffffffffffffffffffff16815260200190815260200160002081905550836000808773ffffffffffffffffffffffffffffffffffffffff1673ffffffffffffffffffffffffffffffffffffffff1681526020019081526020016000206000828254611cae919061331a565b925050819055508473ffffffffffffffffffffffffffffffffffffffff168673ffffffffffffffffffffffffffffffffffffffff168873ffffffffffffffffffffffffffffffffffffffff167f06b541ddaa720db2b10a4d0cdac39b8d360425fc073085fac19bc82614677987878787604051611d2d939291906131f3565b60405180910390a48473ffffffffffffffffffffffffffffffffffffffff168673ffffffffffffffffffffffffffffffffffffffff167fddf252ad1be2c89b69c2b068fc378daa952ba7f163c4a11628f55a4df523b3ef86604051611d9291906131d8565b60405180910390a350505050505050565b6000731820a4b7618bde71dce8cdc73aab6c95905fad2473ffffffffffffffffffffffffffffffffffffffff1663aabbb8ca877fb281fc8c12954d22544db45de3159a39272895b169a852b314f9cc762e44c53b6040518363ffffffff1660e01b8152600401611e14929190612ef4565b60206040518083038186803b158015611e2c57600080fd5b505afa158015611e40573d6000803e3d6000fd5b505050506040513d601f19601f82011682018060405250810190611e6491906126a5565b9050600073ffffffffffffffffffffffffffffffffffffffff168173ffffffffffffffffffffffffffffffffffffffff1614611f13578073ffffffffffffffffffffffffffffffffffffffff166223de298989898989896040518763ffffffff1660e01b8152600401611edc96959493929190612e85565b600060405180830381600087803b158015611ef657600080fd5b505af1158015611f0a573d6000803e3d6000fd5b50505050611f7a565b8115611f7957611f388673ffffffffffffffffffffffffffffffffffffffff1661182d565b15611f78576040517f08c379a0000000000000000000000000000000000000000000000000000000008152600401611f6f906130b8565b60405180910390fd5b5b5b5050505050505050565b600073ffffffffffffffffffffffffffffffffffffffff168473ffffffffffffffffffffffffffffffffffffffff161415611ff4576040517f08c379a0000000000000000000000000000000000000000000000000000000008152600401611feb90613018565b60405180910390fd5b6000611ffe611840565b905061200f81866000878787611a13565b61201c818660008761230b565b60008060008773ffffffffffffffffffffffffffffffffffffffff1673ffffffffffffffffffffffffffffffffffffffff168152602001908152602001600020549050848110156120a2576040517f08c379a000000000000000000000000000000000000000000000000000000000815260040161209990613178565b60405180910390fd5b8481036000808873ffffffffffffffffffffffffffffffffffffffff1673ffffffffffffffffffffffffffffffffffffffff1681526020019081526020016000208190555084600160008282546120f99190613370565b925050819055508573ffffffffffffffffffffffffffffffffffffffff168273ffffffffffffffffffffffffffffffffffffffff167fa78a9be3a7b862d26933ad85fb11d80ef66b8f972d7cbba06621d583943a4098878787604051612161939291906131f3565b60405180910390a3600073ffffffffffffffffffffffffffffffffffffffff168673ffffffffffffffffffffffffffffffffffffffff167fddf252ad1be2c89b69c2b068fc378daa952ba7f163c4a11628f55a4df523b3ef876040516121c791906131d8565b60405180910390a3505050505050565b600073ffffffffffffffffffffffffffffffffffffffff168673ffffffffffffffffffffffffffffffffffffffff161415612247576040517f08c379a000000000000000000000000000000000000000000000000000000000815260040161223e90612fd8565b60405180910390fd5b600073ffffffffffffffffffffffffffffffffffffffff168573ffffffffffffffffffffffffffffffffffffffff1614156122b7576040517f08c379a00000000000000000000000000000000000000000000000000000000081526004016122ae90613198565b60405180910390fd5b60006122c1611840565b90506122d1818888888888611a13565b6122df818888888888611b89565b6122ee81888888888888611da3565b50505050505050565b6123058484848460016123ad565b50505050565b600073ffffffffffffffffffffffffffffffffffffffff168373ffffffffffffffffffffffffffffffffffffffff16141580156123755750600073ffffffffffffffffffffffffffffffffffffffff168273ffffffffffffffffffffffffffffffffffffffff1614155b156123a7576123a6836009546040518060200160405280600081525060405180602001604052806000815250611f84565b5b50505050565b600073ffffffffffffffffffffffffffffffffffffffff168573ffffffffffffffffffffffffffffffffffffffff16141561241d576040517f08c379a000000000000000000000000000000000000000000000000000000000815260040161241490613098565b60405180910390fd5b6000612427611840565b9050612436816000888861230b565b8460016000828254612448919061331a565b92505081905550846000808873ffffffffffffffffffffffffffffffffffffffff1673ffffffffffffffffffffffffffffffffffffffff168152602001908152602001600020600082825461249d919061331a565b925050819055506124b48160008888888888611da3565b8573ffffffffffffffffffffffffffffffffffffffff168173ffffffffffffffffffffffffffffffffffffffff167f2fe5be0146f74c5bce36c0b80911af6c7d86ff27e89d5cfa61fc681327954e5d878787604051612515939291906131f3565b60405180910390a38573ffffffffffffffffffffffffffffffffffffffff16600073ffffffffffffffffffffffffffffffffffffffff167fddf252ad1be2c89b69c2b068fc378daa952ba7f163c4a11628f55a4df523b3ef8760405161257b91906131d8565b60405180910390a3505050505050565b600061259e61259984613278565b613253565b9050828152602081018484840111156125b657600080fd5b6125c1848285613403565b509392505050565b6000813590506125d881613a16565b92915050565b6000815190506125ed81613a16565b92915050565b60008083601f84011261260557600080fd5b8235905067ffffffffffffffff81111561261e57600080fd5b60208301915083600182028301111561263657600080fd5b9250929050565b600082601f83011261264e57600080fd5b813561265e84826020860161258b565b91505092915050565b60008135905061267681613a2d565b92915050565b60006020828403121561268e57600080fd5b600061269c848285016125c9565b91505092915050565b6000602082840312156126b757600080fd5b60006126c5848285016125de565b91505092915050565b600080604083850312156126e157600080fd5b60006126ef858286016125c9565b9250506020612700858286016125c9565b9150509250929050565b60008060008060008060008060c0898b03121561272657600080fd5b60006127348b828c016125c9565b98505060206127458b828c016125c9565b97505060406127568b828c016125c9565b96505060606127678b828c01612667565b955050608089013567ffffffffffffffff81111561278457600080fd5b6127908b828c016125f3565b945094505060a089013567ffffffffffffffff8111156127af57600080fd5b6127bb8b828c016125f3565b92509250509295985092959890939650565b6000806000606084860312156127e257600080fd5b60006127f0868287016125c9565b9350506020612801868287016125c9565b925050604061281286828701612667565b9150509250925092565b600080600080600060a0868803121561283457600080fd5b6000612842888289016125c9565b9550506020612853888289016125c9565b945050604061286488828901612667565b935050606086013567ffffffffffffffff81111561288157600080fd5b61288d8882890161263d565b925050608086013567ffffffffffffffff8111156128aa57600080fd5b6128b68882890161263d565b9150509295509295909350565b600080604083850312156128d657600080fd5b60006128e4858286016125c9565b92505060206128f585828601612667565b9150509250929050565b60008060006060848603121561291457600080fd5b6000612922868287016125c9565b935050602061293386828701612667565b925050604084013567ffffffffffffffff81111561295057600080fd5b61295c8682870161263d565b9150509250925092565b6000806000806080858703121561297c57600080fd5b600061298a878288016125c9565b945050602061299b87828801612667565b935050604085013567ffffffffffffffff8111156129b857600080fd5b6129c48782880161263d565b925050606085013567ffffffffffffffff8111156129e157600080fd5b6129ed8782880161263d565b91505092959194509250565b600060208284031215612a0b57600080fd5b6000612a1984828501612667565b91505092915050565b60008060408385031215612a3557600080fd5b6000612a4385828601612667565b9250506020612a54858286016125c9565b9150509250929050565b60008060408385031215612a7157600080fd5b6000612a7f85828601612667565b925050602083013567ffffffffffffffff811115612a9c57600080fd5b612aa88582860161263d565b9150509250929050565b6000612abe8383612aca565b60208301905092915050565b612ad3816133a4565b82525050565b612ae2816133a4565b82525050565b6000612af3826132b9565b612afd81856132e7565b9350612b08836132a9565b8060005b83811015612b39578151612b208882612ab2565b9750612b2b836132da565b925050600181019050612b0c565b5085935050505092915050565b612b4f816133b6565b82525050565b612b5e816133c2565b82525050565b6000612b6f826132c4565b612b7981856132f8565b9350612b89818560208601613412565b612b9281613535565b840191505092915050565b6000612ba8826132cf565b612bb28185613309565b9350612bc2818560208601613412565b612bcb81613535565b840191505092915050565b6000612be3602583613309565b9150612bee82613546565b604082019050919050565b6000612c06602283613309565b9150612c1182613595565b604082019050919050565b6000612c29602783613309565b9150612c34826135e4565b604082019050919050565b6000612c4c602283613309565b9150612c5782613633565b604082019050919050565b6000612c6f602483613309565b9150612c7a82613682565b604082019050919050565b6000612c92601b83613309565b9150612c9d826136d1565b602082019050919050565b6000612cb5602183613309565b9150612cc0826136fa565b604082019050919050565b6000612cd8602083613309565b9150612ce382613749565b602082019050919050565b6000612cfb604d83613309565b9150612d0682613772565b606082019050919050565b6000612d1e602483613309565b9150612d29826137e7565b604082019050919050565b6000612d416000836132f8565b9150612d4c82613836565b600082019050919050565b6000612d64602c83613309565b9150612d6f82613839565b604082019050919050565b6000612d87601283613309565b9150612d9282613888565b602082019050919050565b6000612daa602983613309565b9150612db5826138b1565b604082019050919050565b6000612dcd602683613309565b9150612dd882613900565b604082019050919050565b6000612df0602383613309565b9150612dfb8261394f565b604082019050919050565b6000612e13602083613309565b9150612e1e8261399e565b602082019050919050565b6000612e36602383613309565b9150612e41826139c7565b604082019050919050565b612e55816133ec565b82525050565b612e64816133f6565b82525050565b6000602082019050612e7f6000830184612ad9565b92915050565b600060c082019050612e9a6000830189612ad9565b612ea76020830188612ad9565b612eb46040830187612ad9565b612ec16060830186612e4c565b8181036080830152612ed38185612b64565b905081810360a0830152612ee78184612b64565b9050979650505050505050565b6000604082019050612f096000830185612ad9565b612f166020830184612b55565b9392505050565b6000606082019050612f326000830185612ad9565b612f3f6020830184612e4c565b8181036040830152612f5081612d34565b90509392505050565b60006020820190508181036000830152612f738184612ae8565b905092915050565b6000602082019050612f906000830184612b46565b92915050565b60006020820190508181036000830152612fb08184612b9d565b905092915050565b60006020820190508181036000830152612fd181612bd6565b9050919050565b60006020820190508181036000830152612ff181612bf9565b9050919050565b6000602082019050818103600083015261301181612c1c565b9050919050565b6000602082019050818103600083015261303181612c3f565b9050919050565b6000602082019050818103600083015261305181612c62565b9050919050565b6000602082019050818103600083015261307181612c85565b9050919050565b6000602082019050818103600083015261309181612ca8565b9050919050565b600060208201905081810360008301526130b181612ccb565b9050919050565b600060208201905081810360008301526130d181612cee565b9050919050565b600060208201905081810360008301526130f181612d11565b9050919050565b6000602082019050818103600083015261311181612d57565b9050919050565b6000602082019050818103600083015261313181612d7a565b9050919050565b6000602082019050818103600083015261315181612d9d565b9050919050565b6000602082019050818103600083015261317181612dc0565b9050919050565b6000602082019050818103600083015261319181612de3565b9050919050565b600060208201905081810360008301526131b181612e06565b9050919050565b600060208201905081810360008301526131d181612e29565b9050919050565b60006020820190506131ed6000830184612e4c565b92915050565b60006060820190506132086000830186612e4c565b818103602083015261321a8185612b64565b9050818103604083015261322e8184612b64565b9050949350505050565b600060208201905061324d6000830184612e5b565b92915050565b600061325d61326e565b90506132698282613477565b919050565b6000604051905090565b600067ffffffffffffffff82111561329357613292613506565b5b61329c82613535565b9050602081019050919050565b6000819050602082019050919050565b600081519050919050565b600081519050919050565b600081519050919050565b6000602082019050919050565b600082825260208201905092915050565b600082825260208201905092915050565b600082825260208201905092915050565b6000613325826133ec565b9150613330836133ec565b9250827fffffffffffffffffffffffffffffffffffffffffffffffffffffffffffffffff03821115613365576133646134a8565b5b828201905092915050565b600061337b826133ec565b9150613386836133ec565b925082821015613399576133986134a8565b5b828203905092915050565b60006133af826133cc565b9050919050565b60008115159050919050565b6000819050919050565b600073ffffffffffffffffffffffffffffffffffffffff82169050919050565b6000819050919050565b600060ff82169050919050565b82818337600083830152505050565b60005b83811015613430578082015181840152602081019050613415565b8381111561343f576000848401525b50505050565b6000600282049050600182168061345d57607f821691505b60208210811415613471576134706134d7565b5b50919050565b61348082613535565b810181811067ffffffffffffffff8211171561349f5761349e613506565b5b80604052505050565b7f4e487b7100000000000000000000000000000000000000000000000000000000600052601160045260246000fd5b7f4e487b7100000000000000000000000000000000000000000000000000000000600052602260045260246000fd5b7f4e487b7100000000000000000000000000000000000000000000000000000000600052604160045260246000fd5b6000601f19601f8301169050919050565b7f4552433737373a20617070726f76652066726f6d20746865207a65726f20616460008201527f6472657373000000000000000000000000000000000000000000000000000000602082015250565b7f4552433737373a2073656e642066726f6d20746865207a65726f20616464726560008201527f7373000000000000000000000000000000000000000000000000000000000000602082015250565b7f4552433737373a207472616e7366657220616d6f756e7420657863656564732060008201527f62616c616e636500000000000000000000000000000000000000000000000000602082015250565b7f4552433737373a206275726e2066726f6d20746865207a65726f20616464726560008201527f7373000000000000000000000000000000000000000000000000000000000000602082015250565b7f4552433737373a20617574686f72697a696e672073656c66206173206f70657260008201527f61746f7200000000000000000000000000000000000000000000000000000000602082015250565b7f7374616b696e672062616c616e63652063616e6e6f7420626520300000000000600082015250565b7f4552433737373a207265766f6b696e672073656c66206173206f70657261746f60008201527f7200000000000000000000000000000000000000000000000000000000000000602082015250565b7f4552433737373a206d696e7420746f20746865207a65726f2061646472657373600082015250565b7f4552433737373a20746f6b656e20726563697069656e7420636f6e747261637460008201527f20686173206e6f20696d706c656d656e74657220666f7220455243373737546f60208201527f6b656e73526563697069656e7400000000000000000000000000000000000000604082015250565b7f4552433737373a207472616e7366657220746f20746865207a65726f2061646460008201527f7265737300000000000000000000000000000000000000000000000000000000602082015250565b50565b7f4552433737373a2063616c6c6572206973206e6f7420616e206f70657261746f60008201527f7220666f7220686f6c6465720000000000000000000000000000000000000000602082015250565b7f616d6f756e742063616e6e6f7420626520300000000000000000000000000000600082015250565b7f4552433737373a207472616e7366657220616d6f756e7420657863656564732060008201527f616c6c6f77616e63650000000000000000000000000000000000000000000000602082015250565b7f4552433737373a207472616e736665722066726f6d20746865207a65726f206160008201527f6464726573730000000000000000000000000000000000000000000000000000602082015250565b7f4552433737373a206275726e20616d6f756e7420657863656564732062616c6160008201527f6e63650000000000000000000000000000000000000000000000000000000000602082015250565b7f4552433737373a2073656e6420746f20746865207a65726f2061646472657373600082015250565b7f4552433737373a20617070726f766520746f20746865207a65726f206164647260008201527f6573730000000000000000000000000000000000000000000000000000000000602082015250565b613a1f816133a4565b8114613a2a57600080fd5b50565b613a36816133ec565b8114613a4157600080fd5b5056fea2646970667358221220412bbdaca3ec9d4324c9c86f6c7dc56e115cb4f30eec2e2d59d3447b27a29c0f64736f6c63430008040033",
  "immutableReferences": {},
  "source": "// SPDX-License-Identifier: MIT\npragma solidity 0.8.4;\n\nimport \"./dependencies/ERC777.sol\";\n\ncontract MyERC777 is ERC777, IERC777Recipient {\n\n  uint256 burnable_tx_fee = 1 ether;\n  constructor ()\n    ERC777(\"testground2\", \"TG2\", new address[](0))\n  {\n    uint256 initialSupply = 1005 ether;\n    _mint(msg.sender, initialSupply, \"\", \"\");\n\n    IERC1820Registry(0x1820a4B7618BdE71Dce8cdc73aAB6C95905faD24).\n      setInterfaceImplementer(address(this),\n        keccak256(\"ERC777TokensRecipient\"),\n        address(this)\n      );\n  }\n\n  function burn(uint256 _amount) public {\n    _burn(msg.sender, _amount, \"\", \"\");\n  }\n\n  function mint(uint256 _amount) public {\n    _mint(msg.sender, _amount, \"\", \"\");\n  }\n\n  // Staking Attributes\n  address[] public stakers;\n  mapping(address => uint) public stakingBalance;\n  mapping(address => bool) public hasStaked;\n  mapping(address => bool) public isStaking;\n\n  // Unstaking Tokens (Withdraw)\n  function unstakeTokens() public {\n    // Fetch staking balance\n    uint balance = stakingBalance[msg.sender];\n\n    // Require amount greater than 0\n    require(balance > 0, \"staking balance cannot be 0\");\n\n    // Transfer Mock Dai tokens to this contract for staking\n    this.send(msg.sender, balance,\"\");\n\n    // Reset staking balance\n    stakingBalance[msg.sender] = 0;\n\n    // Update staking status\n    isStaking[msg.sender] = false;\n  }\n\n  function tokensReceived(\n        address _operator,\n        address _from,\n        address _to,\n        uint256 _amount,\n        bytes calldata _userData,\n        bytes calldata _operatorData\n    ) override public\n  {\n    stakeTokensInternal(_amount, _from);\n  }\n\n  // Staking Functions\n  function stakeTokens(uint _amount) public {\n    stakeTokensInternal(_amount, msg.sender);\n  }\n\n  // Staking Functions\n  function stakeTokensInternal(uint _amount, address staker) public {\n    // Require amount greater than 0\n    require(_amount > 0, \"amount cannot be 0\");\n\n    // Trasnfer Mock Dai tokens to this contract for staking\n    //send(address(this), _amount, \"\");\n    //_send(msg.sender, address(this), _amount, \"\", \"\", true);\n\n    // Update staking balance\n    stakingBalance[staker] = stakingBalance[staker] + _amount;\n\n    // Add user to stakers array *only* if they haven't staked already\n    if(!hasStaked[staker]) {\n      stakers.push(staker);\n    }\n\n    // Update staking status\n    isStaking[staker] = true;\n    hasStaked[staker] = true;\n\n  }\n\n  function _beforeTokenTransfer(\n    address operator,\n    address from,\n    address to,\n    uint256 amount) override internal virtual\n  {\n    if(from != address(0) && to != address(0))\n    {\n      _burn(from, burnable_tx_fee,\"\",\"\");\n    }\n  }\n}",
  "sourcePath": "/home/turupawn/Projects/Blockchain/Games/MaticERC777/contracts/MyERC777.sol",
  "compiler": {
    "name": "solc",
    "version": "0.8.4+commit.c7e474f2.Emscripten.clang"
  },
  "schemaVersion": "3.3.4",
  "updatedAt": "2021-06-01T17:50:13.124Z",
  "networkType": "ethereum",
  "devdoc": {
    "kind": "dev",
    "methods": {
      "allowance(address,address)": {
        "details": "See {IERC20-allowance}. Note that operator and allowance concepts are orthogonal: operators may not have allowance, and accounts with allowance may not be operators themselves."
      },
      "approve(address,uint256)": {
        "details": "See {IERC20-approve}. Note that accounts cannot have allowance issued by their operators."
      },
      "authorizeOperator(address)": {
        "details": "See {IERC777-authorizeOperator}."
      },
      "balanceOf(address)": {
        "details": "Returns the amount of tokens owned by an account (`tokenHolder`)."
      },
      "burn(uint256,bytes)": {
        "details": "See {IERC777-burn}. Also emits a {IERC20-Transfer} event for ERC20 compatibility."
      },
      "decimals()": {
        "details": "See {ERC20-decimals}. Always returns 18, as per the [ERC777 EIP](https://eips.ethereum.org/EIPS/eip-777#backward-compatibility)."
      },
      "defaultOperators()": {
        "details": "See {IERC777-defaultOperators}."
      },
      "granularity()": {
        "details": "See {IERC777-granularity}. This implementation always returns `1`."
      },
      "isOperatorFor(address,address)": {
        "details": "See {IERC777-isOperatorFor}."
      },
      "name()": {
        "details": "See {IERC777-name}."
      },
      "operatorBurn(address,uint256,bytes,bytes)": {
        "details": "See {IERC777-operatorBurn}. Emits {Burned} and {IERC20-Transfer} events."
      },
      "operatorSend(address,address,uint256,bytes,bytes)": {
        "details": "See {IERC777-operatorSend}. Emits {Sent} and {IERC20-Transfer} events."
      },
      "revokeOperator(address)": {
        "details": "See {IERC777-revokeOperator}."
      },
      "send(address,uint256,bytes)": {
        "details": "See {IERC777-send}. Also emits a {IERC20-Transfer} event for ERC20 compatibility."
      },
      "symbol()": {
        "details": "See {IERC777-symbol}."
      },
      "totalSupply()": {
        "details": "See {IERC777-totalSupply}."
      },
      "transfer(address,uint256)": {
        "details": "See {IERC20-transfer}. Unlike `send`, `recipient` is _not_ required to implement the {IERC777Recipient} interface if it is a contract. Also emits a {Sent} event."
      },
      "transferFrom(address,address,uint256)": {
        "details": "See {IERC20-transferFrom}. Note that operator and allowance concepts are orthogonal: operators cannot call `transferFrom` (unless they have allowance), and accounts with allowance cannot call `operatorSend` (unless they are operators). Emits {Sent}, {IERC20-Transfer} and {IERC20-Approval} events."
      }
    },
    "version": 1
  },
  "userdoc": {
    "kind": "user",
    "methods": {},
    "version": 1
  }
}