{
  "contractName": "MyERC777",
  "abi": [
    {
      "inputs": [],
      "stateMutability": "nonpayable",
      "type": "constructor"
    },
    {
      "anonymous": false,
      "inputs": [
        {
          "indexed": true,
          "internalType": "address",
          "name": "owner",
          "type": "address"
        },
        {
          "indexed": true,
          "internalType": "address",
          "name": "spender",
          "type": "address"
        },
        {
          "indexed": false,
          "internalType": "uint256",
          "name": "value",
          "type": "uint256"
        }
      ],
      "name": "Approval",
      "type": "event"
    },
    {
      "anonymous": false,
      "inputs": [
        {
          "indexed": true,
          "internalType": "address",
          "name": "operator",
          "type": "address"
        },
        {
          "indexed": true,
          "internalType": "address",
          "name": "tokenHolder",
          "type": "address"
        }
      ],
      "name": "AuthorizedOperator",
      "type": "event"
    },
    {
      "anonymous": false,
      "inputs": [
        {
          "indexed": true,
          "internalType": "address",
          "name": "operator",
          "type": "address"
        },
        {
          "indexed": true,
          "internalType": "address",
          "name": "from",
          "type": "address"
        },
        {
          "indexed": false,
          "internalType": "uint256",
          "name": "amount",
          "type": "uint256"
        },
        {
          "indexed": false,
          "internalType": "bytes",
          "name": "data",
          "type": "bytes"
        },
        {
          "indexed": false,
          "internalType": "bytes",
          "name": "operatorData",
          "type": "bytes"
        }
      ],
      "name": "Burned",
      "type": "event"
    },
    {
      "anonymous": false,
      "inputs": [
        {
          "indexed": true,
          "internalType": "address",
          "name": "operator",
          "type": "address"
        },
        {
          "indexed": true,
          "internalType": "address",
          "name": "to",
          "type": "address"
        },
        {
          "indexed": false,
          "internalType": "uint256",
          "name": "amount",
          "type": "uint256"
        },
        {
          "indexed": false,
          "internalType": "bytes",
          "name": "data",
          "type": "bytes"
        },
        {
          "indexed": false,
          "internalType": "bytes",
          "name": "operatorData",
          "type": "bytes"
        }
      ],
      "name": "Minted",
      "type": "event"
    },
    {
      "anonymous": false,
      "inputs": [
        {
          "indexed": true,
          "internalType": "address",
          "name": "operator",
          "type": "address"
        },
        {
          "indexed": true,
          "internalType": "address",
          "name": "tokenHolder",
          "type": "address"
        }
      ],
      "name": "RevokedOperator",
      "type": "event"
    },
    {
      "anonymous": false,
      "inputs": [
        {
          "indexed": true,
          "internalType": "address",
          "name": "operator",
          "type": "address"
        },
        {
          "indexed": true,
          "internalType": "address",
          "name": "from",
          "type": "address"
        },
        {
          "indexed": true,
          "internalType": "address",
          "name": "to",
          "type": "address"
        },
        {
          "indexed": false,
          "internalType": "uint256",
          "name": "amount",
          "type": "uint256"
        },
        {
          "indexed": false,
          "internalType": "bytes",
          "name": "data",
          "type": "bytes"
        },
        {
          "indexed": false,
          "internalType": "bytes",
          "name": "operatorData",
          "type": "bytes"
        }
      ],
      "name": "Sent",
      "type": "event"
    },
    {
      "anonymous": false,
      "inputs": [
        {
          "indexed": true,
          "internalType": "address",
          "name": "from",
          "type": "address"
        },
        {
          "indexed": true,
          "internalType": "address",
          "name": "to",
          "type": "address"
        },
        {
          "indexed": false,
          "internalType": "uint256",
          "name": "value",
          "type": "uint256"
        }
      ],
      "name": "Transfer",
      "type": "event"
    },
    {
      "inputs": [
        {
          "internalType": "address",
          "name": "holder",
          "type": "address"
        },
        {
          "internalType": "address",
          "name": "spender",
          "type": "address"
        }
      ],
      "name": "allowance",
      "outputs": [
        {
          "internalType": "uint256",
          "name": "",
          "type": "uint256"
        }
      ],
      "stateMutability": "view",
      "type": "function",
      "constant": true
    },
    {
      "inputs": [
        {
          "internalType": "address",
          "name": "spender",
          "type": "address"
        },
        {
          "internalType": "uint256",
          "name": "value",
          "type": "uint256"
        }
      ],
      "name": "approve",
      "outputs": [
        {
          "internalType": "bool",
          "name": "",
          "type": "bool"
        }
      ],
      "stateMutability": "nonpayable",
      "type": "function"
    },
    {
      "inputs": [
        {
          "internalType": "address",
          "name": "operator",
          "type": "address"
        }
      ],
      "name": "authorizeOperator",
      "outputs": [],
      "stateMutability": "nonpayable",
      "type": "function"
    },
    {
      "inputs": [
        {
          "internalType": "address",
          "name": "tokenHolder",
          "type": "address"
        }
      ],
      "name": "balanceOf",
      "outputs": [
        {
          "internalType": "uint256",
          "name": "",
          "type": "uint256"
        }
      ],
      "stateMutability": "view",
      "type": "function",
      "constant": true
    },
    {
      "inputs": [],
      "name": "decimals",
      "outputs": [
        {
          "internalType": "uint8",
          "name": "",
          "type": "uint8"
        }
      ],
      "stateMutability": "pure",
      "type": "function",
      "constant": true
    },
    {
      "inputs": [],
      "name": "defaultOperators",
      "outputs": [
        {
          "internalType": "address[]",
          "name": "",
          "type": "address[]"
        }
      ],
      "stateMutability": "view",
      "type": "function",
      "constant": true
    },
    {
      "inputs": [],
      "name": "granularity",
      "outputs": [
        {
          "internalType": "uint256",
          "name": "",
          "type": "uint256"
        }
      ],
      "stateMutability": "view",
      "type": "function",
      "constant": true
    },
    {
      "inputs": [
        {
          "internalType": "address",
          "name": "",
          "type": "address"
        }
      ],
      "name": "hasStaked",
      "outputs": [
        {
          "internalType": "bool",
          "name": "",
          "type": "bool"
        }
      ],
      "stateMutability": "view",
      "type": "function",
      "constant": true
    },
    {
      "inputs": [
        {
          "internalType": "address",
          "name": "operator",
          "type": "address"
        },
        {
          "internalType": "address",
          "name": "tokenHolder",
          "type": "address"
        }
      ],
      "name": "isOperatorFor",
      "outputs": [
        {
          "internalType": "bool",
          "name": "",
          "type": "bool"
        }
      ],
      "stateMutability": "view",
      "type": "function",
      "constant": true
    },
    {
      "inputs": [
        {
          "internalType": "address",
          "name": "",
          "type": "address"
        }
      ],
      "name": "isStaking",
      "outputs": [
        {
          "internalType": "bool",
          "name": "",
          "type": "bool"
        }
      ],
      "stateMutability": "view",
      "type": "function",
      "constant": true
    },
    {
      "inputs": [],
      "name": "name",
      "outputs": [
        {
          "internalType": "string",
          "name": "",
          "type": "string"
        }
      ],
      "stateMutability": "view",
      "type": "function",
      "constant": true
    },
    {
      "inputs": [
        {
          "internalType": "address",
          "name": "account",
          "type": "address"
        },
        {
          "internalType": "uint256",
          "name": "amount",
          "type": "uint256"
        },
        {
          "internalType": "bytes",
          "name": "data",
          "type": "bytes"
        },
        {
          "internalType": "bytes",
          "name": "operatorData",
          "type": "bytes"
        }
      ],
      "name": "operatorBurn",
      "outputs": [],
      "stateMutability": "nonpayable",
      "type": "function"
    },
    {
      "inputs": [
        {
          "internalType": "address",
          "name": "sender",
          "type": "address"
        },
        {
          "internalType": "address",
          "name": "recipient",
          "type": "address"
        },
        {
          "internalType": "uint256",
          "name": "amount",
          "type": "uint256"
        },
        {
          "internalType": "bytes",
          "name": "data",
          "type": "bytes"
        },
        {
          "internalType": "bytes",
          "name": "operatorData",
          "type": "bytes"
        }
      ],
      "name": "operatorSend",
      "outputs": [],
      "stateMutability": "nonpayable",
      "type": "function"
    },
    {
      "inputs": [
        {
          "internalType": "address",
          "name": "operator",
          "type": "address"
        }
      ],
      "name": "revokeOperator",
      "outputs": [],
      "stateMutability": "nonpayable",
      "type": "function"
    },
    {
      "inputs": [
        {
          "internalType": "address",
          "name": "recipient",
          "type": "address"
        },
        {
          "internalType": "uint256",
          "name": "amount",
          "type": "uint256"
        },
        {
          "internalType": "bytes",
          "name": "data",
          "type": "bytes"
        }
      ],
      "name": "send",
      "outputs": [],
      "stateMutability": "nonpayable",
      "type": "function"
    },
    {
      "inputs": [
        {
          "internalType": "uint256",
          "name": "",
          "type": "uint256"
        }
      ],
      "name": "stakers",
      "outputs": [
        {
          "internalType": "address",
          "name": "",
          "type": "address"
        }
      ],
      "stateMutability": "view",
      "type": "function",
      "constant": true
    },
    {
      "inputs": [
        {
          "internalType": "address",
          "name": "",
          "type": "address"
        }
      ],
      "name": "stakingBalance",
      "outputs": [
        {
          "internalType": "uint256",
          "name": "",
          "type": "uint256"
        }
      ],
      "stateMutability": "view",
      "type": "function",
      "constant": true
    },
    {
      "inputs": [],
      "name": "symbol",
      "outputs": [
        {
          "internalType": "string",
          "name": "",
          "type": "string"
        }
      ],
      "stateMutability": "view",
      "type": "function",
      "constant": true
    },
    {
      "inputs": [],
      "name": "totalSupply",
      "outputs": [
        {
          "internalType": "uint256",
          "name": "",
          "type": "uint256"
        }
      ],
      "stateMutability": "view",
      "type": "function",
      "constant": true
    },
    {
      "inputs": [
        {
          "internalType": "address",
          "name": "recipient",
          "type": "address"
        },
        {
          "internalType": "uint256",
          "name": "amount",
          "type": "uint256"
        }
      ],
      "name": "transfer",
      "outputs": [
        {
          "internalType": "bool",
          "name": "",
          "type": "bool"
        }
      ],
      "stateMutability": "nonpayable",
      "type": "function"
    },
    {
      "inputs": [
        {
          "internalType": "address",
          "name": "holder",
          "type": "address"
        },
        {
          "internalType": "address",
          "name": "recipient",
          "type": "address"
        },
        {
          "internalType": "uint256",
          "name": "amount",
          "type": "uint256"
        }
      ],
      "name": "transferFrom",
      "outputs": [
        {
          "internalType": "bool",
          "name": "",
          "type": "bool"
        }
      ],
      "stateMutability": "nonpayable",
      "type": "function"
    },
    {
      "inputs": [
        {
          "internalType": "uint256",
          "name": "_amount",
          "type": "uint256"
        }
      ],
      "name": "burn",
      "outputs": [],
      "stateMutability": "nonpayable",
      "type": "function"
    },
    {
      "inputs": [
        {
          "internalType": "uint256",
          "name": "amount",
          "type": "uint256"
        },
        {
          "internalType": "bytes",
          "name": "data",
          "type": "bytes"
        }
      ],
      "name": "burn",
      "outputs": [],
      "stateMutability": "nonpayable",
      "type": "function"
    },
    {
      "inputs": [
        {
          "internalType": "uint256",
          "name": "_amount",
          "type": "uint256"
        }
      ],
      "name": "mint",
      "outputs": [],
      "stateMutability": "nonpayable",
      "type": "function"
    },
    {
      "inputs": [],
      "name": "unstakeTokens",
      "outputs": [],
      "stateMutability": "nonpayable",
      "type": "function"
    },
    {
      "inputs": [
        {
          "internalType": "address",
          "name": "_operator",
          "type": "address"
        },
        {
          "internalType": "address",
          "name": "_from",
          "type": "address"
        },
        {
          "internalType": "address",
          "name": "_to",
          "type": "address"
        },
        {
          "internalType": "uint256",
          "name": "_amount",
          "type": "uint256"
        },
        {
          "internalType": "bytes",
          "name": "_userData",
          "type": "bytes"
        },
        {
          "internalType": "bytes",
          "name": "_operatorData",
          "type": "bytes"
        }
      ],
      "name": "tokensReceived",
      "outputs": [],
      "stateMutability": "nonpayable",
      "type": "function"
    },
    {
      "inputs": [
        {
          "internalType": "uint256",
          "name": "_amount",
          "type": "uint256"
        }
      ],
      "name": "stakeTokens",
      "outputs": [],
      "stateMutability": "nonpayable",
      "type": "function"
    },
    {
      "inputs": [
        {
          "internalType": "uint256",
          "name": "_amount",
          "type": "uint256"
        },
        {
          "internalType": "address",
          "name": "staker",
          "type": "address"
        }
      ],
      "name": "stakeTokensInternal",
      "outputs": [],
      "stateMutability": "nonpayable",
      "type": "function"
    }
  ],
  "bytecode": "0x60806040523480156200001157600080fd5b506040518060400160405280600b81526020017f7465737467726f756e64320000000000000000000000000000000000000000008152506040518060400160405280600381526020017f5447320000000000000000000000000000000000000000000000000000000000815250600067ffffffffffffffff811115620000c0577f4e487b7100000000000000000000000000000000000000000000000000000000600052604160045260246000fd5b604051908082528060200260200182016040528015620000ef5781602001602082028036833780820191505090505b5082600290805190602001906200010892919062000873565b5081600390805190602001906200012192919062000873565b5080600490805190602001906200013a92919062000904565b5060005b8151811015620001f75760016005600084848151811062000188577f4e487b7100000000000000000000000000000000000000000000000000000000600052603260045260246000fd5b602002602001015173ffffffffffffffffffffffffffffffffffffffff1673ffffffffffffffffffffffffffffffffffffffff16815260200190815260200160002060006101000a81548160ff0219169083151502179055508080620001ee9062000d86565b9150506200013e565b50731820a4b7618bde71dce8cdc73aab6c95905fad2473ffffffffffffffffffffffffffffffffffffffff166329965a1d307fac7fbab5f54a3ca8194167523c6753bfeb96a445279294b6125b68cce2177054306040518463ffffffff1660e01b81526004016200026b9392919062000b5f565b600060405180830381600087803b1580156200028657600080fd5b505af11580156200029b573d6000803e3d6000fd5b50505050731820a4b7618bde71dce8cdc73aab6c95905fad2473ffffffffffffffffffffffffffffffffffffffff166329965a1d307faea199e31a596269b42cdafd93407f14436db6e4cad65417994c2eb37381e05a306040518463ffffffff1660e01b8152600401620003129392919062000b5f565b600060405180830381600087803b1580156200032d57600080fd5b505af115801562000342573d6000803e3d6000fd5b50505050505050600068367b2d3f4823940000905062000389338260405180602001604052806000815250604051806020016040528060008152506200043760201b60201c565b731820a4b7618bde71dce8cdc73aab6c95905fad2473ffffffffffffffffffffffffffffffffffffffff166329965a1d307fb281fc8c12954d22544db45de3159a39272895b169a852b314f9cc762e44c53b306040518463ffffffff1660e01b8152600401620003fc9392919062000b5f565b600060405180830381600087803b1580156200041757600080fd5b505af11580156200042c573d6000803e3d6000fd5b505050505062000efb565b6200044d8484848460016200045360201b60201c565b50505050565b600073ffffffffffffffffffffffffffffffffffffffff168573ffffffffffffffffffffffffffffffffffffffff161415620004c6576040517f08c379a0000000000000000000000000000000000000000000000000000000008152600401620004bd9062000b9c565b60405180910390fd5b6000620004d86200065460201b60201c565b9050620004ef81600088886200065c60201b60201c565b846001600082825462000503919062000c75565b92505081905550846000808873ffffffffffffffffffffffffffffffffffffffff1673ffffffffffffffffffffffffffffffffffffffff16815260200190815260200160002060008282546200055a919062000c75565b925050819055506200057981600088888888886200066260201b60201c565b8573ffffffffffffffffffffffffffffffffffffffff168173ffffffffffffffffffffffffffffffffffffffff167f2fe5be0146f74c5bce36c0b80911af6c7d86ff27e89d5cfa61fc681327954e5d878787604051620005dc9392919062000bfd565b60405180910390a38573ffffffffffffffffffffffffffffffffffffffff16600073ffffffffffffffffffffffffffffffffffffffff167fddf252ad1be2c89b69c2b068fc378daa952ba7f163c4a11628f55a4df523b3ef8760405162000644919062000be0565b60405180910390a3505050505050565b600033905090565b50505050565b6000731820a4b7618bde71dce8cdc73aab6c95905fad2473ffffffffffffffffffffffffffffffffffffffff1663aabbb8ca877fb281fc8c12954d22544db45de3159a39272895b169a852b314f9cc762e44c53b6040518363ffffffff1660e01b8152600401620006d592919062000b32565b60206040518083038186803b158015620006ee57600080fd5b505afa15801562000703573d6000803e3d6000fd5b505050506040513d601f19601f82011682018060405250810190620007299190620009c9565b9050600073ffffffffffffffffffffffffffffffffffffffff168173ffffffffffffffffffffffffffffffffffffffff1614620007de578073ffffffffffffffffffffffffffffffffffffffff166223de298989898989896040518763ffffffff1660e01b8152600401620007a49695949392919062000ab7565b600060405180830381600087803b158015620007bf57600080fd5b505af1158015620007d4573d6000803e3d6000fd5b5050505062000856565b81156200085557620008118673ffffffffffffffffffffffffffffffffffffffff166200086060201b6200182d1760201c565b1562000854576040517f08c379a00000000000000000000000000000000000000000000000000000000081526004016200084b9062000bbe565b60405180910390fd5b5b5b5050505050505050565b600080823b905060008111915050919050565b828054620008819062000d50565b90600052602060002090601f016020900481019282620008a55760008555620008f1565b82601f10620008c057805160ff1916838001178555620008f1565b82800160010185558215620008f1579182015b82811115620008f0578251825591602001919060010190620008d3565b5b50905062000900919062000993565b5090565b82805482825590600052602060002090810192821562000980579160200282015b828111156200097f5782518260006101000a81548173ffffffffffffffffffffffffffffffffffffffff021916908373ffffffffffffffffffffffffffffffffffffffff1602179055509160200191906001019062000925565b5b5090506200098f919062000993565b5090565b5b80821115620009ae57600081600090555060010162000994565b5090565b600081519050620009c38162000ee1565b92915050565b600060208284031215620009dc57600080fd5b6000620009ec84828501620009b2565b91505092915050565b62000a008162000cd2565b82525050565b62000a118162000ce6565b82525050565b600062000a248262000c48565b62000a30818562000c53565b935062000a4281856020860162000d1a565b62000a4d8162000e32565b840191505092915050565b600062000a6760208362000c64565b915062000a748262000e43565b602082019050919050565b600062000a8e604d8362000c64565b915062000a9b8262000e6c565b606082019050919050565b62000ab18162000d10565b82525050565b600060c08201905062000ace6000830189620009f5565b62000add6020830188620009f5565b62000aec6040830187620009f5565b62000afb606083018662000aa6565b818103608083015262000b0f818562000a17565b905081810360a083015262000b25818462000a17565b9050979650505050505050565b600060408201905062000b496000830185620009f5565b62000b58602083018462000a06565b9392505050565b600060608201905062000b766000830186620009f5565b62000b85602083018562000a06565b62000b946040830184620009f5565b949350505050565b6000602082019050818103600083015262000bb78162000a58565b9050919050565b6000602082019050818103600083015262000bd98162000a7f565b9050919050565b600060208201905062000bf7600083018462000aa6565b92915050565b600060608201905062000c14600083018662000aa6565b818103602083015262000c28818562000a17565b9050818103604083015262000c3e818462000a17565b9050949350505050565b600081519050919050565b600082825260208201905092915050565b600082825260208201905092915050565b600062000c828262000d10565b915062000c8f8362000d10565b9250827fffffffffffffffffffffffffffffffffffffffffffffffffffffffffffffffff0382111562000cc75762000cc662000dd4565b5b828201905092915050565b600062000cdf8262000cf0565b9050919050565b6000819050919050565b600073ffffffffffffffffffffffffffffffffffffffff82169050919050565b6000819050919050565b60005b8381101562000d3a57808201518184015260208101905062000d1d565b8381111562000d4a576000848401525b50505050565b6000600282049050600182168062000d6957607f821691505b6020821081141562000d805762000d7f62000e03565b5b50919050565b600062000d938262000d10565b91507fffffffffffffffffffffffffffffffffffffffffffffffffffffffffffffffff82141562000dc95762000dc862000dd4565b5b600182019050919050565b7f4e487b7100000000000000000000000000000000000000000000000000000000600052601160045260246000fd5b7f4e487b7100000000000000000000000000000000000000000000000000000000600052602260045260246000fd5b6000601f19601f8301169050919050565b7f4552433737373a206d696e7420746f20746865207a65726f2061646472657373600082015250565b7f4552433737373a20746f6b656e20726563697069656e7420636f6e747261637460008201527f20686173206e6f20696d706c656d656e74657220666f7220455243373737546f60208201527f6b656e73526563697069656e7400000000000000000000000000000000000000604082015250565b62000eec8162000cd2565b811462000ef857600080fd5b50565b6139de8062000f0b6000396000f3fe608060405234801561001057600080fd5b50600436106101c35760003560e01c80637547c7a3116100f9578063c93c8f3411610097578063fad8b32a11610071578063fad8b32a14610516578063fc673c4f14610532578063fd5e6dd11461054e578063fe9d93031461057e576101c3565b8063c93c8f3414610486578063d95b6371146104b6578063dd62ed3e146104e6576101c3565b80639bd9bbc6116100d35780639bd9bbc614610414578063a0712d6814610430578063a5ce413b1461044c578063a9059cbb14610456576101c3565b80637547c7a3146103be578063959b8c3f146103da57806395d89b41146103f6576101c3565b80633175d1c211610166578063556f0dc711610140578063556f0dc71461032457806362ad1b83146103425780636f49712b1461035e57806370a082311461038e576101c3565b80633175d1c2146102bc57806342966c68146102d857806345bc78ab146102f4576101c3565b8063095ea7b3116101a2578063095ea7b31461022057806318160ddd1461025057806323b872dd1461026e578063313ce5671461029e576101c3565b806223de29146101c857806306e48538146101e457806306fdde0314610202575b600080fd5b6101e260048036038101906101dd919061266e565b61059a565b005b6101ec6105ae565b6040516101f99190612ebd565b60405180910390f35b61020a61063c565b6040516102179190612efa565b60405180910390f35b61023a60048036038101906102359190612827565b6106ce565b6040516102479190612edf565b60405180910390f35b6102586106f1565b604051610265919061313c565b60405180910390f35b61028860048036038101906102839190612731565b6106fb565b6040516102959190612edf565b60405180910390f35b6102a6610955565b6040516102b3919061319c565b60405180910390f35b6102d660048036038101906102d19190612986565b61095e565b005b6102f260048036038101906102ed919061295d565b610b98565b005b61030e600480360381019061030991906125e0565b610bc5565b60405161031b919061313c565b60405180910390f35b61032c610bdd565b604051610339919061313c565b60405180910390f35b61035c60048036038101906103579190612780565b610be6565b005b610378600480360381019061037391906125e0565b610c4c565b6040516103859190612edf565b60405180910390f35b6103a860048036038101906103a391906125e0565b610c6c565b6040516103b5919061313c565b60405180910390f35b6103d860048036038101906103d3919061295d565b610cb4565b005b6103f460048036038101906103ef91906125e0565b610cc1565b005b6103fe610f22565b60405161040b9190612efa565b60405180910390f35b61042e60048036038101906104299190612863565b610fb4565b005b61044a6004803603810190610445919061295d565b610fde565b005b61045461100b565b005b610470600480360381019061046b9190612827565b61119f565b60405161047d9190612edf565b60405180910390f35b6104a0600480360381019061049b91906125e0565b6112ad565b6040516104ad9190612edf565b60405180910390f35b6104d060048036038101906104cb9190612632565b6112cd565b6040516104dd9190612edf565b60405180910390f35b61050060048036038101906104fb9190612632565b61147e565b60405161050d919061313c565b60405180910390f35b610530600480360381019061052b91906125e0565b611505565b005b61054c600480360381019061054791906128ca565b611766565b005b6105686004803603810190610563919061295d565b6117c8565b6040516105759190612dce565b60405180910390f35b610598600480360381019061059391906129c2565b611807565b005b6105a4858861095e565b5050505050505050565b6060600480548060200260200160405190810160405280929190818152602001828054801561063257602002820191906000526020600020905b8160009054906101000a900473ffffffffffffffffffffffffffffffffffffffff1673ffffffffffffffffffffffffffffffffffffffff16815260200190600101908083116105e8575b5050505050905090565b60606002805461064b906133a9565b80601f0160208091040260200160405190810160405280929190818152602001828054610677906133a9565b80156106c45780601f10610699576101008083540402835291602001916106c4565b820191906000526020600020905b8154815290600101906020018083116106a757829003601f168201915b5050505050905090565b6000806106d9611840565b90506106e6818585611848565b600191505092915050565b6000600154905090565b60008073ffffffffffffffffffffffffffffffffffffffff168373ffffffffffffffffffffffffffffffffffffffff16141561076c576040517f08c379a00000000000000000000000000000000000000000000000000000000081526004016107639061303c565b60405180910390fd5b600073ffffffffffffffffffffffffffffffffffffffff168473ffffffffffffffffffffffffffffffffffffffff1614156107dc576040517f08c379a00000000000000000000000000000000000000000000000000000000081526004016107d3906130bc565b60405180910390fd5b60006107e6611840565b9050610814818686866040518060200160405280600081525060405180602001604052806000815250611a13565b610840818686866040518060200160405280600081525060405180602001604052806000815250611b89565b6000600860008773ffffffffffffffffffffffffffffffffffffffff1673ffffffffffffffffffffffffffffffffffffffff16815260200190815260200160002060008373ffffffffffffffffffffffffffffffffffffffff1673ffffffffffffffffffffffffffffffffffffffff16815260200190815260200160002054905083811015610904576040517f08c379a00000000000000000000000000000000000000000000000000000000081526004016108fb9061309c565b60405180910390fd5b61091a8683868461091591906132d4565b611848565b6109488287878760405180602001604052806000815250604051806020016040528060008152506000611da3565b6001925050509392505050565b60006012905090565b600082116109a1576040517f08c379a00000000000000000000000000000000000000000000000000000000081526004016109989061307c565b60405180910390fd5b81600a60008373ffffffffffffffffffffffffffffffffffffffff1673ffffffffffffffffffffffffffffffffffffffff168152602001908152602001600020546109ec919061327e565b600a60008373ffffffffffffffffffffffffffffffffffffffff1673ffffffffffffffffffffffffffffffffffffffff16815260200190815260200160002081905550600b60008273ffffffffffffffffffffffffffffffffffffffff1673ffffffffffffffffffffffffffffffffffffffff16815260200190815260200160002060009054906101000a900460ff16610ae4576009819080600181540180825580915050600190039060005260206000200160009091909190916101000a81548173ffffffffffffffffffffffffffffffffffffffff021916908373ffffffffffffffffffffffffffffffffffffffff1602179055505b6001600c60008373ffffffffffffffffffffffffffffffffffffffff1673ffffffffffffffffffffffffffffffffffffffff16815260200190815260200160002060006101000a81548160ff0219169083151502179055506001600b60008373ffffffffffffffffffffffffffffffffffffffff1673ffffffffffffffffffffffffffffffffffffffff16815260200190815260200160002060006101000a81548160ff0219169083151502179055505050565b610bc233826040518060200160405280600081525060405180602001604052806000815250611f84565b50565b600a6020528060005260406000206000915090505481565b60006001905090565b610bf7610bf1611840565b866112cd565b610c36576040517f08c379a0000000000000000000000000000000000000000000000000000000008152600401610c2d9061305c565b60405180910390fd5b610c45858585858560016121d7565b5050505050565b600c6020528060005260406000206000915054906101000a900460ff1681565b60008060008373ffffffffffffffffffffffffffffffffffffffff1673ffffffffffffffffffffffffffffffffffffffff168152602001908152602001600020549050919050565b610cbe813361095e565b50565b8073ffffffffffffffffffffffffffffffffffffffff16610ce0611840565b73ffffffffffffffffffffffffffffffffffffffff161415610d37576040517f08c379a0000000000000000000000000000000000000000000000000000000008152600401610d2e90612f9c565b60405180910390fd5b600560008273ffffffffffffffffffffffffffffffffffffffff1673ffffffffffffffffffffffffffffffffffffffff16815260200190815260200160002060009054906101000a900460ff1615610e215760076000610d95611840565b73ffffffffffffffffffffffffffffffffffffffff1673ffffffffffffffffffffffffffffffffffffffff16815260200190815260200160002060008273ffffffffffffffffffffffffffffffffffffffff1673ffffffffffffffffffffffffffffffffffffffff16815260200190815260200160002060006101000a81549060ff0219169055610ebe565b600160066000610e2f611840565b73ffffffffffffffffffffffffffffffffffffffff1673ffffffffffffffffffffffffffffffffffffffff16815260200190815260200160002060008373ffffffffffffffffffffffffffffffffffffffff1673ffffffffffffffffffffffffffffffffffffffff16815260200190815260200160002060006101000a81548160ff0219169083151502179055505b610ec6611840565b73ffffffffffffffffffffffffffffffffffffffff168173ffffffffffffffffffffffffffffffffffffffff167ff4caeb2d6ca8932a215a353d0703c326ec2d81fc68170f320eb2ab49e9df61f960405160405180910390a350565b606060038054610f31906133a9565b80601f0160208091040260200160405190810160405280929190818152602001828054610f5d906133a9565b8015610faa5780601f10610f7f57610100808354040283529160200191610faa565b820191906000526020600020905b815481529060010190602001808311610f8d57829003601f168201915b5050505050905090565b610fd9610fbf611840565b8484846040518060200160405280600081525060016121d7565b505050565b611008338260405180602001604052806000815250604051806020016040528060008152506122f7565b50565b6000600a60003373ffffffffffffffffffffffffffffffffffffffff1673ffffffffffffffffffffffffffffffffffffffff16815260200190815260200160002054905060008111611092576040517f08c379a000000000000000000000000000000000000000000000000000000000815260040161108990612fbc565b60405180910390fd5b3073ffffffffffffffffffffffffffffffffffffffff16639bd9bbc633836040518363ffffffff1660e01b81526004016110cd929190612e81565b600060405180830381600087803b1580156110e757600080fd5b505af11580156110fb573d6000803e3d6000fd5b505050506000600a60003373ffffffffffffffffffffffffffffffffffffffff1673ffffffffffffffffffffffffffffffffffffffff168152602001908152602001600020819055506000600c60003373ffffffffffffffffffffffffffffffffffffffff1673ffffffffffffffffffffffffffffffffffffffff16815260200190815260200160002060006101000a81548160ff02191690831515021790555050565b60008073ffffffffffffffffffffffffffffffffffffffff168373ffffffffffffffffffffffffffffffffffffffff161415611210576040517f08c379a00000000000000000000000000000000000000000000000000000000081526004016112079061303c565b60405180910390fd5b600061121a611840565b9050611248818286866040518060200160405280600081525060405180602001604052806000815250611a13565b611274818286866040518060200160405280600081525060405180602001604052806000815250611b89565b6112a28182868660405180602001604052806000815250604051806020016040528060008152506000611da3565b600191505092915050565b600b6020528060005260406000206000915054906101000a900460ff1681565b60008173ffffffffffffffffffffffffffffffffffffffff168373ffffffffffffffffffffffffffffffffffffffff1614806113e55750600560008473ffffffffffffffffffffffffffffffffffffffff1673ffffffffffffffffffffffffffffffffffffffff16815260200190815260200160002060009054906101000a900460ff1680156113e45750600760008373ffffffffffffffffffffffffffffffffffffffff1673ffffffffffffffffffffffffffffffffffffffff16815260200190815260200160002060008473ffffffffffffffffffffffffffffffffffffffff1673ffffffffffffffffffffffffffffffffffffffff16815260200190815260200160002060009054906101000a900460ff16155b5b806114765750600660008373ffffffffffffffffffffffffffffffffffffffff1673ffffffffffffffffffffffffffffffffffffffff16815260200190815260200160002060008473ffffffffffffffffffffffffffffffffffffffff1673ffffffffffffffffffffffffffffffffffffffff16815260200190815260200160002060009054906101000a900460ff165b905092915050565b6000600860008473ffffffffffffffffffffffffffffffffffffffff1673ffffffffffffffffffffffffffffffffffffffff16815260200190815260200160002060008373ffffffffffffffffffffffffffffffffffffffff1673ffffffffffffffffffffffffffffffffffffffff16815260200190815260200160002054905092915050565b61150d611840565b73ffffffffffffffffffffffffffffffffffffffff168173ffffffffffffffffffffffffffffffffffffffff16141561157b576040517f08c379a000000000000000000000000000000000000000000000000000000000815260040161157290612fdc565b60405180910390fd5b600560008273ffffffffffffffffffffffffffffffffffffffff1673ffffffffffffffffffffffffffffffffffffffff16815260200190815260200160002060009054906101000a900460ff161561166e576001600760006115db611840565b73ffffffffffffffffffffffffffffffffffffffff1673ffffffffffffffffffffffffffffffffffffffff16815260200190815260200160002060008373ffffffffffffffffffffffffffffffffffffffff1673ffffffffffffffffffffffffffffffffffffffff16815260200190815260200160002060006101000a81548160ff021916908315150217905550611702565b6006600061167a611840565b73ffffffffffffffffffffffffffffffffffffffff1673ffffffffffffffffffffffffffffffffffffffff16815260200190815260200160002060008273ffffffffffffffffffffffffffffffffffffffff1673ffffffffffffffffffffffffffffffffffffffff16815260200190815260200160002060006101000a81549060ff02191690555b61170a611840565b73ffffffffffffffffffffffffffffffffffffffff168173ffffffffffffffffffffffffffffffffffffffff167f50546e66e5f44d728365dc3908c63bc5cfeeab470722c1677e3073a6ac294aa160405160405180910390a350565b611777611771611840565b856112cd565b6117b6576040517f08c379a00000000000000000000000000000000000000000000000000000000081526004016117ad9061305c565b60405180910390fd5b6117c284848484611f84565b50505050565b600981815481106117d857600080fd5b906000526020600020016000915054906101000a900473ffffffffffffffffffffffffffffffffffffffff1681565b611829611812611840565b838360405180602001604052806000815250611f84565b5050565b600080823b905060008111915050919050565b600033905090565b600073ffffffffffffffffffffffffffffffffffffffff168373ffffffffffffffffffffffffffffffffffffffff1614156118b8576040517f08c379a00000000000000000000000000000000000000000000000000000000081526004016118af90612f1c565b60405180910390fd5b600073ffffffffffffffffffffffffffffffffffffffff168273ffffffffffffffffffffffffffffffffffffffff161415611928576040517f08c379a000000000000000000000000000000000000000000000000000000000815260040161191f9061311c565b60405180910390fd5b80600860008573ffffffffffffffffffffffffffffffffffffffff1673ffffffffffffffffffffffffffffffffffffffff16815260200190815260200160002060008473ffffffffffffffffffffffffffffffffffffffff1673ffffffffffffffffffffffffffffffffffffffff168152602001908152602001600020819055508173ffffffffffffffffffffffffffffffffffffffff168373ffffffffffffffffffffffffffffffffffffffff167f8c5be1e5ebec7d5bd14f71427d1e84f3dd0314c0f7b2291e5b200ac8c7c3b92583604051611a06919061313c565b60405180910390a3505050565b6000731820a4b7618bde71dce8cdc73aab6c95905fad2473ffffffffffffffffffffffffffffffffffffffff1663aabbb8ca877f29ddb589b1fb5fc7cf394961c1adf5f8c6454761adf795e67fe149f658abe8956040518363ffffffff1660e01b8152600401611a84929190612e58565b60206040518083038186803b158015611a9c57600080fd5b505afa158015611ab0573d6000803e3d6000fd5b505050506040513d601f19601f82011682018060405250810190611ad49190612609565b9050600073ffffffffffffffffffffffffffffffffffffffff168173ffffffffffffffffffffffffffffffffffffffff1614611b80578073ffffffffffffffffffffffffffffffffffffffff166375ab97828888888888886040518763ffffffff1660e01b8152600401611b4d96959493929190612de9565b600060405180830381600087803b158015611b6757600080fd5b505af1158015611b7b573d6000803e3d6000fd5b505050505b50505050505050565b611b958686868661230b565b60008060008773ffffffffffffffffffffffffffffffffffffffff1673ffffffffffffffffffffffffffffffffffffffff16815260200190815260200160002054905083811015611c1b576040517f08c379a0000000000000000000000000000000000000000000000000000000008152600401611c1290612f5c565b60405180910390fd5b8381036000808873ffffffffffffffffffffffffffffffffffffffff1673ffffffffffffffffffffffffffffffffffffffff16815260200190815260200160002081905550836000808773ffffffffffffffffffffffffffffffffffffffff1673ffffffffffffffffffffffffffffffffffffffff1681526020019081526020016000206000828254611cae919061327e565b925050819055508473ffffffffffffffffffffffffffffffffffffffff168673ffffffffffffffffffffffffffffffffffffffff168873ffffffffffffffffffffffffffffffffffffffff167f06b541ddaa720db2b10a4d0cdac39b8d360425fc073085fac19bc82614677987878787604051611d2d93929190613157565b60405180910390a48473ffffffffffffffffffffffffffffffffffffffff168673ffffffffffffffffffffffffffffffffffffffff167fddf252ad1be2c89b69c2b068fc378daa952ba7f163c4a11628f55a4df523b3ef86604051611d92919061313c565b60405180910390a350505050505050565b6000731820a4b7618bde71dce8cdc73aab6c95905fad2473ffffffffffffffffffffffffffffffffffffffff1663aabbb8ca877fb281fc8c12954d22544db45de3159a39272895b169a852b314f9cc762e44c53b6040518363ffffffff1660e01b8152600401611e14929190612e58565b60206040518083038186803b158015611e2c57600080fd5b505afa158015611e40573d6000803e3d6000fd5b505050506040513d601f19601f82011682018060405250810190611e649190612609565b9050600073ffffffffffffffffffffffffffffffffffffffff168173ffffffffffffffffffffffffffffffffffffffff1614611f13578073ffffffffffffffffffffffffffffffffffffffff166223de298989898989896040518763ffffffff1660e01b8152600401611edc96959493929190612de9565b600060405180830381600087803b158015611ef657600080fd5b505af1158015611f0a573d6000803e3d6000fd5b50505050611f7a565b8115611f7957611f388673ffffffffffffffffffffffffffffffffffffffff1661182d565b15611f78576040517f08c379a0000000000000000000000000000000000000000000000000000000008152600401611f6f9061301c565b60405180910390fd5b5b5b5050505050505050565b600073ffffffffffffffffffffffffffffffffffffffff168473ffffffffffffffffffffffffffffffffffffffff161415611ff4576040517f08c379a0000000000000000000000000000000000000000000000000000000008152600401611feb90612f7c565b60405180910390fd5b6000611ffe611840565b905061200f81866000878787611a13565b61201c818660008761230b565b60008060008773ffffffffffffffffffffffffffffffffffffffff1673ffffffffffffffffffffffffffffffffffffffff168152602001908152602001600020549050848110156120a2576040517f08c379a0000000000000000000000000000000000000000000000000000000008152600401612099906130dc565b60405180910390fd5b8481036000808873ffffffffffffffffffffffffffffffffffffffff1673ffffffffffffffffffffffffffffffffffffffff1681526020019081526020016000208190555084600160008282546120f991906132d4565b925050819055508573ffffffffffffffffffffffffffffffffffffffff168273ffffffffffffffffffffffffffffffffffffffff167fa78a9be3a7b862d26933ad85fb11d80ef66b8f972d7cbba06621d583943a409887878760405161216193929190613157565b60405180910390a3600073ffffffffffffffffffffffffffffffffffffffff168673ffffffffffffffffffffffffffffffffffffffff167fddf252ad1be2c89b69c2b068fc378daa952ba7f163c4a11628f55a4df523b3ef876040516121c7919061313c565b60405180910390a3505050505050565b600073ffffffffffffffffffffffffffffffffffffffff168673ffffffffffffffffffffffffffffffffffffffff161415612247576040517f08c379a000000000000000000000000000000000000000000000000000000000815260040161223e90612f3c565b60405180910390fd5b600073ffffffffffffffffffffffffffffffffffffffff168573ffffffffffffffffffffffffffffffffffffffff1614156122b7576040517f08c379a00000000000000000000000000000000000000000000000000000000081526004016122ae906130fc565b60405180910390fd5b60006122c1611840565b90506122d1818888888888611a13565b6122df818888888888611b89565b6122ee81888888888888611da3565b50505050505050565b612305848484846001612311565b50505050565b50505050565b600073ffffffffffffffffffffffffffffffffffffffff168573ffffffffffffffffffffffffffffffffffffffff161415612381576040517f08c379a000000000000000000000000000000000000000000000000000000000815260040161237890612ffc565b60405180910390fd5b600061238b611840565b905061239a816000888861230b565b84600160008282546123ac919061327e565b92505081905550846000808873ffffffffffffffffffffffffffffffffffffffff1673ffffffffffffffffffffffffffffffffffffffff1681526020019081526020016000206000828254612401919061327e565b925050819055506124188160008888888888611da3565b8573ffffffffffffffffffffffffffffffffffffffff168173ffffffffffffffffffffffffffffffffffffffff167f2fe5be0146f74c5bce36c0b80911af6c7d86ff27e89d5cfa61fc681327954e5d87878760405161247993929190613157565b60405180910390a38573ffffffffffffffffffffffffffffffffffffffff16600073ffffffffffffffffffffffffffffffffffffffff167fddf252ad1be2c89b69c2b068fc378daa952ba7f163c4a11628f55a4df523b3ef876040516124df919061313c565b60405180910390a3505050505050565b60006125026124fd846131dc565b6131b7565b90508281526020810184848401111561251a57600080fd5b612525848285613367565b509392505050565b60008135905061253c8161397a565b92915050565b6000815190506125518161397a565b92915050565b60008083601f84011261256957600080fd5b8235905067ffffffffffffffff81111561258257600080fd5b60208301915083600182028301111561259a57600080fd5b9250929050565b600082601f8301126125b257600080fd5b81356125c28482602086016124ef565b91505092915050565b6000813590506125da81613991565b92915050565b6000602082840312156125f257600080fd5b60006126008482850161252d565b91505092915050565b60006020828403121561261b57600080fd5b600061262984828501612542565b91505092915050565b6000806040838503121561264557600080fd5b60006126538582860161252d565b92505060206126648582860161252d565b9150509250929050565b60008060008060008060008060c0898b03121561268a57600080fd5b60006126988b828c0161252d565b98505060206126a98b828c0161252d565b97505060406126ba8b828c0161252d565b96505060606126cb8b828c016125cb565b955050608089013567ffffffffffffffff8111156126e857600080fd5b6126f48b828c01612557565b945094505060a089013567ffffffffffffffff81111561271357600080fd5b61271f8b828c01612557565b92509250509295985092959890939650565b60008060006060848603121561274657600080fd5b60006127548682870161252d565b93505060206127658682870161252d565b9250506040612776868287016125cb565b9150509250925092565b600080600080600060a0868803121561279857600080fd5b60006127a68882890161252d565b95505060206127b78882890161252d565b94505060406127c8888289016125cb565b935050606086013567ffffffffffffffff8111156127e557600080fd5b6127f1888289016125a1565b925050608086013567ffffffffffffffff81111561280e57600080fd5b61281a888289016125a1565b9150509295509295909350565b6000806040838503121561283a57600080fd5b60006128488582860161252d565b9250506020612859858286016125cb565b9150509250929050565b60008060006060848603121561287857600080fd5b60006128868682870161252d565b9350506020612897868287016125cb565b925050604084013567ffffffffffffffff8111156128b457600080fd5b6128c0868287016125a1565b9150509250925092565b600080600080608085870312156128e057600080fd5b60006128ee8782880161252d565b94505060206128ff878288016125cb565b935050604085013567ffffffffffffffff81111561291c57600080fd5b612928878288016125a1565b925050606085013567ffffffffffffffff81111561294557600080fd5b612951878288016125a1565b91505092959194509250565b60006020828403121561296f57600080fd5b600061297d848285016125cb565b91505092915050565b6000806040838503121561299957600080fd5b60006129a7858286016125cb565b92505060206129b88582860161252d565b9150509250929050565b600080604083850312156129d557600080fd5b60006129e3858286016125cb565b925050602083013567ffffffffffffffff811115612a0057600080fd5b612a0c858286016125a1565b9150509250929050565b6000612a228383612a2e565b60208301905092915050565b612a3781613308565b82525050565b612a4681613308565b82525050565b6000612a578261321d565b612a61818561324b565b9350612a6c8361320d565b8060005b83811015612a9d578151612a848882612a16565b9750612a8f8361323e565b925050600181019050612a70565b5085935050505092915050565b612ab38161331a565b82525050565b612ac281613326565b82525050565b6000612ad382613228565b612add818561325c565b9350612aed818560208601613376565b612af681613499565b840191505092915050565b6000612b0c82613233565b612b16818561326d565b9350612b26818560208601613376565b612b2f81613499565b840191505092915050565b6000612b4760258361326d565b9150612b52826134aa565b604082019050919050565b6000612b6a60228361326d565b9150612b75826134f9565b604082019050919050565b6000612b8d60278361326d565b9150612b9882613548565b604082019050919050565b6000612bb060228361326d565b9150612bbb82613597565b604082019050919050565b6000612bd360248361326d565b9150612bde826135e6565b604082019050919050565b6000612bf6601b8361326d565b9150612c0182613635565b602082019050919050565b6000612c1960218361326d565b9150612c248261365e565b604082019050919050565b6000612c3c60208361326d565b9150612c47826136ad565b602082019050919050565b6000612c5f604d8361326d565b9150612c6a826136d6565b606082019050919050565b6000612c8260248361326d565b9150612c8d8261374b565b604082019050919050565b6000612ca560008361325c565b9150612cb08261379a565b600082019050919050565b6000612cc8602c8361326d565b9150612cd38261379d565b604082019050919050565b6000612ceb60128361326d565b9150612cf6826137ec565b602082019050919050565b6000612d0e60298361326d565b9150612d1982613815565b604082019050919050565b6000612d3160268361326d565b9150612d3c82613864565b604082019050919050565b6000612d5460238361326d565b9150612d5f826138b3565b604082019050919050565b6000612d7760208361326d565b9150612d8282613902565b602082019050919050565b6000612d9a60238361326d565b9150612da58261392b565b604082019050919050565b612db981613350565b82525050565b612dc88161335a565b82525050565b6000602082019050612de36000830184612a3d565b92915050565b600060c082019050612dfe6000830189612a3d565b612e0b6020830188612a3d565b612e186040830187612a3d565b612e256060830186612db0565b8181036080830152612e378185612ac8565b905081810360a0830152612e4b8184612ac8565b9050979650505050505050565b6000604082019050612e6d6000830185612a3d565b612e7a6020830184612ab9565b9392505050565b6000606082019050612e966000830185612a3d565b612ea36020830184612db0565b8181036040830152612eb481612c98565b90509392505050565b60006020820190508181036000830152612ed78184612a4c565b905092915050565b6000602082019050612ef46000830184612aaa565b92915050565b60006020820190508181036000830152612f148184612b01565b905092915050565b60006020820190508181036000830152612f3581612b3a565b9050919050565b60006020820190508181036000830152612f5581612b5d565b9050919050565b60006020820190508181036000830152612f7581612b80565b9050919050565b60006020820190508181036000830152612f9581612ba3565b9050919050565b60006020820190508181036000830152612fb581612bc6565b9050919050565b60006020820190508181036000830152612fd581612be9565b9050919050565b60006020820190508181036000830152612ff581612c0c565b9050919050565b6000602082019050818103600083015261301581612c2f565b9050919050565b6000602082019050818103600083015261303581612c52565b9050919050565b6000602082019050818103600083015261305581612c75565b9050919050565b6000602082019050818103600083015261307581612cbb565b9050919050565b6000602082019050818103600083015261309581612cde565b9050919050565b600060208201905081810360008301526130b581612d01565b9050919050565b600060208201905081810360008301526130d581612d24565b9050919050565b600060208201905081810360008301526130f581612d47565b9050919050565b6000602082019050818103600083015261311581612d6a565b9050919050565b6000602082019050818103600083015261313581612d8d565b9050919050565b60006020820190506131516000830184612db0565b92915050565b600060608201905061316c6000830186612db0565b818103602083015261317e8185612ac8565b905081810360408301526131928184612ac8565b9050949350505050565b60006020820190506131b16000830184612dbf565b92915050565b60006131c16131d2565b90506131cd82826133db565b919050565b6000604051905090565b600067ffffffffffffffff8211156131f7576131f661346a565b5b61320082613499565b9050602081019050919050565b6000819050602082019050919050565b600081519050919050565b600081519050919050565b600081519050919050565b6000602082019050919050565b600082825260208201905092915050565b600082825260208201905092915050565b600082825260208201905092915050565b600061328982613350565b915061329483613350565b9250827fffffffffffffffffffffffffffffffffffffffffffffffffffffffffffffffff038211156132c9576132c861340c565b5b828201905092915050565b60006132df82613350565b91506132ea83613350565b9250828210156132fd576132fc61340c565b5b828203905092915050565b600061331382613330565b9050919050565b60008115159050919050565b6000819050919050565b600073ffffffffffffffffffffffffffffffffffffffff82169050919050565b6000819050919050565b600060ff82169050919050565b82818337600083830152505050565b60005b83811015613394578082015181840152602081019050613379565b838111156133a3576000848401525b50505050565b600060028204905060018216806133c157607f821691505b602082108114156133d5576133d461343b565b5b50919050565b6133e482613499565b810181811067ffffffffffffffff821117156134035761340261346a565b5b80604052505050565b7f4e487b7100000000000000000000000000000000000000000000000000000000600052601160045260246000fd5b7f4e487b7100000000000000000000000000000000000000000000000000000000600052602260045260246000fd5b7f4e487b7100000000000000000000000000000000000000000000000000000000600052604160045260246000fd5b6000601f19601f8301169050919050565b7f4552433737373a20617070726f76652066726f6d20746865207a65726f20616460008201527f6472657373000000000000000000000000000000000000000000000000000000602082015250565b7f4552433737373a2073656e642066726f6d20746865207a65726f20616464726560008201527f7373000000000000000000000000000000000000000000000000000000000000602082015250565b7f4552433737373a207472616e7366657220616d6f756e7420657863656564732060008201527f62616c616e636500000000000000000000000000000000000000000000000000602082015250565b7f4552433737373a206275726e2066726f6d20746865207a65726f20616464726560008201527f7373000000000000000000000000000000000000000000000000000000000000602082015250565b7f4552433737373a20617574686f72697a696e672073656c66206173206f70657260008201527f61746f7200000000000000000000000000000000000000000000000000000000602082015250565b7f7374616b696e672062616c616e63652063616e6e6f7420626520300000000000600082015250565b7f4552433737373a207265766f6b696e672073656c66206173206f70657261746f60008201527f7200000000000000000000000000000000000000000000000000000000000000602082015250565b7f4552433737373a206d696e7420746f20746865207a65726f2061646472657373600082015250565b7f4552433737373a20746f6b656e20726563697069656e7420636f6e747261637460008201527f20686173206e6f20696d706c656d656e74657220666f7220455243373737546f60208201527f6b656e73526563697069656e7400000000000000000000000000000000000000604082015250565b7f4552433737373a207472616e7366657220746f20746865207a65726f2061646460008201527f7265737300000000000000000000000000000000000000000000000000000000602082015250565b50565b7f4552433737373a2063616c6c6572206973206e6f7420616e206f70657261746f60008201527f7220666f7220686f6c6465720000000000000000000000000000000000000000602082015250565b7f616d6f756e742063616e6e6f7420626520300000000000000000000000000000600082015250565b7f4552433737373a207472616e7366657220616d6f756e7420657863656564732060008201527f616c6c6f77616e63650000000000000000000000000000000000000000000000602082015250565b7f4552433737373a207472616e736665722066726f6d20746865207a65726f206160008201527f6464726573730000000000000000000000000000000000000000000000000000602082015250565b7f4552433737373a206275726e20616d6f756e7420657863656564732062616c6160008201527f6e63650000000000000000000000000000000000000000000000000000000000602082015250565b7f4552433737373a2073656e6420746f20746865207a65726f2061646472657373600082015250565b7f4552433737373a20617070726f766520746f20746865207a65726f206164647260008201527f6573730000000000000000000000000000000000000000000000000000000000602082015250565b61398381613308565b811461398e57600080fd5b50565b61399a81613350565b81146139a557600080fd5b5056fea26469706673582212208d6130fda856e47ab2c9fe8eac014ff34dd4544d6eff2f14d756adeab830d58164736f6c63430008040033",
  "immutableReferences": {},
  "source": "// SPDX-License-Identifier: MIT\npragma solidity 0.8.4;\n\nimport \"./dependencies/ERC777.sol\";\n\ncontract MyERC777 is ERC777, IERC777Recipient {\n\n  constructor ()\n    ERC777(\"testground2\", \"TG2\", new address[](0))\n  {\n    uint256 initialSupply = 1005 ether;\n    _mint(msg.sender, initialSupply, \"\", \"\");\n\n    IERC1820Registry(0x1820a4B7618BdE71Dce8cdc73aAB6C95905faD24).\n      setInterfaceImplementer(address(this),\n        keccak256(\"ERC777TokensRecipient\"),\n        address(this)\n      );\n  }\n\n  function burn(uint256 _amount) public {\n    _burn(msg.sender, _amount, \"\", \"\");\n  }\n\n  function mint(uint256 _amount) public {\n    _mint(msg.sender, _amount, \"\", \"\");\n  }\n\n  // Staking Attributes\n  address[] public stakers;\n  mapping(address => uint) public stakingBalance;\n  mapping(address => bool) public hasStaked;\n  mapping(address => bool) public isStaking;\n\n  // Unstaking Tokens (Withdraw)\n  function unstakeTokens() public {\n    // Fetch staking balance\n    uint balance = stakingBalance[msg.sender];\n\n    // Require amount greater than 0\n    require(balance > 0, \"staking balance cannot be 0\");\n\n    // Transfer Mock Dai tokens to this contract for staking\n    this.send(msg.sender, balance,\"\");\n\n    // Reset staking balance\n    stakingBalance[msg.sender] = 0;\n\n    // Update staking status\n    isStaking[msg.sender] = false;\n  }\n\n  function tokensReceived(\n        address _operator,\n        address _from,\n        address _to,\n        uint256 _amount,\n        bytes calldata _userData,\n        bytes calldata _operatorData\n    ) override public\n  {\n    stakeTokensInternal(_amount, _from);\n  }\n\n  // Staking Functions\n  function stakeTokens(uint _amount) public {\n    stakeTokensInternal(_amount, msg.sender);\n  }\n\n  // Staking Functions\n  function stakeTokensInternal(uint _amount, address staker) public {\n    // Require amount greater than 0\n    require(_amount > 0, \"amount cannot be 0\");\n\n    // Trasnfer Mock Dai tokens to this contract for staking\n    //send(address(this), _amount, \"\");\n    //_send(msg.sender, address(this), _amount, \"\", \"\", true);\n\n    // Update staking balance\n    stakingBalance[staker] = stakingBalance[staker] + _amount;\n\n    // Add user to stakers array *only* if they haven't staked already\n    if(!hasStaked[staker]) {\n      stakers.push(staker);\n    }\n\n    // Update staking status\n    isStaking[staker] = true;\n    hasStaked[staker] = true;\n  }\n\n  function _beforeTokenTransfer(\n    address operator,\n    address from,\n    address to,\n    uint256 amount) override internal virtual\n  {\n    //_burn(from, 1 ether, \"\", \"\");\n  }\n}",
  "sourcePath": "/home/turupawn/Projects/Blockchain/Games/MaticERC777/contracts/MyERC777.sol",
  "compiler": {
    "name": "solc",
    "version": "0.8.4+commit.c7e474f2.Emscripten.clang"
  },
  "schemaVersion": "3.3.4",
  "updatedAt": "2021-06-01T07:44:11.521Z",
  "networkType": "ethereum",
  "devdoc": {
    "kind": "dev",
    "methods": {
      "allowance(address,address)": {
        "details": "See {IERC20-allowance}. Note that operator and allowance concepts are orthogonal: operators may not have allowance, and accounts with allowance may not be operators themselves."
      },
      "approve(address,uint256)": {
        "details": "See {IERC20-approve}. Note that accounts cannot have allowance issued by their operators."
      },
      "authorizeOperator(address)": {
        "details": "See {IERC777-authorizeOperator}."
      },
      "balanceOf(address)": {
        "details": "Returns the amount of tokens owned by an account (`tokenHolder`)."
      },
      "burn(uint256,bytes)": {
        "details": "See {IERC777-burn}. Also emits a {IERC20-Transfer} event for ERC20 compatibility."
      },
      "decimals()": {
        "details": "See {ERC20-decimals}. Always returns 18, as per the [ERC777 EIP](https://eips.ethereum.org/EIPS/eip-777#backward-compatibility)."
      },
      "defaultOperators()": {
        "details": "See {IERC777-defaultOperators}."
      },
      "granularity()": {
        "details": "See {IERC777-granularity}. This implementation always returns `1`."
      },
      "isOperatorFor(address,address)": {
        "details": "See {IERC777-isOperatorFor}."
      },
      "name()": {
        "details": "See {IERC777-name}."
      },
      "operatorBurn(address,uint256,bytes,bytes)": {
        "details": "See {IERC777-operatorBurn}. Emits {Burned} and {IERC20-Transfer} events."
      },
      "operatorSend(address,address,uint256,bytes,bytes)": {
        "details": "See {IERC777-operatorSend}. Emits {Sent} and {IERC20-Transfer} events."
      },
      "revokeOperator(address)": {
        "details": "See {IERC777-revokeOperator}."
      },
      "send(address,uint256,bytes)": {
        "details": "See {IERC777-send}. Also emits a {IERC20-Transfer} event for ERC20 compatibility."
      },
      "symbol()": {
        "details": "See {IERC777-symbol}."
      },
      "totalSupply()": {
        "details": "See {IERC777-totalSupply}."
      },
      "transfer(address,uint256)": {
        "details": "See {IERC20-transfer}. Unlike `send`, `recipient` is _not_ required to implement the {IERC777Recipient} interface if it is a contract. Also emits a {Sent} event."
      },
      "transferFrom(address,address,uint256)": {
        "details": "See {IERC20-transferFrom}. Note that operator and allowance concepts are orthogonal: operators cannot call `transferFrom` (unless they have allowance), and accounts with allowance cannot call `operatorSend` (unless they are operators). Emits {Sent}, {IERC20-Transfer} and {IERC20-Approval} events."
      }
    },
    "version": 1
  },
  "userdoc": {
    "kind": "user",
    "methods": {},
    "version": 1
  }
}