{
  "contractName": "MyERC777",
  "abi": [
    {
      "inputs": [],
      "stateMutability": "nonpayable",
      "type": "constructor"
    },
    {
      "anonymous": false,
      "inputs": [
        {
          "indexed": true,
          "internalType": "address",
          "name": "owner",
          "type": "address"
        },
        {
          "indexed": true,
          "internalType": "address",
          "name": "spender",
          "type": "address"
        },
        {
          "indexed": false,
          "internalType": "uint256",
          "name": "value",
          "type": "uint256"
        }
      ],
      "name": "Approval",
      "type": "event"
    },
    {
      "anonymous": false,
      "inputs": [
        {
          "indexed": true,
          "internalType": "address",
          "name": "operator",
          "type": "address"
        },
        {
          "indexed": true,
          "internalType": "address",
          "name": "tokenHolder",
          "type": "address"
        }
      ],
      "name": "AuthorizedOperator",
      "type": "event"
    },
    {
      "anonymous": false,
      "inputs": [
        {
          "indexed": true,
          "internalType": "address",
          "name": "operator",
          "type": "address"
        },
        {
          "indexed": true,
          "internalType": "address",
          "name": "from",
          "type": "address"
        },
        {
          "indexed": false,
          "internalType": "uint256",
          "name": "amount",
          "type": "uint256"
        },
        {
          "indexed": false,
          "internalType": "bytes",
          "name": "data",
          "type": "bytes"
        },
        {
          "indexed": false,
          "internalType": "bytes",
          "name": "operatorData",
          "type": "bytes"
        }
      ],
      "name": "Burned",
      "type": "event"
    },
    {
      "anonymous": false,
      "inputs": [
        {
          "indexed": true,
          "internalType": "address",
          "name": "operator",
          "type": "address"
        },
        {
          "indexed": true,
          "internalType": "address",
          "name": "to",
          "type": "address"
        },
        {
          "indexed": false,
          "internalType": "uint256",
          "name": "amount",
          "type": "uint256"
        },
        {
          "indexed": false,
          "internalType": "bytes",
          "name": "data",
          "type": "bytes"
        },
        {
          "indexed": false,
          "internalType": "bytes",
          "name": "operatorData",
          "type": "bytes"
        }
      ],
      "name": "Minted",
      "type": "event"
    },
    {
      "anonymous": false,
      "inputs": [
        {
          "indexed": true,
          "internalType": "address",
          "name": "operator",
          "type": "address"
        },
        {
          "indexed": true,
          "internalType": "address",
          "name": "tokenHolder",
          "type": "address"
        }
      ],
      "name": "RevokedOperator",
      "type": "event"
    },
    {
      "anonymous": false,
      "inputs": [
        {
          "indexed": true,
          "internalType": "address",
          "name": "operator",
          "type": "address"
        },
        {
          "indexed": true,
          "internalType": "address",
          "name": "from",
          "type": "address"
        },
        {
          "indexed": true,
          "internalType": "address",
          "name": "to",
          "type": "address"
        },
        {
          "indexed": false,
          "internalType": "uint256",
          "name": "amount",
          "type": "uint256"
        },
        {
          "indexed": false,
          "internalType": "bytes",
          "name": "data",
          "type": "bytes"
        },
        {
          "indexed": false,
          "internalType": "bytes",
          "name": "operatorData",
          "type": "bytes"
        }
      ],
      "name": "Sent",
      "type": "event"
    },
    {
      "anonymous": false,
      "inputs": [
        {
          "indexed": true,
          "internalType": "address",
          "name": "from",
          "type": "address"
        },
        {
          "indexed": true,
          "internalType": "address",
          "name": "to",
          "type": "address"
        },
        {
          "indexed": false,
          "internalType": "uint256",
          "name": "value",
          "type": "uint256"
        }
      ],
      "name": "Transfer",
      "type": "event"
    },
    {
      "inputs": [
        {
          "internalType": "address",
          "name": "holder",
          "type": "address"
        },
        {
          "internalType": "address",
          "name": "spender",
          "type": "address"
        }
      ],
      "name": "allowance",
      "outputs": [
        {
          "internalType": "uint256",
          "name": "",
          "type": "uint256"
        }
      ],
      "stateMutability": "view",
      "type": "function",
      "constant": true
    },
    {
      "inputs": [
        {
          "internalType": "address",
          "name": "spender",
          "type": "address"
        },
        {
          "internalType": "uint256",
          "name": "value",
          "type": "uint256"
        }
      ],
      "name": "approve",
      "outputs": [
        {
          "internalType": "bool",
          "name": "",
          "type": "bool"
        }
      ],
      "stateMutability": "nonpayable",
      "type": "function"
    },
    {
      "inputs": [
        {
          "internalType": "address",
          "name": "operator",
          "type": "address"
        }
      ],
      "name": "authorizeOperator",
      "outputs": [],
      "stateMutability": "nonpayable",
      "type": "function"
    },
    {
      "inputs": [
        {
          "internalType": "address",
          "name": "tokenHolder",
          "type": "address"
        }
      ],
      "name": "balanceOf",
      "outputs": [
        {
          "internalType": "uint256",
          "name": "",
          "type": "uint256"
        }
      ],
      "stateMutability": "view",
      "type": "function",
      "constant": true
    },
    {
      "inputs": [],
      "name": "decimals",
      "outputs": [
        {
          "internalType": "uint8",
          "name": "",
          "type": "uint8"
        }
      ],
      "stateMutability": "pure",
      "type": "function",
      "constant": true
    },
    {
      "inputs": [],
      "name": "defaultOperators",
      "outputs": [
        {
          "internalType": "address[]",
          "name": "",
          "type": "address[]"
        }
      ],
      "stateMutability": "view",
      "type": "function",
      "constant": true
    },
    {
      "inputs": [],
      "name": "granularity",
      "outputs": [
        {
          "internalType": "uint256",
          "name": "",
          "type": "uint256"
        }
      ],
      "stateMutability": "view",
      "type": "function",
      "constant": true
    },
    {
      "inputs": [
        {
          "internalType": "address",
          "name": "",
          "type": "address"
        }
      ],
      "name": "hasStaked",
      "outputs": [
        {
          "internalType": "bool",
          "name": "",
          "type": "bool"
        }
      ],
      "stateMutability": "view",
      "type": "function",
      "constant": true
    },
    {
      "inputs": [
        {
          "internalType": "address",
          "name": "operator",
          "type": "address"
        },
        {
          "internalType": "address",
          "name": "tokenHolder",
          "type": "address"
        }
      ],
      "name": "isOperatorFor",
      "outputs": [
        {
          "internalType": "bool",
          "name": "",
          "type": "bool"
        }
      ],
      "stateMutability": "view",
      "type": "function",
      "constant": true
    },
    {
      "inputs": [
        {
          "internalType": "address",
          "name": "",
          "type": "address"
        }
      ],
      "name": "isStaking",
      "outputs": [
        {
          "internalType": "bool",
          "name": "",
          "type": "bool"
        }
      ],
      "stateMutability": "view",
      "type": "function",
      "constant": true
    },
    {
      "inputs": [],
      "name": "name",
      "outputs": [
        {
          "internalType": "string",
          "name": "",
          "type": "string"
        }
      ],
      "stateMutability": "view",
      "type": "function",
      "constant": true
    },
    {
      "inputs": [
        {
          "internalType": "address",
          "name": "account",
          "type": "address"
        },
        {
          "internalType": "uint256",
          "name": "amount",
          "type": "uint256"
        },
        {
          "internalType": "bytes",
          "name": "data",
          "type": "bytes"
        },
        {
          "internalType": "bytes",
          "name": "operatorData",
          "type": "bytes"
        }
      ],
      "name": "operatorBurn",
      "outputs": [],
      "stateMutability": "nonpayable",
      "type": "function"
    },
    {
      "inputs": [
        {
          "internalType": "address",
          "name": "sender",
          "type": "address"
        },
        {
          "internalType": "address",
          "name": "recipient",
          "type": "address"
        },
        {
          "internalType": "uint256",
          "name": "amount",
          "type": "uint256"
        },
        {
          "internalType": "bytes",
          "name": "data",
          "type": "bytes"
        },
        {
          "internalType": "bytes",
          "name": "operatorData",
          "type": "bytes"
        }
      ],
      "name": "operatorSend",
      "outputs": [],
      "stateMutability": "nonpayable",
      "type": "function"
    },
    {
      "inputs": [
        {
          "internalType": "address",
          "name": "operator",
          "type": "address"
        }
      ],
      "name": "revokeOperator",
      "outputs": [],
      "stateMutability": "nonpayable",
      "type": "function"
    },
    {
      "inputs": [
        {
          "internalType": "address",
          "name": "recipient",
          "type": "address"
        },
        {
          "internalType": "uint256",
          "name": "amount",
          "type": "uint256"
        },
        {
          "internalType": "bytes",
          "name": "data",
          "type": "bytes"
        }
      ],
      "name": "send",
      "outputs": [],
      "stateMutability": "nonpayable",
      "type": "function"
    },
    {
      "inputs": [
        {
          "internalType": "uint256",
          "name": "",
          "type": "uint256"
        }
      ],
      "name": "stakers",
      "outputs": [
        {
          "internalType": "address",
          "name": "",
          "type": "address"
        }
      ],
      "stateMutability": "view",
      "type": "function",
      "constant": true
    },
    {
      "inputs": [
        {
          "internalType": "address",
          "name": "",
          "type": "address"
        }
      ],
      "name": "stakingBalance",
      "outputs": [
        {
          "internalType": "uint256",
          "name": "",
          "type": "uint256"
        }
      ],
      "stateMutability": "view",
      "type": "function",
      "constant": true
    },
    {
      "inputs": [
        {
          "internalType": "address",
          "name": "",
          "type": "address"
        }
      ],
      "name": "stakingBlock",
      "outputs": [
        {
          "internalType": "uint256",
          "name": "",
          "type": "uint256"
        }
      ],
      "stateMutability": "view",
      "type": "function",
      "constant": true
    },
    {
      "inputs": [],
      "name": "symbol",
      "outputs": [
        {
          "internalType": "string",
          "name": "",
          "type": "string"
        }
      ],
      "stateMutability": "view",
      "type": "function",
      "constant": true
    },
    {
      "inputs": [],
      "name": "totalSupply",
      "outputs": [
        {
          "internalType": "uint256",
          "name": "",
          "type": "uint256"
        }
      ],
      "stateMutability": "view",
      "type": "function",
      "constant": true
    },
    {
      "inputs": [
        {
          "internalType": "address",
          "name": "recipient",
          "type": "address"
        },
        {
          "internalType": "uint256",
          "name": "amount",
          "type": "uint256"
        }
      ],
      "name": "transfer",
      "outputs": [
        {
          "internalType": "bool",
          "name": "",
          "type": "bool"
        }
      ],
      "stateMutability": "nonpayable",
      "type": "function"
    },
    {
      "inputs": [
        {
          "internalType": "address",
          "name": "holder",
          "type": "address"
        },
        {
          "internalType": "address",
          "name": "recipient",
          "type": "address"
        },
        {
          "internalType": "uint256",
          "name": "amount",
          "type": "uint256"
        }
      ],
      "name": "transferFrom",
      "outputs": [
        {
          "internalType": "bool",
          "name": "",
          "type": "bool"
        }
      ],
      "stateMutability": "nonpayable",
      "type": "function"
    },
    {
      "inputs": [
        {
          "internalType": "uint256",
          "name": "_amount",
          "type": "uint256"
        }
      ],
      "name": "burn",
      "outputs": [],
      "stateMutability": "nonpayable",
      "type": "function"
    },
    {
      "inputs": [
        {
          "internalType": "uint256",
          "name": "amount",
          "type": "uint256"
        },
        {
          "internalType": "bytes",
          "name": "data",
          "type": "bytes"
        }
      ],
      "name": "burn",
      "outputs": [],
      "stateMutability": "nonpayable",
      "type": "function"
    },
    {
      "inputs": [
        {
          "internalType": "uint256",
          "name": "_amount",
          "type": "uint256"
        }
      ],
      "name": "mint",
      "outputs": [],
      "stateMutability": "nonpayable",
      "type": "function"
    },
    {
      "inputs": [],
      "name": "unstakeTokens",
      "outputs": [],
      "stateMutability": "nonpayable",
      "type": "function"
    },
    {
      "inputs": [
        {
          "internalType": "address",
          "name": "_address",
          "type": "address"
        }
      ],
      "name": "getReward",
      "outputs": [
        {
          "internalType": "uint256",
          "name": "",
          "type": "uint256"
        }
      ],
      "stateMutability": "view",
      "type": "function",
      "constant": true
    },
    {
      "inputs": [
        {
          "internalType": "uint256",
          "name": "_amount",
          "type": "uint256"
        }
      ],
      "name": "stakeTokens",
      "outputs": [],
      "stateMutability": "nonpayable",
      "type": "function"
    },
    {
      "inputs": [
        {
          "internalType": "address",
          "name": "_operator",
          "type": "address"
        },
        {
          "internalType": "address",
          "name": "_from",
          "type": "address"
        },
        {
          "internalType": "address",
          "name": "_to",
          "type": "address"
        },
        {
          "internalType": "uint256",
          "name": "_amount",
          "type": "uint256"
        },
        {
          "internalType": "bytes",
          "name": "_userData",
          "type": "bytes"
        },
        {
          "internalType": "bytes",
          "name": "_operatorData",
          "type": "bytes"
        }
      ],
      "name": "tokensReceived",
      "outputs": [],
      "stateMutability": "nonpayable",
      "type": "function"
    }
  ],
  "bytecode": "0x6080604052670de0b6b3a7640000600955674563918244f40000600a553480156200002957600080fd5b506040518060400160405280600b81526020017f7465737467726f756e64320000000000000000000000000000000000000000008152506040518060400160405280600381526020017f5447320000000000000000000000000000000000000000000000000000000000815250600067ffffffffffffffff811115620000d8577f4e487b7100000000000000000000000000000000000000000000000000000000600052604160045260246000fd5b604051908082528060200260200182016040528015620001075781602001602082028036833780820191505090505b5082600290805190602001906200012092919062000d29565b5081600390805190602001906200013992919062000d29565b5080600490805190602001906200015292919062000dba565b5060005b81518110156200020f57600160056000848481518110620001a0577f4e487b7100000000000000000000000000000000000000000000000000000000600052603260045260246000fd5b602002602001015173ffffffffffffffffffffffffffffffffffffffff1673ffffffffffffffffffffffffffffffffffffffff16815260200190815260200160002060006101000a81548160ff0219169083151502179055508080620002069062001309565b91505062000156565b50731820a4b7618bde71dce8cdc73aab6c95905fad2473ffffffffffffffffffffffffffffffffffffffff166329965a1d307fac7fbab5f54a3ca8194167523c6753bfeb96a445279294b6125b68cce2177054306040518463ffffffff1660e01b8152600401620002839392919062001063565b600060405180830381600087803b1580156200029e57600080fd5b505af1158015620002b3573d6000803e3d6000fd5b50505050731820a4b7618bde71dce8cdc73aab6c95905fad2473ffffffffffffffffffffffffffffffffffffffff166329965a1d307faea199e31a596269b42cdafd93407f14436db6e4cad65417994c2eb37381e05a306040518463ffffffff1660e01b81526004016200032a9392919062001063565b600060405180830381600087803b1580156200034557600080fd5b505af11580156200035a573d6000803e3d6000fd5b50505050505050600068367b2d3f48239400009050620003a1338260405180602001604052806000815250604051806020016040528060008152506200044f60201b60201c565b731820a4b7618bde71dce8cdc73aab6c95905fad2473ffffffffffffffffffffffffffffffffffffffff166329965a1d307fb281fc8c12954d22544db45de3159a39272895b169a852b314f9cc762e44c53b306040518463ffffffff1660e01b8152600401620004149392919062001063565b600060405180830381600087803b1580156200042f57600080fd5b505af115801562000444573d6000803e3d6000fd5b50505050506200151c565b620004658484848460016200046b60201b60201c565b50505050565b600073ffffffffffffffffffffffffffffffffffffffff168573ffffffffffffffffffffffffffffffffffffffff161415620004de576040517f08c379a0000000000000000000000000000000000000000000000000000000008152600401620004d590620010c2565b60405180910390fd5b6000620004f06200066c60201b60201c565b90506200050781600088886200067460201b60201c565b84600160008282546200051b9190620011bd565b92505081905550846000808873ffffffffffffffffffffffffffffffffffffffff1673ffffffffffffffffffffffffffffffffffffffff1681526020019081526020016000206000828254620005729190620011bd565b925050819055506200059181600088888888886200072060201b60201c565b8573ffffffffffffffffffffffffffffffffffffffff168173ffffffffffffffffffffffffffffffffffffffff167f2fe5be0146f74c5bce36c0b80911af6c7d86ff27e89d5cfa61fc681327954e5d878787604051620005f49392919062001145565b60405180910390a38573ffffffffffffffffffffffffffffffffffffffff16600073ffffffffffffffffffffffffffffffffffffffff167fddf252ad1be2c89b69c2b068fc378daa952ba7f163c4a11628f55a4df523b3ef876040516200065c919062001128565b60405180910390a3505050505050565b600033905090565b600073ffffffffffffffffffffffffffffffffffffffff168373ffffffffffffffffffffffffffffffffffffffff1614158015620006df5750600073ffffffffffffffffffffffffffffffffffffffff168273ffffffffffffffffffffffffffffffffffffffff1614155b156200071a57620007198360095460405180602001604052806000815250604051806020016040528060008152506200091e60201b60201c565b5b50505050565b6000731820a4b7618bde71dce8cdc73aab6c95905fad2473ffffffffffffffffffffffffffffffffffffffff1663aabbb8ca877fb281fc8c12954d22544db45de3159a39272895b169a852b314f9cc762e44c53b6040518363ffffffff1660e01b81526004016200079392919062001036565b60206040518083038186803b158015620007ac57600080fd5b505afa158015620007c1573d6000803e3d6000fd5b505050506040513d601f19601f82011682018060405250810190620007e7919062000e7f565b9050600073ffffffffffffffffffffffffffffffffffffffff168173ffffffffffffffffffffffffffffffffffffffff16146200089c578073ffffffffffffffffffffffffffffffffffffffff166223de298989898989896040518763ffffffff1660e01b8152600401620008629695949392919062000fbb565b600060405180830381600087803b1580156200087d57600080fd5b505af115801562000892573d6000803e3d6000fd5b5050505062000914565b81156200091357620008cf8673ffffffffffffffffffffffffffffffffffffffff1662000b9560201b620019721760201c565b1562000912576040517f08c379a00000000000000000000000000000000000000000000000000000000081526004016200090990620010e4565b60405180910390fd5b5b5b5050505050505050565b600073ffffffffffffffffffffffffffffffffffffffff168473ffffffffffffffffffffffffffffffffffffffff16141562000991576040517f08c379a00000000000000000000000000000000000000000000000000000000081526004016200098890620010a0565b60405180910390fd5b6000620009a36200066c60201b60201c565b9050620009bc8186600087878762000ba860201b60201c565b620009d181866000876200067460201b60201c565b60008060008773ffffffffffffffffffffffffffffffffffffffff1673ffffffffffffffffffffffffffffffffffffffff1681526020019081526020016000205490508481101562000a5a576040517f08c379a000000000000000000000000000000000000000000000000000000000815260040162000a519062001106565b60405180910390fd5b8481036000808873ffffffffffffffffffffffffffffffffffffffff1673ffffffffffffffffffffffffffffffffffffffff16815260200190815260200160002081905550846001600082825462000ab391906200121a565b925050819055508573ffffffffffffffffffffffffffffffffffffffff168273ffffffffffffffffffffffffffffffffffffffff167fa78a9be3a7b862d26933ad85fb11d80ef66b8f972d7cbba06621d583943a409887878760405162000b1d9392919062001145565b60405180910390a3600073ffffffffffffffffffffffffffffffffffffffff168673ffffffffffffffffffffffffffffffffffffffff167fddf252ad1be2c89b69c2b068fc378daa952ba7f163c4a11628f55a4df523b3ef8760405162000b85919062001128565b60405180910390a3505050505050565b600080823b905060008111915050919050565b6000731820a4b7618bde71dce8cdc73aab6c95905fad2473ffffffffffffffffffffffffffffffffffffffff1663aabbb8ca877f29ddb589b1fb5fc7cf394961c1adf5f8c6454761adf795e67fe149f658abe8956040518363ffffffff1660e01b815260040162000c1b92919062001036565b60206040518083038186803b15801562000c3457600080fd5b505afa15801562000c49573d6000803e3d6000fd5b505050506040513d601f19601f8201168201806040525081019062000c6f919062000e7f565b9050600073ffffffffffffffffffffffffffffffffffffffff168173ffffffffffffffffffffffffffffffffffffffff161462000d20578073ffffffffffffffffffffffffffffffffffffffff166375ab97828888888888886040518763ffffffff1660e01b815260040162000ceb9695949392919062000fbb565b600060405180830381600087803b15801562000d0657600080fd5b505af115801562000d1b573d6000803e3d6000fd5b505050505b50505050505050565b82805462000d3790620012d3565b90600052602060002090601f01602090048101928262000d5b576000855562000da7565b82601f1062000d7657805160ff191683800117855562000da7565b8280016001018555821562000da7579182015b8281111562000da657825182559160200191906001019062000d89565b5b50905062000db6919062000e49565b5090565b82805482825590600052602060002090810192821562000e36579160200282015b8281111562000e355782518260006101000a81548173ffffffffffffffffffffffffffffffffffffffff021916908373ffffffffffffffffffffffffffffffffffffffff1602179055509160200191906001019062000ddb565b5b50905062000e45919062000e49565b5090565b5b8082111562000e6457600081600090555060010162000e4a565b5090565b60008151905062000e798162001502565b92915050565b60006020828403121562000e9257600080fd5b600062000ea28482850162000e68565b91505092915050565b62000eb68162001255565b82525050565b62000ec78162001269565b82525050565b600062000eda8262001190565b62000ee681856200119b565b935062000ef88185602086016200129d565b62000f0381620013b5565b840191505092915050565b600062000f1d602283620011ac565b915062000f2a82620013c6565b604082019050919050565b600062000f44602083620011ac565b915062000f518262001415565b602082019050919050565b600062000f6b604d83620011ac565b915062000f78826200143e565b606082019050919050565b600062000f92602383620011ac565b915062000f9f82620014b3565b604082019050919050565b62000fb58162001293565b82525050565b600060c08201905062000fd2600083018962000eab565b62000fe1602083018862000eab565b62000ff0604083018762000eab565b62000fff606083018662000faa565b818103608083015262001013818562000ecd565b905081810360a083015262001029818462000ecd565b9050979650505050505050565b60006040820190506200104d600083018562000eab565b6200105c602083018462000ebc565b9392505050565b60006060820190506200107a600083018662000eab565b62001089602083018562000ebc565b62001098604083018462000eab565b949350505050565b60006020820190508181036000830152620010bb8162000f0e565b9050919050565b60006020820190508181036000830152620010dd8162000f35565b9050919050565b60006020820190508181036000830152620010ff8162000f5c565b9050919050565b60006020820190508181036000830152620011218162000f83565b9050919050565b60006020820190506200113f600083018462000faa565b92915050565b60006060820190506200115c600083018662000faa565b818103602083015262001170818562000ecd565b9050818103604083015262001186818462000ecd565b9050949350505050565b600081519050919050565b600082825260208201905092915050565b600082825260208201905092915050565b6000620011ca8262001293565b9150620011d78362001293565b9250827fffffffffffffffffffffffffffffffffffffffffffffffffffffffffffffffff038211156200120f576200120e62001357565b5b828201905092915050565b6000620012278262001293565b9150620012348362001293565b9250828210156200124a576200124962001357565b5b828203905092915050565b6000620012628262001273565b9050919050565b6000819050919050565b600073ffffffffffffffffffffffffffffffffffffffff82169050919050565b6000819050919050565b60005b83811015620012bd578082015181840152602081019050620012a0565b83811115620012cd576000848401525b50505050565b60006002820490506001821680620012ec57607f821691505b6020821081141562001303576200130262001386565b5b50919050565b6000620013168262001293565b91507fffffffffffffffffffffffffffffffffffffffffffffffffffffffffffffffff8214156200134c576200134b62001357565b5b600182019050919050565b7f4e487b7100000000000000000000000000000000000000000000000000000000600052601160045260246000fd5b7f4e487b7100000000000000000000000000000000000000000000000000000000600052602260045260246000fd5b6000601f19601f8301169050919050565b7f4552433737373a206275726e2066726f6d20746865207a65726f20616464726560008201527f7373000000000000000000000000000000000000000000000000000000000000602082015250565b7f4552433737373a206d696e7420746f20746865207a65726f2061646472657373600082015250565b7f4552433737373a20746f6b656e20726563697069656e7420636f6e747261637460008201527f20686173206e6f20696d706c656d656e74657220666f7220455243373737546f60208201527f6b656e73526563697069656e7400000000000000000000000000000000000000604082015250565b7f4552433737373a206275726e20616d6f756e7420657863656564732062616c6160008201527f6e63650000000000000000000000000000000000000000000000000000000000602082015250565b6200150d8162001255565b81146200151957600080fd5b50565b613bdb806200152c6000396000f3fe608060405234801561001057600080fd5b50600436106101ce5760003560e01c80637547c7a311610104578063c00007b0116100a2578063fad8b32a11610071578063fad8b32a14610565578063fc673c4f14610581578063fd5e6dd11461059d578063fe9d9303146105cd576101ce565b8063c00007b0146104a5578063c93c8f34146104d5578063d95b637114610505578063dd62ed3e14610535576101ce565b80639bd9bbc6116100de5780639bd9bbc614610433578063a0712d681461044f578063a5ce413b1461046b578063a9059cbb14610475576101ce565b80637547c7a3146103dd578063959b8c3f146103f957806395d89b4114610415576101ce565b806342966c6811610171578063556f0dc71161014b578063556f0dc71461034357806362ad1b83146103615780636f49712b1461037d57806370a08231146103ad576101ce565b806342966c68146102c757806345bc78ab146102e357806348e678e714610313576101ce565b8063095ea7b3116101ad578063095ea7b31461022b57806318160ddd1461025b57806323b872dd14610279578063313ce567146102a9576101ce565b806223de29146101d357806306e48538146101ef57806306fdde031461020d575b600080fd5b6101ed60048036038101906101e8919061284f565b6105e9565b005b6101f761086d565b6040516102049190613003565b60405180910390f35b6102156108fb565b6040516102229190613040565b60405180910390f35b61024560048036038101906102409190612a08565b61098d565b6040516102529190613025565b60405180910390f35b6102636109b0565b6040516102709190613282565b60405180910390f35b610293600480360381019061028e9190612912565b6109ba565b6040516102a09190613025565b60405180910390f35b6102b1610c14565b6040516102be91906132e2565b60405180910390f35b6102e160048036038101906102dc9190612b3e565b610c1d565b005b6102fd60048036038101906102f891906127c1565b610c4a565b60405161030a9190613282565b60405180910390f35b61032d600480360381019061032891906127c1565b610c62565b60405161033a9190613282565b60405180910390f35b61034b610c7a565b6040516103589190613282565b60405180910390f35b61037b60048036038101906103769190612961565b610c83565b005b610397600480360381019061039291906127c1565b610ce9565b6040516103a49190613025565b60405180910390f35b6103c760048036038101906103c291906127c1565b610d09565b6040516103d49190613282565b60405180910390f35b6103f760048036038101906103f29190612b3e565b610d51565b005b610413600480360381019061040e91906127c1565b610d6e565b005b61041d610fcf565b60405161042a9190613040565b60405180910390f35b61044d60048036038101906104489190612a44565b611061565b005b61046960048036038101906104649190612b3e565b61108b565b005b6104736110b8565b005b61048f600480360381019061048a9190612a08565b61122f565b60405161049c9190613025565b60405180910390f35b6104bf60048036038101906104ba91906127c1565b61133d565b6040516104cc9190613282565b60405180910390f35b6104ef60048036038101906104ea91906127c1565b6113f2565b6040516104fc9190613025565b60405180910390f35b61051f600480360381019061051a9190612813565b611412565b60405161052c9190613025565b60405180910390f35b61054f600480360381019061054a9190612813565b6115c3565b60405161055c9190613282565b60405180910390f35b61057f600480360381019061057a91906127c1565b61164a565b005b61059b60048036038101906105969190612aab565b6118ab565b005b6105b760048036038101906105b29190612b3e565b61190d565b6040516105c49190612f50565b60405180910390f35b6105e760048036038101906105e29190612b67565b61194c565b005b6000851161062c576040517f08c379a0000000000000000000000000000000000000000000000000000000008152600401610623906131c2565b60405180910390fd5b84600d60008973ffffffffffffffffffffffffffffffffffffffff1673ffffffffffffffffffffffffffffffffffffffff1681526020019081526020016000205461067791906133c4565b600d60008973ffffffffffffffffffffffffffffffffffffffff1673ffffffffffffffffffffffffffffffffffffffff16815260200190815260200160002081905550600e60008873ffffffffffffffffffffffffffffffffffffffff1673ffffffffffffffffffffffffffffffffffffffff16815260200190815260200160002060009054906101000a900460ff1661076f57600b879080600181540180825580915050600190039060005260206000200160009091909190916101000a81548173ffffffffffffffffffffffffffffffffffffffff021916908373ffffffffffffffffffffffffffffffffffffffff1602179055505b6001600f60008973ffffffffffffffffffffffffffffffffffffffff1673ffffffffffffffffffffffffffffffffffffffff16815260200190815260200160002060006101000a81548160ff0219169083151502179055506001600e60008973ffffffffffffffffffffffffffffffffffffffff1673ffffffffffffffffffffffffffffffffffffffff16815260200190815260200160002060006101000a81548160ff02191690831515021790555042600c60008973ffffffffffffffffffffffffffffffffffffffff1673ffffffffffffffffffffffffffffffffffffffff168152602001908152602001600020819055505050505050505050565b606060048054806020026020016040519081016040528092919081815260200182805480156108f157602002820191906000526020600020905b8160009054906101000a900473ffffffffffffffffffffffffffffffffffffffff1673ffffffffffffffffffffffffffffffffffffffff16815260200190600101908083116108a7575b5050505050905090565b60606002805461090a9061357a565b80601f01602080910402602001604051908101604052809291908181526020018280546109369061357a565b80156109835780601f1061095857610100808354040283529160200191610983565b820191906000526020600020905b81548152906001019060200180831161096657829003601f168201915b5050505050905090565b600080610998611985565b90506109a581858561198d565b600191505092915050565b6000600154905090565b60008073ffffffffffffffffffffffffffffffffffffffff168373ffffffffffffffffffffffffffffffffffffffff161415610a2b576040517f08c379a0000000000000000000000000000000000000000000000000000000008152600401610a2290613182565b60405180910390fd5b600073ffffffffffffffffffffffffffffffffffffffff168473ffffffffffffffffffffffffffffffffffffffff161415610a9b576040517f08c379a0000000000000000000000000000000000000000000000000000000008152600401610a9290613202565b60405180910390fd5b6000610aa5611985565b9050610ad3818686866040518060200160405280600081525060405180602001604052806000815250611b58565b610aff818686866040518060200160405280600081525060405180602001604052806000815250611cce565b6000600860008773ffffffffffffffffffffffffffffffffffffffff1673ffffffffffffffffffffffffffffffffffffffff16815260200190815260200160002060008373ffffffffffffffffffffffffffffffffffffffff1673ffffffffffffffffffffffffffffffffffffffff16815260200190815260200160002054905083811015610bc3576040517f08c379a0000000000000000000000000000000000000000000000000000000008152600401610bba906131e2565b60405180910390fd5b610bd986838684610bd491906134a5565b61198d565b610c078287878760405180602001604052806000815250604051806020016040528060008152506000611ee8565b6001925050509392505050565b60006012905090565b610c47338260405180602001604052806000815250604051806020016040528060008152506120c9565b50565b600d6020528060005260406000206000915090505481565b600c6020528060005260406000206000915090505481565b60006001905090565b610c94610c8e611985565b86611412565b610cd3576040517f08c379a0000000000000000000000000000000000000000000000000000000008152600401610cca906131a2565b60405180910390fd5b610ce28585858585600161231c565b5050505050565b600f6020528060005260406000206000915054906101000a900460ff1681565b60008060008373ffffffffffffffffffffffffffffffffffffffff1673ffffffffffffffffffffffffffffffffffffffff168152602001908152602001600020549050919050565b610d6b308260405180602001604052806000815250611061565b50565b8073ffffffffffffffffffffffffffffffffffffffff16610d8d611985565b73ffffffffffffffffffffffffffffffffffffffff161415610de4576040517f08c379a0000000000000000000000000000000000000000000000000000000008152600401610ddb906130e2565b60405180910390fd5b600560008273ffffffffffffffffffffffffffffffffffffffff1673ffffffffffffffffffffffffffffffffffffffff16815260200190815260200160002060009054906101000a900460ff1615610ece5760076000610e42611985565b73ffffffffffffffffffffffffffffffffffffffff1673ffffffffffffffffffffffffffffffffffffffff16815260200190815260200160002060008273ffffffffffffffffffffffffffffffffffffffff1673ffffffffffffffffffffffffffffffffffffffff16815260200190815260200160002060006101000a81549060ff0219169055610f6b565b600160066000610edc611985565b73ffffffffffffffffffffffffffffffffffffffff1673ffffffffffffffffffffffffffffffffffffffff16815260200190815260200160002060008373ffffffffffffffffffffffffffffffffffffffff1673ffffffffffffffffffffffffffffffffffffffff16815260200190815260200160002060006101000a81548160ff0219169083151502179055505b610f73611985565b73ffffffffffffffffffffffffffffffffffffffff168173ffffffffffffffffffffffffffffffffffffffff167ff4caeb2d6ca8932a215a353d0703c326ec2d81fc68170f320eb2ab49e9df61f960405160405180910390a350565b606060038054610fde9061357a565b80601f016020809104026020016040519081016040528092919081815260200182805461100a9061357a565b80156110575780601f1061102c57610100808354040283529160200191611057565b820191906000526020600020905b81548152906001019060200180831161103a57829003601f168201915b5050505050905090565b61108661106c611985565b84848460405180602001604052806000815250600161231c565b505050565b6110b53382604051806020016040528060008152506040518060200160405280600081525061243c565b50565b6000600d60003373ffffffffffffffffffffffffffffffffffffffff1673ffffffffffffffffffffffffffffffffffffffff1681526020019081526020016000205490506000811161113f576040517f08c379a000000000000000000000000000000000000000000000000000000000815260040161113690613102565b60405180910390fd5b600061114a3361133d565b905061118e33600a54838561115f91906133c4565b61116991906134a5565b604051806020016040528060008152506040518060200160405280600081525061243c565b6000600d60003373ffffffffffffffffffffffffffffffffffffffff1673ffffffffffffffffffffffffffffffffffffffff168152602001908152602001600020819055506000600f60003373ffffffffffffffffffffffffffffffffffffffff1673ffffffffffffffffffffffffffffffffffffffff16815260200190815260200160002060006101000a81548160ff0219169083151502179055505050565b60008073ffffffffffffffffffffffffffffffffffffffff168373ffffffffffffffffffffffffffffffffffffffff1614156112a0576040517f08c379a000000000000000000000000000000000000000000000000000000000815260040161129790613182565b60405180910390fd5b60006112aa611985565b90506112d8818286866040518060200160405280600081525060405180602001604052806000815250611b58565b611304818286866040518060200160405280600081525060405180602001604052806000815250611cce565b6113328182868660405180602001604052806000815250604051806020016040528060008152506000611ee8565b600191505092915050565b600080600d60008473ffffffffffffffffffffffffffffffffffffffff1673ffffffffffffffffffffffffffffffffffffffff1681526020019081526020016000205490506000600c60008573ffffffffffffffffffffffffffffffffffffffff1673ffffffffffffffffffffffffffffffffffffffff16815260200190815260200160002054426113cf91906134a5565b9050606481836113df919061344b565b6113e9919061341a565b92505050919050565b600e6020528060005260406000206000915054906101000a900460ff1681565b60008173ffffffffffffffffffffffffffffffffffffffff168373ffffffffffffffffffffffffffffffffffffffff16148061152a5750600560008473ffffffffffffffffffffffffffffffffffffffff1673ffffffffffffffffffffffffffffffffffffffff16815260200190815260200160002060009054906101000a900460ff1680156115295750600760008373ffffffffffffffffffffffffffffffffffffffff1673ffffffffffffffffffffffffffffffffffffffff16815260200190815260200160002060008473ffffffffffffffffffffffffffffffffffffffff1673ffffffffffffffffffffffffffffffffffffffff16815260200190815260200160002060009054906101000a900460ff16155b5b806115bb5750600660008373ffffffffffffffffffffffffffffffffffffffff1673ffffffffffffffffffffffffffffffffffffffff16815260200190815260200160002060008473ffffffffffffffffffffffffffffffffffffffff1673ffffffffffffffffffffffffffffffffffffffff16815260200190815260200160002060009054906101000a900460ff165b905092915050565b6000600860008473ffffffffffffffffffffffffffffffffffffffff1673ffffffffffffffffffffffffffffffffffffffff16815260200190815260200160002060008373ffffffffffffffffffffffffffffffffffffffff1673ffffffffffffffffffffffffffffffffffffffff16815260200190815260200160002054905092915050565b611652611985565b73ffffffffffffffffffffffffffffffffffffffff168173ffffffffffffffffffffffffffffffffffffffff1614156116c0576040517f08c379a00000000000000000000000000000000000000000000000000000000081526004016116b790613122565b60405180910390fd5b600560008273ffffffffffffffffffffffffffffffffffffffff1673ffffffffffffffffffffffffffffffffffffffff16815260200190815260200160002060009054906101000a900460ff16156117b357600160076000611720611985565b73ffffffffffffffffffffffffffffffffffffffff1673ffffffffffffffffffffffffffffffffffffffff16815260200190815260200160002060008373ffffffffffffffffffffffffffffffffffffffff1673ffffffffffffffffffffffffffffffffffffffff16815260200190815260200160002060006101000a81548160ff021916908315150217905550611847565b600660006117bf611985565b73ffffffffffffffffffffffffffffffffffffffff1673ffffffffffffffffffffffffffffffffffffffff16815260200190815260200160002060008273ffffffffffffffffffffffffffffffffffffffff1673ffffffffffffffffffffffffffffffffffffffff16815260200190815260200160002060006101000a81549060ff02191690555b61184f611985565b73ffffffffffffffffffffffffffffffffffffffff168173ffffffffffffffffffffffffffffffffffffffff167f50546e66e5f44d728365dc3908c63bc5cfeeab470722c1677e3073a6ac294aa160405160405180910390a350565b6118bc6118b6611985565b85611412565b6118fb576040517f08c379a00000000000000000000000000000000000000000000000000000000081526004016118f2906131a2565b60405180910390fd5b611907848484846120c9565b50505050565b600b818154811061191d57600080fd5b906000526020600020016000915054906101000a900473ffffffffffffffffffffffffffffffffffffffff1681565b61196e611957611985565b8383604051806020016040528060008152506120c9565b5050565b600080823b905060008111915050919050565b600033905090565b600073ffffffffffffffffffffffffffffffffffffffff168373ffffffffffffffffffffffffffffffffffffffff1614156119fd576040517f08c379a00000000000000000000000000000000000000000000000000000000081526004016119f490613062565b60405180910390fd5b600073ffffffffffffffffffffffffffffffffffffffff168273ffffffffffffffffffffffffffffffffffffffff161415611a6d576040517f08c379a0000000000000000000000000000000000000000000000000000000008152600401611a6490613262565b60405180910390fd5b80600860008573ffffffffffffffffffffffffffffffffffffffff1673ffffffffffffffffffffffffffffffffffffffff16815260200190815260200160002060008473ffffffffffffffffffffffffffffffffffffffff1673ffffffffffffffffffffffffffffffffffffffff168152602001908152602001600020819055508173ffffffffffffffffffffffffffffffffffffffff168373ffffffffffffffffffffffffffffffffffffffff167f8c5be1e5ebec7d5bd14f71427d1e84f3dd0314c0f7b2291e5b200ac8c7c3b92583604051611b4b9190613282565b60405180910390a3505050565b6000731820a4b7618bde71dce8cdc73aab6c95905fad2473ffffffffffffffffffffffffffffffffffffffff1663aabbb8ca877f29ddb589b1fb5fc7cf394961c1adf5f8c6454761adf795e67fe149f658abe8956040518363ffffffff1660e01b8152600401611bc9929190612fda565b60206040518083038186803b158015611be157600080fd5b505afa158015611bf5573d6000803e3d6000fd5b505050506040513d601f19601f82011682018060405250810190611c1991906127ea565b9050600073ffffffffffffffffffffffffffffffffffffffff168173ffffffffffffffffffffffffffffffffffffffff1614611cc5578073ffffffffffffffffffffffffffffffffffffffff166375ab97828888888888886040518763ffffffff1660e01b8152600401611c9296959493929190612f6b565b600060405180830381600087803b158015611cac57600080fd5b505af1158015611cc0573d6000803e3d6000fd5b505050505b50505050505050565b611cda86868686612450565b60008060008773ffffffffffffffffffffffffffffffffffffffff1673ffffffffffffffffffffffffffffffffffffffff16815260200190815260200160002054905083811015611d60576040517f08c379a0000000000000000000000000000000000000000000000000000000008152600401611d57906130a2565b60405180910390fd5b8381036000808873ffffffffffffffffffffffffffffffffffffffff1673ffffffffffffffffffffffffffffffffffffffff16815260200190815260200160002081905550836000808773ffffffffffffffffffffffffffffffffffffffff1673ffffffffffffffffffffffffffffffffffffffff1681526020019081526020016000206000828254611df391906133c4565b925050819055508473ffffffffffffffffffffffffffffffffffffffff168673ffffffffffffffffffffffffffffffffffffffff168873ffffffffffffffffffffffffffffffffffffffff167f06b541ddaa720db2b10a4d0cdac39b8d360425fc073085fac19bc82614677987878787604051611e729392919061329d565b60405180910390a48473ffffffffffffffffffffffffffffffffffffffff168673ffffffffffffffffffffffffffffffffffffffff167fddf252ad1be2c89b69c2b068fc378daa952ba7f163c4a11628f55a4df523b3ef86604051611ed79190613282565b60405180910390a350505050505050565b6000731820a4b7618bde71dce8cdc73aab6c95905fad2473ffffffffffffffffffffffffffffffffffffffff1663aabbb8ca877fb281fc8c12954d22544db45de3159a39272895b169a852b314f9cc762e44c53b6040518363ffffffff1660e01b8152600401611f59929190612fda565b60206040518083038186803b158015611f7157600080fd5b505afa158015611f85573d6000803e3d6000fd5b505050506040513d601f19601f82011682018060405250810190611fa991906127ea565b9050600073ffffffffffffffffffffffffffffffffffffffff168173ffffffffffffffffffffffffffffffffffffffff1614612058578073ffffffffffffffffffffffffffffffffffffffff166223de298989898989896040518763ffffffff1660e01b815260040161202196959493929190612f6b565b600060405180830381600087803b15801561203b57600080fd5b505af115801561204f573d6000803e3d6000fd5b505050506120bf565b81156120be5761207d8673ffffffffffffffffffffffffffffffffffffffff16611972565b156120bd576040517f08c379a00000000000000000000000000000000000000000000000000000000081526004016120b490613162565b60405180910390fd5b5b5b5050505050505050565b600073ffffffffffffffffffffffffffffffffffffffff168473ffffffffffffffffffffffffffffffffffffffff161415612139576040517f08c379a0000000000000000000000000000000000000000000000000000000008152600401612130906130c2565b60405180910390fd5b6000612143611985565b905061215481866000878787611b58565b6121618186600087612450565b60008060008773ffffffffffffffffffffffffffffffffffffffff1673ffffffffffffffffffffffffffffffffffffffff168152602001908152602001600020549050848110156121e7576040517f08c379a00000000000000000000000000000000000000000000000000000000081526004016121de90613222565b60405180910390fd5b8481036000808873ffffffffffffffffffffffffffffffffffffffff1673ffffffffffffffffffffffffffffffffffffffff16815260200190815260200160002081905550846001600082825461223e91906134a5565b925050819055508573ffffffffffffffffffffffffffffffffffffffff168273ffffffffffffffffffffffffffffffffffffffff167fa78a9be3a7b862d26933ad85fb11d80ef66b8f972d7cbba06621d583943a40988787876040516122a69392919061329d565b60405180910390a3600073ffffffffffffffffffffffffffffffffffffffff168673ffffffffffffffffffffffffffffffffffffffff167fddf252ad1be2c89b69c2b068fc378daa952ba7f163c4a11628f55a4df523b3ef8760405161230c9190613282565b60405180910390a3505050505050565b600073ffffffffffffffffffffffffffffffffffffffff168673ffffffffffffffffffffffffffffffffffffffff16141561238c576040517f08c379a000000000000000000000000000000000000000000000000000000000815260040161238390613082565b60405180910390fd5b600073ffffffffffffffffffffffffffffffffffffffff168573ffffffffffffffffffffffffffffffffffffffff1614156123fc576040517f08c379a00000000000000000000000000000000000000000000000000000000081526004016123f390613242565b60405180910390fd5b6000612406611985565b9050612416818888888888611b58565b612424818888888888611cce565b61243381888888888888611ee8565b50505050505050565b61244a8484848460016124f2565b50505050565b600073ffffffffffffffffffffffffffffffffffffffff168373ffffffffffffffffffffffffffffffffffffffff16141580156124ba5750600073ffffffffffffffffffffffffffffffffffffffff168273ffffffffffffffffffffffffffffffffffffffff1614155b156124ec576124eb8360095460405180602001604052806000815250604051806020016040528060008152506120c9565b5b50505050565b600073ffffffffffffffffffffffffffffffffffffffff168573ffffffffffffffffffffffffffffffffffffffff161415612562576040517f08c379a000000000000000000000000000000000000000000000000000000000815260040161255990613142565b60405180910390fd5b600061256c611985565b905061257b8160008888612450565b846001600082825461258d91906133c4565b92505081905550846000808873ffffffffffffffffffffffffffffffffffffffff1673ffffffffffffffffffffffffffffffffffffffff16815260200190815260200160002060008282546125e291906133c4565b925050819055506125f98160008888888888611ee8565b8573ffffffffffffffffffffffffffffffffffffffff168173ffffffffffffffffffffffffffffffffffffffff167f2fe5be0146f74c5bce36c0b80911af6c7d86ff27e89d5cfa61fc681327954e5d87878760405161265a9392919061329d565b60405180910390a38573ffffffffffffffffffffffffffffffffffffffff16600073ffffffffffffffffffffffffffffffffffffffff167fddf252ad1be2c89b69c2b068fc378daa952ba7f163c4a11628f55a4df523b3ef876040516126c09190613282565b60405180910390a3505050505050565b60006126e36126de84613322565b6132fd565b9050828152602081018484840111156126fb57600080fd5b612706848285613538565b509392505050565b60008135905061271d81613b77565b92915050565b60008151905061273281613b77565b92915050565b60008083601f84011261274a57600080fd5b8235905067ffffffffffffffff81111561276357600080fd5b60208301915083600182028301111561277b57600080fd5b9250929050565b600082601f83011261279357600080fd5b81356127a38482602086016126d0565b91505092915050565b6000813590506127bb81613b8e565b92915050565b6000602082840312156127d357600080fd5b60006127e18482850161270e565b91505092915050565b6000602082840312156127fc57600080fd5b600061280a84828501612723565b91505092915050565b6000806040838503121561282657600080fd5b60006128348582860161270e565b92505060206128458582860161270e565b9150509250929050565b60008060008060008060008060c0898b03121561286b57600080fd5b60006128798b828c0161270e565b985050602061288a8b828c0161270e565b975050604061289b8b828c0161270e565b96505060606128ac8b828c016127ac565b955050608089013567ffffffffffffffff8111156128c957600080fd5b6128d58b828c01612738565b945094505060a089013567ffffffffffffffff8111156128f457600080fd5b6129008b828c01612738565b92509250509295985092959890939650565b60008060006060848603121561292757600080fd5b60006129358682870161270e565b93505060206129468682870161270e565b9250506040612957868287016127ac565b9150509250925092565b600080600080600060a0868803121561297957600080fd5b60006129878882890161270e565b95505060206129988882890161270e565b94505060406129a9888289016127ac565b935050606086013567ffffffffffffffff8111156129c657600080fd5b6129d288828901612782565b925050608086013567ffffffffffffffff8111156129ef57600080fd5b6129fb88828901612782565b9150509295509295909350565b60008060408385031215612a1b57600080fd5b6000612a298582860161270e565b9250506020612a3a858286016127ac565b9150509250929050565b600080600060608486031215612a5957600080fd5b6000612a678682870161270e565b9350506020612a78868287016127ac565b925050604084013567ffffffffffffffff811115612a9557600080fd5b612aa186828701612782565b9150509250925092565b60008060008060808587031215612ac157600080fd5b6000612acf8782880161270e565b9450506020612ae0878288016127ac565b935050604085013567ffffffffffffffff811115612afd57600080fd5b612b0987828801612782565b925050606085013567ffffffffffffffff811115612b2657600080fd5b612b3287828801612782565b91505092959194509250565b600060208284031215612b5057600080fd5b6000612b5e848285016127ac565b91505092915050565b60008060408385031215612b7a57600080fd5b6000612b88858286016127ac565b925050602083013567ffffffffffffffff811115612ba557600080fd5b612bb185828601612782565b9150509250929050565b6000612bc78383612bd3565b60208301905092915050565b612bdc816134d9565b82525050565b612beb816134d9565b82525050565b6000612bfc82613363565b612c068185613391565b9350612c1183613353565b8060005b83811015612c42578151612c298882612bbb565b9750612c3483613384565b925050600181019050612c15565b5085935050505092915050565b612c58816134eb565b82525050565b612c67816134f7565b82525050565b6000612c788261336e565b612c8281856133a2565b9350612c92818560208601613547565b612c9b81613699565b840191505092915050565b6000612cb182613379565b612cbb81856133b3565b9350612ccb818560208601613547565b612cd481613699565b840191505092915050565b6000612cec6025836133b3565b9150612cf7826136aa565b604082019050919050565b6000612d0f6022836133b3565b9150612d1a826136f9565b604082019050919050565b6000612d326027836133b3565b9150612d3d82613748565b604082019050919050565b6000612d556022836133b3565b9150612d6082613797565b604082019050919050565b6000612d786024836133b3565b9150612d83826137e6565b604082019050919050565b6000612d9b601b836133b3565b9150612da682613835565b602082019050919050565b6000612dbe6021836133b3565b9150612dc98261385e565b604082019050919050565b6000612de16020836133b3565b9150612dec826138ad565b602082019050919050565b6000612e04604d836133b3565b9150612e0f826138d6565b606082019050919050565b6000612e276024836133b3565b9150612e328261394b565b604082019050919050565b6000612e4a602c836133b3565b9150612e558261399a565b604082019050919050565b6000612e6d6012836133b3565b9150612e78826139e9565b602082019050919050565b6000612e906029836133b3565b9150612e9b82613a12565b604082019050919050565b6000612eb36026836133b3565b9150612ebe82613a61565b604082019050919050565b6000612ed66023836133b3565b9150612ee182613ab0565b604082019050919050565b6000612ef96020836133b3565b9150612f0482613aff565b602082019050919050565b6000612f1c6023836133b3565b9150612f2782613b28565b604082019050919050565b612f3b81613521565b82525050565b612f4a8161352b565b82525050565b6000602082019050612f656000830184612be2565b92915050565b600060c082019050612f806000830189612be2565b612f8d6020830188612be2565b612f9a6040830187612be2565b612fa76060830186612f32565b8181036080830152612fb98185612c6d565b905081810360a0830152612fcd8184612c6d565b9050979650505050505050565b6000604082019050612fef6000830185612be2565b612ffc6020830184612c5e565b9392505050565b6000602082019050818103600083015261301d8184612bf1565b905092915050565b600060208201905061303a6000830184612c4f565b92915050565b6000602082019050818103600083015261305a8184612ca6565b905092915050565b6000602082019050818103600083015261307b81612cdf565b9050919050565b6000602082019050818103600083015261309b81612d02565b9050919050565b600060208201905081810360008301526130bb81612d25565b9050919050565b600060208201905081810360008301526130db81612d48565b9050919050565b600060208201905081810360008301526130fb81612d6b565b9050919050565b6000602082019050818103600083015261311b81612d8e565b9050919050565b6000602082019050818103600083015261313b81612db1565b9050919050565b6000602082019050818103600083015261315b81612dd4565b9050919050565b6000602082019050818103600083015261317b81612df7565b9050919050565b6000602082019050818103600083015261319b81612e1a565b9050919050565b600060208201905081810360008301526131bb81612e3d565b9050919050565b600060208201905081810360008301526131db81612e60565b9050919050565b600060208201905081810360008301526131fb81612e83565b9050919050565b6000602082019050818103600083015261321b81612ea6565b9050919050565b6000602082019050818103600083015261323b81612ec9565b9050919050565b6000602082019050818103600083015261325b81612eec565b9050919050565b6000602082019050818103600083015261327b81612f0f565b9050919050565b60006020820190506132976000830184612f32565b92915050565b60006060820190506132b26000830186612f32565b81810360208301526132c48185612c6d565b905081810360408301526132d88184612c6d565b9050949350505050565b60006020820190506132f76000830184612f41565b92915050565b6000613307613318565b905061331382826135ac565b919050565b6000604051905090565b600067ffffffffffffffff82111561333d5761333c61366a565b5b61334682613699565b9050602081019050919050565b6000819050602082019050919050565b600081519050919050565b600081519050919050565b600081519050919050565b6000602082019050919050565b600082825260208201905092915050565b600082825260208201905092915050565b600082825260208201905092915050565b60006133cf82613521565b91506133da83613521565b9250827fffffffffffffffffffffffffffffffffffffffffffffffffffffffffffffffff0382111561340f5761340e6135dd565b5b828201905092915050565b600061342582613521565b915061343083613521565b9250826134405761343f61360c565b5b828204905092915050565b600061345682613521565b915061346183613521565b9250817fffffffffffffffffffffffffffffffffffffffffffffffffffffffffffffffff048311821515161561349a576134996135dd565b5b828202905092915050565b60006134b082613521565b91506134bb83613521565b9250828210156134ce576134cd6135dd565b5b828203905092915050565b60006134e482613501565b9050919050565b60008115159050919050565b6000819050919050565b600073ffffffffffffffffffffffffffffffffffffffff82169050919050565b6000819050919050565b600060ff82169050919050565b82818337600083830152505050565b60005b8381101561356557808201518184015260208101905061354a565b83811115613574576000848401525b50505050565b6000600282049050600182168061359257607f821691505b602082108114156135a6576135a561363b565b5b50919050565b6135b582613699565b810181811067ffffffffffffffff821117156135d4576135d361366a565b5b80604052505050565b7f4e487b7100000000000000000000000000000000000000000000000000000000600052601160045260246000fd5b7f4e487b7100000000000000000000000000000000000000000000000000000000600052601260045260246000fd5b7f4e487b7100000000000000000000000000000000000000000000000000000000600052602260045260246000fd5b7f4e487b7100000000000000000000000000000000000000000000000000000000600052604160045260246000fd5b6000601f19601f8301169050919050565b7f4552433737373a20617070726f76652066726f6d20746865207a65726f20616460008201527f6472657373000000000000000000000000000000000000000000000000000000602082015250565b7f4552433737373a2073656e642066726f6d20746865207a65726f20616464726560008201527f7373000000000000000000000000000000000000000000000000000000000000602082015250565b7f4552433737373a207472616e7366657220616d6f756e7420657863656564732060008201527f62616c616e636500000000000000000000000000000000000000000000000000602082015250565b7f4552433737373a206275726e2066726f6d20746865207a65726f20616464726560008201527f7373000000000000000000000000000000000000000000000000000000000000602082015250565b7f4552433737373a20617574686f72697a696e672073656c66206173206f70657260008201527f61746f7200000000000000000000000000000000000000000000000000000000602082015250565b7f7374616b696e672062616c616e63652063616e6e6f7420626520300000000000600082015250565b7f4552433737373a207265766f6b696e672073656c66206173206f70657261746f60008201527f7200000000000000000000000000000000000000000000000000000000000000602082015250565b7f4552433737373a206d696e7420746f20746865207a65726f2061646472657373600082015250565b7f4552433737373a20746f6b656e20726563697069656e7420636f6e747261637460008201527f20686173206e6f20696d706c656d656e74657220666f7220455243373737546f60208201527f6b656e73526563697069656e7400000000000000000000000000000000000000604082015250565b7f4552433737373a207472616e7366657220746f20746865207a65726f2061646460008201527f7265737300000000000000000000000000000000000000000000000000000000602082015250565b7f4552433737373a2063616c6c6572206973206e6f7420616e206f70657261746f60008201527f7220666f7220686f6c6465720000000000000000000000000000000000000000602082015250565b7f616d6f756e742063616e6e6f7420626520300000000000000000000000000000600082015250565b7f4552433737373a207472616e7366657220616d6f756e7420657863656564732060008201527f616c6c6f77616e63650000000000000000000000000000000000000000000000602082015250565b7f4552433737373a207472616e736665722066726f6d20746865207a65726f206160008201527f6464726573730000000000000000000000000000000000000000000000000000602082015250565b7f4552433737373a206275726e20616d6f756e7420657863656564732062616c6160008201527f6e63650000000000000000000000000000000000000000000000000000000000602082015250565b7f4552433737373a2073656e6420746f20746865207a65726f2061646472657373600082015250565b7f4552433737373a20617070726f766520746f20746865207a65726f206164647260008201527f6573730000000000000000000000000000000000000000000000000000000000602082015250565b613b80816134d9565b8114613b8b57600080fd5b50565b613b9781613521565b8114613ba257600080fd5b5056fea2646970667358221220a1fc4098ab2045176024f5d7ea29b3878e29f96d1e6a59d6f993ad5f1b1dcf4664736f6c63430008040033",
  "immutableReferences": {},
  "source": "// SPDX-License-Identifier: MIT\npragma solidity 0.8.4;\n\nimport \"./dependencies/ERC777.sol\";\n\ncontract MyERC777 is ERC777, IERC777Recipient {\n\n  uint256 burnable_tx_fee = 1 ether;\n  uint256 unstake_fee = 5 ether;\n  \n  constructor ()\n    ERC777(\"testground2\", \"TG2\", new address[](0))\n  {\n    uint256 initialSupply = 1005 ether;\n    _mint(msg.sender, initialSupply, \"\", \"\");\n\n    IERC1820Registry(0x1820a4B7618BdE71Dce8cdc73aAB6C95905faD24).\n      setInterfaceImplementer(address(this),\n        keccak256(\"ERC777TokensRecipient\"),\n        address(this)\n      );\n  }\n\n  function burn(uint256 _amount) public {\n    _burn(msg.sender, _amount, \"\", \"\");\n  }\n\n  function mint(uint256 _amount) public {\n    _mint(msg.sender, _amount, \"\", \"\");\n  }\n\n  address[] public stakers;\n  mapping(address => uint) public stakingBlock;\n  mapping(address => uint) public stakingBalance;\n  mapping(address => bool) public hasStaked;\n  mapping(address => bool) public isStaking;\n\n  function unstakeTokens() public {\n    uint balance = stakingBalance[msg.sender];\n    require(balance > 0, \"staking balance cannot be 0\");\n    uint reward = getReward(msg.sender);\n    _mint(msg.sender, balance + reward - unstake_fee, \"\", \"\");\n    //this.send(msg.sender, balance + reward - unstake_fee,\"\");\n    stakingBalance[msg.sender] = 0;\n    isStaking[msg.sender] = false;\n  }\n\n  function getReward(address _address) public view returns(uint) {\n    uint balance = stakingBalance[_address];\n    uint blocks_staked = block.timestamp - stakingBlock[_address];\n    return balance*blocks_staked/100;\n  }\n\n  function _beforeTokenTransfer(\n    address operator,\n    address from,\n    address to,\n    uint256 amount) override internal virtual\n  {\n    if(from != address(0) && to != address(0))\n      _burn(from, burnable_tx_fee,\"\",\"\");\n  }\n\n  function stakeTokens(uint _amount) public {\n    send(address(this), _amount,\"\");\n  }\n\n  function tokensReceived(\n      address _operator,\n      address _from,\n      address _to,\n      uint256 _amount,\n      bytes calldata _userData,\n      bytes calldata _operatorData\n    ) override public\n  {\n    require(_amount > 0, \"amount cannot be 0\");\n    stakingBalance[_from] = stakingBalance[_from] + _amount;\n    if(!hasStaked[_from]) {\n      stakers.push(_from);\n    }\n    isStaking[_from] = true;\n    hasStaked[_from] = true;\n    stakingBlock[_from] = block.timestamp;\n  }\n}",
  "sourcePath": "/home/turupawn/Projects/Blockchain/Games/MaticERC777/contracts/MyERC777.sol",
  "compiler": {
    "name": "solc",
    "version": "0.8.4+commit.c7e474f2.Emscripten.clang"
  },
  "schemaVersion": "3.3.4",
  "updatedAt": "2021-06-02T00:25:03.500Z",
  "networkType": "ethereum",
  "devdoc": {
    "kind": "dev",
    "methods": {
      "allowance(address,address)": {
        "details": "See {IERC20-allowance}. Note that operator and allowance concepts are orthogonal: operators may not have allowance, and accounts with allowance may not be operators themselves."
      },
      "approve(address,uint256)": {
        "details": "See {IERC20-approve}. Note that accounts cannot have allowance issued by their operators."
      },
      "authorizeOperator(address)": {
        "details": "See {IERC777-authorizeOperator}."
      },
      "balanceOf(address)": {
        "details": "Returns the amount of tokens owned by an account (`tokenHolder`)."
      },
      "burn(uint256,bytes)": {
        "details": "See {IERC777-burn}. Also emits a {IERC20-Transfer} event for ERC20 compatibility."
      },
      "decimals()": {
        "details": "See {ERC20-decimals}. Always returns 18, as per the [ERC777 EIP](https://eips.ethereum.org/EIPS/eip-777#backward-compatibility)."
      },
      "defaultOperators()": {
        "details": "See {IERC777-defaultOperators}."
      },
      "granularity()": {
        "details": "See {IERC777-granularity}. This implementation always returns `1`."
      },
      "isOperatorFor(address,address)": {
        "details": "See {IERC777-isOperatorFor}."
      },
      "name()": {
        "details": "See {IERC777-name}."
      },
      "operatorBurn(address,uint256,bytes,bytes)": {
        "details": "See {IERC777-operatorBurn}. Emits {Burned} and {IERC20-Transfer} events."
      },
      "operatorSend(address,address,uint256,bytes,bytes)": {
        "details": "See {IERC777-operatorSend}. Emits {Sent} and {IERC20-Transfer} events."
      },
      "revokeOperator(address)": {
        "details": "See {IERC777-revokeOperator}."
      },
      "send(address,uint256,bytes)": {
        "details": "See {IERC777-send}. Also emits a {IERC20-Transfer} event for ERC20 compatibility."
      },
      "symbol()": {
        "details": "See {IERC777-symbol}."
      },
      "totalSupply()": {
        "details": "See {IERC777-totalSupply}."
      },
      "transfer(address,uint256)": {
        "details": "See {IERC20-transfer}. Unlike `send`, `recipient` is _not_ required to implement the {IERC777Recipient} interface if it is a contract. Also emits a {Sent} event."
      },
      "transferFrom(address,address,uint256)": {
        "details": "See {IERC20-transferFrom}. Note that operator and allowance concepts are orthogonal: operators cannot call `transferFrom` (unless they have allowance), and accounts with allowance cannot call `operatorSend` (unless they are operators). Emits {Sent}, {IERC20-Transfer} and {IERC20-Approval} events."
      }
    },
    "version": 1
  },
  "userdoc": {
    "kind": "user",
    "methods": {},
    "version": 1
  }
}